:020000040000FA
:1000000018CF072001030000090300000B030000C4
:100010000D0300000F0300001103000000000000AA
:10002000000000000000000000000000FD010000D2
:10003000150300000000000075020000B10200007E
:100040001B0300001B0300001B0300001B03000038
:100050001B0300009D210000AD2100001B030000D8
:100060001B0300001B0300001B0300001B03000018
:100070001B0300001B0300001B030000A91100006C
:100080001B0300001B0300001B0300001B030000F8
:100090001B0300001B0300001B0300001B030000E8
:1000A0001B0300001B0300004D0800001B030000A1
:1000B0001B0300001B0300001B0300001B030000C8
:1000C0001B0300001B0300001B03000000F002F8EC
:1000D00000F03FF80AA090E8000C82448344AAF1A3
:1000E0000107DA4501D100F034F8AFF2090EBAE8A1
:1000F0000F0013F0010F18BFFB1A43F0010318475C
:10010000FC6B00002C6C0000103A24BF78C878C14A
:10011000FAD8520724BF30C830C144BF04680C600D
:10012000704700000023002400250026103A28BF55
:1001300078C1FBD8520728BF30C148BF0B60704759
:10014000642900F09981002070471FB51FBD10B5CC
:1001500010BD00F043FB1146FFF7F7FF0FB400F0AE
:100160000BF80FBC03F094FD00F049FA03B4FFF75D
:10017000EEFF03BC00F02CFB04B003F00DFE0448BE
:10018000002103F069FE03F019FE00F038FA0000C8
:10019000F469000080F309887047EFF30980704725
:1001A000684680F3098804480078C00714BF02201D
:1001B000032080F314887047B4690000DFF818C08A
:1001C000EFF305831B0618BF6047EFF31483DB07CB
:1001D00008BF604700DF7047EF3E0000DFF818C03F
:1001E000EFF305831B0618BF6047EFF31483DB07AB
:1001F00008BF604700DF70476D410000EFF30980E2
:10020000816911F8021CF1B990E80F10E047EFF393
:10021000098C8CE80700144B93E8060091420FD03C
:1002200039B12CE9F00FC1F828C00CB404F0DCFAA5
:100230000CBC1A60D2F828C0BCE8F00F8CF3098817
:100240006FF0020E704710B5084A1268914209D843
:10025000074C54F8214090E80F10A047EFF3098CA9
:100260008CE80F0010BD000064C0072028080000C3
:100270002808000004F08AF90C4B93E8060091422C
:1002800010D0EFF3098C2CE9F00FC1F828C00CB4A2
:1002900004F0AAFA0CBC1A60D2F828C0BCE8F00F2F
:1002A0008CF309886FF0020E7047000064C00720CD
:1002B00004F062FBE0E7000003F018FE04F05CFBD2
:1002C000DAE7000000487047B8CC07200FB41CB52F
:1002D000074B06AA7B4469460090059800F05FFA38
:1002E0000020694600F06EFA1CBC5DF814FB0000AB
:1002F000ED0400007047704770477047FFFFFFFF35
:100300000948804709480047FEE7FEE7FEE7FEE7A9
:10031000FEE7FEE7FEE7FEE7FEE7FEE704480549E5
:10032000034A054B704700005D200000CD0000002F
:1003300018CD072018CF072018CD072053EA020C4C
:1003400000F069802DE9F04B4FF00006002B1FBF35
:10035000B3FA83F503FA05F424FA05F65E4012BFFA
:100360001643B2FA82F502FA05F4C5F120051EBF64
:1003700022FA05FC44EA0C04203556EA044C4FEA04
:10038000144418BF641C4FF000084FF0000990425D
:1003900071EB030C39D3002919BFB1FA81F701FAC7
:1003A00007F6B0FA80F700FA07F6C7F120071EBF7C
:1003B00020FA07FC46EA0C062037B6FBF4FCA7EB54
:1003C0000507103F07F01F0BCBF120060CFA0BFBC3
:1003D0002CFA06F644BFB3460026202FA4BF5E4683
:1003E0004FF0000B5BEA060C08BF4FF0010B19EB56
:1003F0000B09ABFB027C48EB0608C01B06FB02CCDA
:100400000BFB03CC71EB0C01C1E70B4602464146E6
:100410004846BDE8F08B13B54FF000004FF00001E7
:10042000AFF30080BDE81C40704770B50446856995
:100430000068C10601D5302600E02026C00707D09D
:1004400070BDD4E9012130469047206A401C2062EB
:100450006D1EF6D570BD70B5044685690078C0077D
:1004600007D170BDD4E9012120209047206A401CAB
:1004700020626D1EF6D570BD2DE9F04106460024C0
:1004800010687529314616A510D0AFF300800028FA
:1004900002DA404213A507E031688A0701D512A5A8
:1004A00002E0490704D511A5012401E0AFF3008063
:1004B00000210A2206F1240709E0B0FBF2FCB0FBA0
:1004C000F2F302FB1C00303078541846491C002817
:1004D000F3D123462A463046BDE8F04100F000B98A
:1004E000000000002D0000002B0000002000000094
:1004F0002DE9F0474FF0000A89460446C0F820A0D5
:100500002046E1688847002876D0252806D0D4E91F
:1005100001219047206A401C2062F1E7E1682046F3
:1005200000258847C4F81CA006460027C4F818A078
:100530002A2E09D0304603F0E0FA38B304EB8708DE
:10054000303EC8F8186019E059F8041B204604EB47
:1005500087029161E1688847012F064618D1E0695A
:10056000002820DA25F020051DE0D8F8180000EB5F
:10057000800006EB40003038C8F818002046E168DB
:100580008847064603F0B9FA0028EED1012F0AD0B9
:100590002E2E08D12046E16888477F1C0646022F90
:1005A00045F02005C4DBA069002803DA404245F08D
:1005B0000105A061E80701D025F01005B6B1A6F14C
:1005C0004100192802D8203645F400654A463146D4
:1005D000204625604D46FFF7B3FD58B1012806D0EF
:1005E000ED1D25F0070000F1080989E704E005F199
:1005F000040985E730468AE7206ABDE8F08710B530
:100600000446AFF300802046BDE81040FFF7AEBDC2
:100610004FF0000200B5134694469646203922BF9B
:10062000A0E80C50A0E80C50B1F12001BFF4F7AFE6
:10063000090728BFA0E80C5048BF0CC05DF804EBC8
:10064000890028BF40F8042B08BF704748BF20F836
:10065000022B11F0804F18BF00F8012B70470000EB
:100660004FF0013C50F8042B51F8043B9A4221D141
:10067000A2EB0C03934313EACC1317D150F8042BCD
:1006800051F8043B9A4215D1A2EB0C03934313EAB1
:10069000CC130BD150F8042B51F8043B9A4209D1EA
:1006A000A2EB0C03934313EACC13DBD04FF0000012
:1006B000704700BFD01A01BAB1FA81F101F01801F8
:1006C00022FA01F0CB40C1F12001DBB2C0B2C01A66
:1006D0002CFA01F3D11A914311EAC311E6D1704704
:1006E0002DE9F0470D4699469246044600F124084C
:1006F0000168880604D5E06921F01001216000E05E
:100700000120A84201DD471B00E00027A1697A19FA
:1007100002EB0900081AA0612078C00602D4204626
:10072000FFF783FE002608E0D4E901211AF806004D
:100730009047206A401C761C20624E45F4DB2078EE
:10074000C0060AD52046FFF770FE06E0D4E9012175
:1007500030209047206A401C2062381EA7F1010714
:10076000F4DC07E0D4E9012118F805009047206A7D
:10077000401C2062281EA5F10105F3DC2046FFF78E
:100780006AFE2078000602D50220BDE8F08701202D
:10079000FBE7000001694A1C02610878704700B558
:1007A0008FB0CDE901310021059105497944CDE9AA
:1007B000031011466846FFF79BFE0FB000BD000016
:1007C000E5FFFFFF0A6802F8010B0A6070470000AE
:1007D00001491820ABBEFEE7260002007546FFF770
:1007E00071FDAE4605006946534620F00700854678
:1007F00018B020B5FFF792FDBDE820404FF000068D
:100800004FF000074FF000084FF0000B21F00701F8
:10081000AC46ACE8C009ACE8C009ACE8C009ACE83B
:10082000C0098D46704700000000000000BF012194
:100830008140054A52E8002F22EA0101024B43E8B9
:100840000012002AF3D1704750C0072070B5002471
:10085000B2E05B4801680120A0400140002975D04A
:10086000584901EB4415564840680121A140084011
:1008700000287DD00120A0405149886004EB84000D
:10088000514901EB8000C06804EB84014E4A02EB41
:100890008101896888425AD004EB8400114601EB3B
:1008A0008000806804EB840102EB8101C968461A6C
:1008B000B6F5805F01D340F6FF7604EB8400424931
:1008C00001EB8000C068304404EB84013E4A02EB37
:1008D0008101C860E86800F0806098B104EB840092
:1008E000114651F82000286004EB840051F82010D4
:1008F000E868C0F3814006FA00F0084404EB840184
:1009000042F82100E86800F00060B8B104EB840010
:100910002D4901EB80004068686004EB840001EB26
:1009200080004168E868C0F3415006FA00F00844CE
:1009300004EB8401244A02EB81014860E86866F315
:100940000B00E860286940F00100286133E0E0B264
:10095000FFF76CFF04EB84001B4901EB800000698A
:1009600048B304EB84000A4602EB8000016900E012
:1009700002E0012088471EE01148C0680121A14023
:100980000840C0B100202861E860E0B2FFF74EFFE8
:100990000120A0400A49086104EB84000A4901EBE8
:1009A0008000006938B104EB84000A4602EB800045
:1009B000016902208847641C082CFFF44AAF70BD0F
:1009C0000040005000410050B4CB072010B500F0AB
:1009D00073F8222004F0E4FA04F022FB002404E07F
:1009E0000548008804F002FB641CB4F5963FF7D379
:1009F00004F022FB002010BD1AC007200146024867
:100A000001600020704700001CC007202DE9F0475E
:100A100004460D4616461F462648007860B3A019C6
:100A2000A0F10108E819A0F10109C4F30F21022087
:100A300004F00CFBE1B2032004F008FBC8F30F2123
:100A4000042004F003FB08F0FF01052004F0FEFA87
:100A5000C5F30F21062004F0F9FAE9B2072004F0EB
:100A6000F5FAC9F30F21082004F0F0FA09F0FF01AC
:100A7000092004F0EBFA1BE0A9B2502004F0E6FADA
:100A8000E819401E81B2512004F0E0FAA1B25220D0
:100A900004F0DCFAA019401E81B2532004F0D6FA0B
:100AA000A9B2202004F0D2FAA1B2212004F0CEFA9B
:100AB000BDE8F08720C0072010B5F0234FF4A072E6
:100AC00000210846FFF7A2FF10BD00002DE9F05FEE
:100AD0000446884691461E46DDE90BAB0A9F082C6A
:100AE00003DB4FF0FF30BDE8F09F204601F09AFA9B
:100AF000401C10B94FF0FF30F5E704EB84002D499E
:100B000001EB8000C0F810B02B4901EB4415002028
:100B10002861E8600120A040284988600120A040A9
:100B200008610020A8600120086300BF2348006B13
:100B300000F001000028F9D004EB84001D4901EB0E
:100B400080008660B6F5805F01D340F6FF763846B8
:100B500066F30B000746C5F80080C5F8049007F05F
:100B6000806020B1C7F3814006FA00F0804407F0AE
:100B7000006020B1C7F3415006FA00F0814404EB55
:100B800084000C4941F8208004EB840001EB8000D4
:100B9000C0F8049004EB840001EB8000C660EF60B5
:100BA000C5F810A00AF0010010B92046FFF73EFE7C
:100BB000002098E7B4CB07200041005000400050CF
:100BC00010B50446082C02DB4FF0FF3010BD204664
:100BD000FFF72CFE054901EB4410006920F00100ED
:100BE0000A4602EB441108610020EFE70041005083
:100BF0000146082901DB0020704701EB8100064A0D
:100C000002EB8000C068054B03EB4112D268C2F3CF
:100C10000B02801AF0E70000B4CB0720004100501F
:100C200010B524480068401C224908600846006846
:100C3000012801D9002010BD1F48006840F0005075
:100C40001D49C439C1F8C400002419E000201B4A22
:100C500002EB4411086104EB8401194A42F82100B7
:100C600004EB840102EB8101486004EB840102EB98
:100C70008101886004EB840102EB8101C860641C7F
:100C8000082CE3D3FF200F49886008611A2002F086
:100C900003FF1A20002809DB00F01F020121914008
:100CA0004209920002F1E022C2F8001100BF0020C8
:100CB000C1E7000054C00720C4C00F4000410050ED
:100CC000B4CB07200040005010B502460F2A03D8CD
:100CD000082A01D3012902D94FF0FF3010BD39B1E4
:100CE00009480068A2F1080301249C40204306E063
:100CF00005480068A2F1080301249C40A043024B70
:100D000018600020EAE70000C4C10F4010B51C487D
:100D1000006810B94FF0FF3010BD19480068401E40
:100D2000174908600846006808B10020F4E7154834
:100D3000006820F000501349C439C1F8C4001A20DB
:100D4000002817DB00F01F02012191400E4A4309E1
:100D500042F8231000BF00BF00BFBFF34F8F00BF9A
:100D600000BF00BF00BF00BF00BFBFF36F8F00BF59
:100D700000BF00BF00BF1A2002F08EFE0020CBE7AC
:100D800054C00720C4C00F4080E100E030B53AB144
:100D900001238B40064C202505FB0044A36106E09F
:100DA00001238B40024C202505FB0044E36130BD4C
:100DB00000C0092030B55AB10B4C04EB40131B683E
:100DC00001248C402343084D05EB401423600AE0C6
:100DD000054C04EB40131B6801248C40A343024DD7
:100DE00005EB4014236030BD00C0092030B5024639
:100DF000946A24682025AD5CEC4004F0030333B111
:100E0000012B06D0022B06D0032B08D105E00421CC
:100E100006E0012104E0022102E0082100BF00BF3A
:100E200000BF024C2468B4FBF1F030BD58C007206D
:100E300030B50246D46C24684425AD5CEC4004F027
:100E4000030333B1012B06D0022B06D0032B08D1AC
:100E500005E0042105E0012103E0022101E0082171
:100E600000BF00BF024C2468B4FBF1F030BD0000AD
:100E700058C0072010B51848816818488847164898
:100E800001690220884714484FF4E131826A012049
:100E9000904711480121826A152090470E48012190
:100EA000826A162090470E488168002088470C48C7
:100EB0000169022088470A484FF4E131826A012023
:100EC000904707480121826A152090470448012174
:100ED000826A1620904710BD8C6C0000413D0000D6
:100EE000C46C00001748007840F07C001549403978
:100EF00081F84000084690F8230040F0B00081F8E7
:100F00002300084690F8410000F0FB0081F8410002
:100F10000846807800208870084690F8230000F08A
:100F2000F80081F82300084690F8220000F06F00D6
:100F300081F822000448406C4AF6AA21084302497D
:100F40004864704740C0092000C002409CB04FF088
:100F5000FF31012002F074FF8DE807005AE02E48AF
:100F60004FF4FA6182692D4890474FF0FF3102201B
:100F700002F066FF8DE8070000BF2749486A8047F6
:100F8000B0F5FA6FF9D303F099FE002024490870F8
:100F9000002420E004EB8400C01C2049095C04EB21
:100FA0008400001D1D4A105C41EA0020282190FBAE
:100FB000F1F001B204EB8400401C105C421004EB21
:100FC0008400801C154B185C42EAC0108011154A41
:100FD00022F81010641CB4F5C87FDBDB002416E097
:100FE000104830F9143022460FA103A8FFF76EF91C
:100FF00015486421426903A8904700BF1249C86A96
:101000008047029000F001000028F7D1641CB4F57D
:10101000B47FE5DBA3E700008C6C000084C00720F0
:1010200007C0072054C80720416E676C653A253316
:1010300064B0202C2044697374616E63653A253571
:101040006420636D0D0A0000C46C00002DE9F041BE
:1010500004460D461646069F00212A46102D03DB46
:10106000A5F11000C2B20121DFF8D8C00CEBC4001A
:1010700050F821004FEA42084FF0030C0CFA08FC2C
:1010800020EA0C00DFF8BC8008EBC40C4CF821000F
:10109000C4460CEBC40050F821004FEA420C06FA9B
:1010A0000CFC40EA0C0008EBC40C4CF8210025486D
:1010B000403000EBC40050F821004FEA42084FF0E6
:1010C000030C0CFA08FC20EA0C0C1E48403000EB24
:1010D000C40040F821C01B48403000EBC40050F869
:1010E00021004FEA420C03FA0CFC40EA0C00DFF846
:1010F00054C00CF1400C0CEBC40C4CF82100012F37
:101100000ED11048683050F824C00120A8404CEAA5
:101110000000DFF830C00CF1680C4CF824000DE042
:101120000848683050F824C00120A8402CEA00008C
:10113000DFF810C00CF1680C4CF824000020BDE86A
:10114000F081000000C0024070B504460D46034A1D
:101150002946204600F080F870BD00000C6A0000AF
:1011600010B504460249204600F005FB10BD000002
:101170000C6A000010B504460249204600F016FB38
:1011800010BD00000C6A000010B5024800F01CFB06
:1011900010BD00000C6A000008B5024800F02AFBF0
:1011A000009008BD0C6A000010B5024800F04FFB2B
:1011B00010BD00000C6A000010B50446024920462C
:1011C00000F0C7FB10BD00000C6A000010B504461B
:1011D0000249204600F012FC10BD00000C6A00001D
:1011E00070B504460D46034A2946204600F0E0FC4F
:1011F00070BD00000C6A000070B504460D46034A3D
:101200002946204600F082FD70BD00000C6A0000F7
:1012100070B504460D461646034B32462946204615
:1012200000F01EFE70BD00000C6A000010B5024800
:1012300000F0BFFE10BD00000C6A0000014800680D
:1012400070470000086A000008B502480068009076
:1012500008BD0000046A00002DE9FF5F05460E4648
:1012600014464FF0000902200390002002900190E4
:10127000206CC07900F0020020B94FF0FF3004B0BC
:10128000BDE8F09FE8B2142828D12068406820F01B
:10129000020021684860002021684861206C0079C4
:1012A00068B194F82C0018B12D21085DFFF788FC77
:1012B0003420005D18B13521085DFFF781FC1C2149
:1012C000606CFFF7A5F90020216C08712068406868
:1012D00040F00200216848600020D0E7206C0079CF
:1012E00010B16FF00100CAE7E8B204287ED007DC35
:1012F00088B101282AD0022850D0032808D17AE0EA
:1013000010287CD0112873D0122872D0132871D0E5
:101310006FF00300B3E72068406820F00200216806
:101320004860002021684861206C806820F0FF0040
:10133000216C8860206C8068216C8860206CC0798A
:1013400020F00400216CC871002098E720684068F4
:1013500020F0020021684860002021684861206870
:10136000406820F0040021684860206C806820F00C
:10137000FF00216C8860206C806840F00100216CC7
:101380008860206CC07940F00400216CC87120682E
:10139000406840F002002168486031E02068406801
:1013A00020F00200216848602068406840F0040096
:1013B00021684860012021684861206C806820F025
:1013C000FF00216C8860206C806840F00200216C76
:1013D0008860206CC07940F00400216CC8712068DE
:1013E000406840F002002168486090E004E006E0B8
:1013F00057E065E068E000BF6FF006003FE700BF20
:1014000016B94FF0FF303AE72046FFF7EFFC4FEAFE
:10141000001B3601022722E04FF000081BE008F114
:1014200001007843BBFBF0F94E4505D1CDF804909F
:101430000397CDF808801AE04E450AD90198301A72
:10144000A6EB0901884204D9CDF804900397CDF8A2
:10145000088008F10108B8F1FF0FE0D9BF1CFF2F89
:10146000DAD3019810B94FF0FF3008E700BF0398B6
:10147000C0B2216808612068006820F47F402168BC
:101480000860206800684FF47F42029902EA012157
:10149000084321680860E8B2102801D10020EEE678
:1014A00035E02046FFF7A2FC21680969C9B222682D
:1014B0001268C2F30722521C5143B0FBF1F0DEE682
:1014C000616C0E830020DAE6206C007A012806D1D8
:1014D000206C806800F4C010B0F5002F02D04FF0EF
:1014E000FF30CCE6606810B94FF0FF30C7E636B980
:1014F0006268517810780122FFF748FC05E06268C5
:10150000517810780022FFF741FC0020B7E600BFB9
:10151000206C007A012872D105F4C01048B1B0F5F2
:10152000002F25D0B0F5801F4AD0B0F5C01F64D180
:1015300015E0606840B10020009062685178107832
:1015400000231A46FFF782FD206C806820F4C0104B
:10155000216C8860206C8068216C88604EE0206C73
:10156000806820F4C010216C88606FF00A0086E665
:10157000206C806820F4C010216C88606068D8B14D
:101580000020009062685178107803230022FFF752
:101590005DFD6268517810780122FFF70BFC6268EC
:1015A000517810780122FFF7F1FB206C806840F43D
:1015B0000020216C886002E06FF00A005FE61DE009
:1015C000206C806820F4C010216C8860606878B15D
:1015D00000200090227D6368597818780323FFF774
:1015E00035FD206C806840F48010216C886003E039
:1015F0006FF00A0043E602E000BF00BF00BF206CAE
:10160000007A02282DD105F4001018B1B0F5001FA2
:1016100023D119E0206C806820F40010216C8860D0
:10162000606868B100200090227D6368597818785E
:101630000323FFF70BFD206C8068216C886002E0BB
:101640006FF00A001BE60BE0206C806820F40010AD
:10165000216C88606FF00A0011E66FF00A000EE658
:1016600000BF05F4E060B0F5407F42D007DC68B110
:10167000B0F5807F17D0B0F5007F59D126E0B0F5E6
:10168000806F43D0B0F5A06F52D148E02068006869
:1016900020F03000216808602068006820F0C00059
:1016A0002168086047E02068006820F03000216869
:1016B00008602068006820F0400021680860206809
:1016C000006840F080002168086034E0206800680D
:1016D00020F03000216808602068006840F0400079
:1016E000216808602068006820F080002168086098
:1016F00021E02068006820F0300021680860206840
:10170000006840F0C0002168086014E020680068AC
:1017100020F0300040F01000216808600BE02068E5
:10172000006820F0300040F020002168086002E0EE
:101730006FF00700A3E500BFC5F3053ABAF1040F47
:101740000CD3BAF1100F09D82068006820F00F0000
:10175000AAF1010108432168086002E06FF0080067
:101760008DE505F48020B0F5802F02D16FF00900DF
:1017700085E5002083E570B505460C46012D02D0B5
:10178000022D0FD10FE0606C0068616CC860002012
:10179000216C0871206C006818B1206C0168012070
:1017A000884701E000BF00BF00BF70BD012802D024
:1017B000022805D105E04A6C12684B6C1A6101E001
:1017C00000BF00BF00BF704770B50446206CC079F1
:1017D00000F0040008B9002070BD3420005D28B17D
:1017E0003521085DFFF704FA054601E0606CC56825
:1017F0002846F1E70CB50146086C0279019862F3BE
:1018000000000190086C4279019862F34100019058
:10181000086C8279019862F3820001900198009A25
:1018200060F30002009201984208009862F34100C0
:10183000009001988208009862F38200009001985D
:10184000C208009862F3DF00009000980CBD70B5EC
:1018500004462068C66906F0030021680862206813
:10186000C06800F0020030B3606C0068616C096908
:10187000884220D9606C8068A0B1606C8168481C87
:10188000626C90600D782068006800F00F000728F7
:101890000AD9606C8168481C626C9060087845EADF
:1018A000002501E0606C058B20688560606C006934
:1018B000401C616C08612068C06800F004000028CA
:1018C00039D02068806885B2606C0068616CC96836
:1018D000884230D9606C406890B1606C4268501C9E
:1018E000636C586015702068006800F00F000728CE
:1018F00006D92912606C4268501C636C58601170E4
:10190000606CC068401C616CC860606CC068616CD1
:10191000096888420FD12068406920F00F002168D3
:1019200048610020216C0871206C006818B1206C9F
:1019300001680120884706F0010048B10121206CB0
:101940004171206C006818B1206C01680220884742
:1019500070BD38B505460C46206CC07900F001001A
:1019600008B1002038BD206C05600020216C087192
:101970000021206C4171206C81711C21606CFEF78C
:1019800047FE00200090627DA368597818780023F4
:10199000FFF75CFBE06840B100200090A27DE368A7
:1019A000597818780023FFF751FB206940B10020D7
:1019B0000090E27D2369597818780023FFF746FBF1
:1019C00094F82C0010B93420005D08B1FFF728F915
:1019D00094F82C0020B12E21085D0021FFF774F946
:1019E0003420005D20B13621085D0021FFF76CF93D
:1019F0000120216CC8710020B4E7000070B50546D5
:101A00000C4615B1022D6ED15EE094F93C00002821
:101A100017DB00F01F0201219140644A430942F89C
:101A2000231000BF00BF00BFBFF34F8F00BF00BF38
:101A300000BF00BF00BF00BFBFF36F8F00BF00BF7C
:101A400000BF00BFE0690068A1690843E169086060
:101A5000206C007968B194F82C0018B12D21085D34
:101A6000FFF7AEF83420005D18B13521085DFFF7AF
:101A7000A7F8002021684861216848622168086051
:101A80002168486021680861032021680862E069D4
:101A90000068A1698843E169086094F93C0001F09D
:101AA000DFFF0020216C08710021206C4171206C47
:101AB00081711C21606CFEF7ABFD206CC07920F0B9
:101AC0000200216CC8716DE0206CC07900F001004B
:101AD00010B94FF0FF3070BD206CC07900F00200EB
:101AE00010B10020F7E75AE0E0690068A1690843F7
:101AF000E1690860A06A006820210A5D0321914025
:101B00008843A16A08602021095D606A8840A16A53
:101B100009680843A16A0860002021684861032021
:101B2000216808620020216C08710021206C41713D
:101B3000206C8171206CC07940F00200216CC8716A
:101B400001E0206880682068C06800F00400002878
:101B5000F7D194F82C0028B12068406A40F00200C8
:101B6000216848623420005D28B12068406A40F056
:101B700001002168486294F93C0001F071FF94F97A
:101B80003C00002809DB00F01F02012191404209BE
:101B9000920002F1E022C2F8001100BF02E06FF0F3
:101BA000030098E700BF002095E7000080E100E017
:101BB000FEB505460E46144605B116B96FF0040091
:101BC000FEBD206CC07900F0040010B94FF0FF306A
:101BD000F6E7206C007910B16FF00100F0E701200A
:101BE000216C08710021206C4171206C8171606C46
:101BF000008B45490860606C45600020616C88601E
:101C0000606C06600020616CC860616C086194F8CB
:101C10002C00002873D03420005D00286FD03620BF
:101C2000005D3E2202EA400040F45042521CA16B8B
:101C30002068006800F00F00072801D9012000E0AB
:101C400000204FF4402303EA804023681B6803F020
:101C50000F03072B01D9012300E000234FF4C00735
:101C600007EA4353184340F00840CDE901210090B2
:101C7000226802F108013522105D33462A46FEF73C
:101C800025FF401C10B94FF0FF3099E72E20005D72
:101C90004FF4F86202EA801040F44842521C216B73
:101CA0002068006800F00F00072801D9012000E03B
:101CB00000204FF4402303EA804023681B6803F0B0
:101CC0000F03072B01D9012300E000234FF4C007C5
:101CD00007EA4353184340F00040CDE9012100904A
:101CE000216801F108022D21085D33460649FEF7FF
:101CF000EDFE401C30B94FF0FF3061E7FFE70F20E9
:101D00002168486100205BE744C00720FEB5054616
:101D10000E46144605B116B96FF00400FEBD206CE6
:101D2000C07900F0040010B94FF0FF30F6E7206CE6
:101D3000007910B16FF00100F0E70120216C08710B
:101D40000021206C4171206C81710020616C486021
:101D5000606C8560606C06600020616CC860616CBE
:101D6000086194F82C00002873D03420005D00280E
:101D70006FD03620005D3E2202EA400040F450421F
:101D8000521CA16B2068006800F00F00072801D9E1
:101D9000012000E000204FF4402303EA8040236844
:101DA0001B6803F00F03072B01D9012300E0002378
:101DB0004FF4C00707EA4353184340F00040CDE911
:101DC00001210090226802F108013522105D33469E
:101DD000224AFEF77BFE401C10B94FF0FF309DE712
:101DE0002E20005D4FF4F86202EA801040F4484271
:101DF000521C216B2068006800F00F00072801D9F1
:101E0000012000E000204FF4402303EA80402368D3
:101E10001B6803F00F03072B01D9012300E0002307
:101E20004FF4C00707EA4353184340F00440CDE99C
:101E300001210090216801F108022D21085D33463F
:101E40002946FEF743FE401C30B94FF0FF3065E7EE
:101E5000FFE70F202168486100205FE740C00720AE
:101E6000FEB505460E4617461C460DB106B117B91C
:101E70006FF00400FEBD206CC07900F0040010B9C2
:101E80004FF0FF30F6E7206C007910B16FF00100E1
:101E9000F0E70120216C08710021206C4171206C59
:101EA0008171606C4660606C8560606C07600020CA
:101EB000616CC860616C086194F82C00002873D0D4
:101EC0003420005D00286FD03620005D3E2202EAFB
:101ED000400040F45042521CA16B2068006800F0A2
:101EE0000F00072801D9012000E000204FF4402313
:101EF00003EA804023681B6803F00F03072B01D916
:101F0000012300E000234FF4C00C0CEA43531843B4
:101F100040F00840CDE901210090226802F108015B
:101F20003522105D3B463246FEF7D0FD401C10B90D
:101F30004FF0FF309EE72E20005D4FF4F86202EA7A
:101F4000801040F44842521C216B2068006800F069
:101F50000F00072801D9012000E000204FF44023A2
:101F600003EA804023681B6803F00F03072B01D9A5
:101F7000012300E000234FF4C00C0CEA4353184344
:101F800040F00440CDE901210090216801F10802F0
:101F90002D21085D3B462946FEF798FD401C30B9CF
:101FA0004FF0FF3066E7FFE70F202168486100200F
:101FB00060E738B50446606840B100200090626870
:101FC0005178107800231A46FFF740F8002000905F
:101FD000A2685178107800231A46FFF737F8E068B6
:101FE00040B100200090E2685178107800231A4632
:101FF000FFF72CF8206940B1002000902269517849
:10200000107800231A46FFF721F894F82C0010B935
:102010003420005D08B1FEF779FE0020216CC87104
:1020200038BD000010B5014600BF0B4850E8002F36
:1020300001208840104020B1BFF32F8F4FF0FF30B8
:1020400010BD012088401043034C44E80003002BDE
:10205000EBD10020F4E7000050C0072020204B49BE
:1020600008604B48D0F8A00100F0200030B100BF5C
:102070004648006800F040000028F9D0032043499A
:102080009C39086000204249C1F8A8013F490C3141
:10209000086001203D49943908603E483C4984313C
:1020A0000860AA203A498C31086055200860012058
:1020B000374980310860AA2035498C3108605520A5
:1020C0003349C1F88C0000BF31488830006800F007
:1020D00080600028F8D003202D4980310860AA20B4
:1020E0002B49C1F88C00552029498C31086000BF6C
:1020F00027488830006800F04070B0F1407FF7D189
:1021000023202349A4310860AA202149C1F8AC004A
:1021100055201F49AC31086001201D49A0310860DD
:10212000AA201B49AC31086055201949C1F8AC0000
:1021300000BF1748A830006800F480600028F8D07D
:1021400003201349A0310860AA201149C1F8AC004E
:1021500055200F49AC31086000BF0D48A830006819
:1021600000F44070B0F5407FF7D10B480849C43106
:10217000086000200649C1F8C8010846006820F43C
:10218000704040F48040086070470000A0C10F40DC
:1021900000C00F4063000500DE87280410B5024828
:1021A00000F059FE10BD0000B46B000010B50248ED
:1021B00000F051FE10BD0000286C000088B0002027
:1021C0000490A5208DF8140076E04FF0FF31012037
:1021D00001F036FE01AB07C300BF02F06FFD3748C8
:1021E0000A21426936A0904700BF3449C86A804737
:1021F000039000F001000028F7D1142001F0C0FD89
:102200002E480A21426930A0904700BF2B49C86A76
:102210008047039000F001000028F7D120208DF8BE
:1022200015002B480221426905A8904700BF2849A4
:10223000C86A8047039000F001000028F7D12448C5
:102240000121826904A8904700BF2149486A80475C
:102250000028FAD09DF81000A52818D11C480621A6
:10226000826906A8904700BF1949486A8047062836
:10227000FAD3072405E0601E06A9085C0855601E15
:10228000C4B2002CF7DC9DF810008DF818004FF058
:10229000FF31022001F0D4FD01AB07C30D4906A8B0
:1022A000FEF7DEF9002898D101200B4908700121C2
:1022B0000A48006801F0B8FD87E70000C46C000020
:1022C00053544F500A0D00005343414E0D0A000075
:1022D0008C6C000000C0072007C007200CC007203E
:1022E00070B504460D46034A2946204600F020F901
:1022F00070BD0000B46B000010B5044602492046D2
:1023000000F04EFC10BD0000B46B000010B5044698
:102310000249204600F087FC10BD0000B46B0000AD
:1023200008B5024800F0A4FC009008BDB46B0000A2
:1023300008B5024800F09FFC009008BDB46B000097
:1023400010B5024800F00DFD10BD0000B46B000098
:1023500008B5024800F013FD009008BDB46B000002
:1023600010B5024800F069FD10BD0000B46B00001C
:1023700010B504460249204600F0A3FE10BD00003F
:10238000B46B000010B504460249204600F018FF67
:1023900010BD0000B46B000070B504460D46034A42
:1023A0002946204601F032F870BD0000B46B0000F1
:1023B00070B504460D46034A2946204601F0E2F86E
:1023C00070BD0000B46B000010B504460249204601
:1023D00001F040FA10BD0000B46B000070B5044677
:1023E0000D461646034B32462946204601F082FA36
:1023F00070BD0000B46B000010B5024801F0B7FAE0
:1024000010BD0000B46B000070B504460D46034AD1
:102410002946204600F08CF870BD0000286C0000B2
:1024200010B504460249204600F0BAFB10BD00007A
:10243000286C000010B504460249204600F0F3FB6A
:1024400010BD0000286C000008B5024800F010FC28
:10245000009008BD286C000008B5024800F00BFC95
:10246000009008BD286C000010B5024800F079FC0F
:1024700010BD0000286C000008B5024800F07FFC89
:10248000009008BD286C000010B5024800F0D5FC93
:1024900010BD0000286C000010B50446024920461B
:1024A00000F00FFE10BD0000286C000010B50446BF
:1024B0000249204600F084FE10BD0000286C000098
:1024C00070B504460D46034A2946204600F09EFF9B
:1024D00070BD0000286C000070B504460D46034A2C
:1024E0002946204601F04EF870BD0000286C00001F
:1024F00010B504460249204601F0ACF910BD0000B9
:10250000286C000070B504460D461646034B324653
:102510002946204601F0EEF970BD0000286C00004D
:1025200010B5024801F023FA10BD0000286C00002D
:102530002DE9F84F81460E461446206E90F82D0086
:1025400000F0020018B94FF0FF30BDE8F88F002707
:10255000B84609F0FF001538062879D2DFE800F008
:102560000348A9C8EFED0EB3206E90F82C000628A2
:102570000BD0E06848B10020009094F83020E36868
:10258000597818780023FEF761FD206E90F82D0031
:1025900040F00800216E81F82D00606890F830004E
:1025A00040F00100616881F830001FE0206E90F873
:1025B0002D0020F00800216E81F82D00606890F851
:1025C000300020F00100616881F83000206E90F842
:1025D0002C0006280AD0E06840B100200090E26894
:1025E0005178107800231A46FEF730FD0020ACE742
:1025F0007EB3206E90F82C00062810D0206E90F844
:102600002C0004280BD0206948B10020009094F8D9
:1026100031202369597818780023FEF717FD206EC2
:1026200090F82D0040F01000216E81F82D00A06878
:1026300038B1A06890F84C0020F00200A16881F841
:102640004C006068406840F00400616848602EE01B
:10265000C8E0FFE7206E90F82D0020F01000216EFA
:1026600081F82D00A06838B1A06890F84C0040F0C7
:102670000200A16881F84C006068406820F0040006
:1026800061684860206E90F82C0006280FD0206EFC
:1026900090F82C0004280AD0206940B10020009056
:1026A00022695178107800231A46FEF7CFFC0020EB
:1026B0004BE78EB1206E90F8260010B16FF001004C
:1026C00043E76068007B40F04000616808730121C7
:1026D000206E80F8261009E06068007B20F0400042
:1026E000616808730021206E80F8261000202CE716
:1026F0006068406820F002006168486094F8540007
:1027000000F0C000451CE06D08B9A06D08B145F0AF
:10271000080545F0040561680D72A06D38B1206EA2
:1027200090F8260018B1A16D0878FEF749FA00214B
:10273000206E80F82610002007E722E0FFE760689F
:10274000406820F001006168486094F8540000F08F
:10275000C000451CE06D08B9A06D08B145F0080542
:1027600045F0020561680D72E06D30B1206E0079B0
:1027700018B1E16D0878FEF723FA0020216E087188
:10278000E3E66068406820F0030061684860A06D7F
:1027900038B1206E90F8260018B1A16D0878FEF7C8
:1027A0000FFAE06D30B1206E007918B1E16D087854
:1027B000FEF706FA94F8540000F0C000451CE06DE6
:1027C00008B9A06D08B145F0080545F00605616837
:1027D0000D720020216E08710021206E80F82610F5
:1027E0000020B2E600BF00BF09F0FF00152871D23B
:1027F000DFE800F0A20B0E18222D39A2A2A2A2A29D
:10280000A2A2A2A23C41999C9F004FF0010A96E02F
:102810002078C0F3400010B96FF0060095E64FF045
:10282000020A8CE02078C0F3800010B96FF0060037
:102830008BE64FF0030A82E02078C0F3C00010B1AD
:102840004FF0040A02E06FF006007EE677E02078A1
:10285000C0F3001008B1012702E06FF0060074E633
:102860004FF0050A6BE06FF006006EE6206E80F810
:102870002460002069E62078C0F3001058B346B900
:10288000606890F8240020F00200616881F824005C
:1028900047E02046FEF7CCFAC049B1FBF0F560688E
:1028A00090F8240020F038076800B04200D32EE0F2
:1028B000A800B04202D347F0080728E0E800B04281
:1028C00002D347F0100722E02801B04204D347F0BA
:1028D00018071CE030E021E06801B04202D347F065
:1028E000200714E0A801B04202D347F028070EE009
:1028F000E801B04202D347F0300708E02802B042B6
:1029000002D347F0380702E04FF0FF301DE6F8B27F
:1029100040F00200616881F8240002E04FF0FF30CF
:1029200013E6002011E64FF0FF300EE64FF0FF30C7
:102930000BE64FF0FF3008E66FF0030005E600BF3E
:10294000206E007918B9206E90F8260010B16FF053
:102950000100FAE509F4E06088B1B0F5A06F06D097
:10296000B0F5C06F05D0B0F5E06F0BD104E000BF4B
:102970000BE048F0010808E048F0020805E048F0E4
:10298000030802E06FF00800DFE500BF09F44050E3
:1029900030B1B0F5805F04D0B0F5005F07D103E03F
:1029A00008E048F0180805E048F0080802E06FF079
:1029B0000900CAE500BF09F4404018B1B0F5804FE6
:1029C00004D100E005E048F0040802E06FF00A00DE
:1029D000BBE500BFA06890B3A068007C20F0C00BEE
:1029E00009F4403048B1B0F5803F07D0B0F5003F62
:1029F0000FD0B0F5403F27D116E028E02078C0F393
:102A0000C01010B14BF0400B02E06FF00B009CE5E2
:102A10001DE02088C0F3002010B14BF0800B02E0D5
:102A20006FF00B0091E512E02078C0F3C01038B1D0
:102A30002088C0F3002018B14BF0C00B03E007E082
:102A40006FF00B0081E502E06FF00B007DE500BF49
:102A5000BAF1020F02D0BAF1030F0DD109F48020B0
:102A600010B16FF00C0070E509F40020B0F5002FF4
:102A700002D06FF00D0068E52146304600F050FEB0
:102A8000401C10B96FF007005FE5216E81F82CA0A3
:102A9000206E90F82C00062800D109E0206E90F8F6
:102AA0002D0000F0080010B194F8305000E000252F
:102AB00000BFE06840B10020EAB20090E3685978B6
:102AC00018780023FEF7C2FA206E90F82C00042834
:102AD00002D0062803D100E000BF00250AE0206EE6
:102AE00090F82D0000F0100010B194F8315000E083
:102AF000002500BF00BF206940B10020EAB200906D
:102B00002369597818780023FEF7A0FA6069D8B1D4
:102B1000206E90F82C00022804D0032805D0062847
:102B200006D100BF94F8325004E094F8325001E02E
:102B3000002500BF00BF0020EAB200906369597809
:102B400018780023FEF782FA2078C0F3001040B115
:102B5000606890F8240020F001003843616881F833
:102B60002400A06838B1A068007C20F0C00040EAD2
:102B70000B00A16808746068007B00F0C00040EAA8
:102B8000080061680873206E90F82D0040F0040082
:102B9000216E81F82D000020D7E4000000CA9A3B86
:102BA0002DE9F04106460C460025012E02D0022EEA
:102BB00034D134E0206EC168C1610020216E0871FB
:102BC000206E90F82C00022804D0206E90F82C0083
:102BD000032818D1206E90F827700021206E80F80D
:102BE0002710012F04D0022F05D0032F09D105E0B3
:102BF00045F0010506E045F0020503E045F0040557
:102C000000E000BF01E045F00205206E006820B141
:102C10001DB1206E01682846884701E000BF00BF53
:102C200000BFBDE8F08170B505460C46012D02D00D
:102C3000022D19D119E0206E016901620021206E78
:102C400080F82610206E90F82C0002280BD0206E01
:102C500090F82C00032806D0206E006818B1206E72
:102C600001680120884701E000BF00BF00BF70BDC0
:102C70000146086870470CB501468868002841D0B5
:102C8000086E90F82D0000F0040000283AD0886803
:102C9000027E0888C0F3003028B11309019863F35D
:102CA0000000019003E0019820F0010001900888E5
:102CB000C0F3803028B15309019863F341000190BB
:102CC00003E0019820F0020001900868C0F3004082
:102CD00028B19309019863F3C300019003E00198C0
:102CE00020F0080001900888C0F3C03028B1D30953
:102CF000019863F38200019014E0019820F0040031
:102D000001900FE0019820F001000190019820F05F
:102D100002000190019820F008000190019820F035
:102D2000040001900198009B60F300030093019858
:102D30004308009863F341000090019883080098CD
:102D400063F3820000900198C308009863F3C30006
:102D5000009001980309009863F31F1000900098F9
:102D60000CBD70B50446E06D28B1E16D0878FDF743
:102D70003FFF054601E0206EC569284670BD0CB5D1
:102D800001464868007D012222EA9012019862F310
:102D900000000190086E0279019862F341000190F1
:102DA000019820F004000190086E4279019862F3C6
:102DB000C3000190086E8279019862F304100190BB
:102DC000086EC279019862F345100190086E027A8C
:102DD000019862F3861001900198009A60F3000256
:102DE000009201984208009862F341000090019817
:102DF0008208009862F3820000900198C20800984F
:102E000062F3C300009001980209009862F3041075
:102E1000009001984209009862F3451000900198D3
:102E20008209009862F3861000900198C209009808
:102E300062F3DF10009000980CBD70B50446A06DE1
:102E400028B1A16D0878FDF7D3FE054601E0206E9C
:102E5000056A284670BD2DE9F041044600256068EA
:102E6000866806F00100002870D106F00E000228E6
:102E700053D110271FE0206E90F82C00022804D0B8
:102E8000206E90F82C0003280AD1206E90F82700BD
:102E9000022805D1206E90F824006168087005E0D2
:102EA000206E8169006A085C61680870206E006AA3
:102EB000401C216E0862381EA7F1010704D0206E65
:102EC0000169006A8142D6D1206E0169006A81429F
:102ED00023D16068406820F00200616848600021EA
:102EE000206E80F82610206E90F82C00022804D066
:102EF000206E90F82C0003280DD1206E90F827004A
:102F000001280AD1206E90F82D0000F0100008B9B9
:102F100045F0010501E045F0010506F00E00062828
:102F200003D1204600F0FAFA054306F00E0004280B
:102F300003D006F00E000C2878D1606D38B140281F
:102F400008D0802809D0C0280DD109E0AFE04FF0AB
:102F5000010808E04FF0030805E04FF0070802E021
:102F60004FF00D0800BF00BF55E0204600F0D6FA34
:102F70000543206E90F82C00022804D0206E90F8B3
:102F80002C00032807D1206E90F82700012802D1D9
:102F90006068007805E060680178206E4269C06969
:102FA0001154206EC069401C216EC861206EC0693A
:102FB000216EC96888422ED16068406820F0010007
:102FC000616848600020216E0871206E90F82C0026
:102FD000022804D0206E90F82C00032818D1206E0F
:102FE00090F827700021206E80F82710012F04D060
:102FF000022F05D0032F09D105E045F0010506E0B9
:1030000045F0020503E045F0040500E000BF01E0E3
:1030100045F0020509E06068007D00F0010020B184
:10302000B8F10000A8F101089FD100BF06F00E0022
:103030000C2811D1206E90F82C0002280CD0206EA4
:1030400090F82C00032807D0206EC069216EC96853
:10305000884201D045F04005A06840B306F00E005C
:1030600028BBA068077E2088C0F3003020B107F09D
:10307000010008B145F480652088C0F3803020B19C
:1030800007F0020008B145F400652068C0F3004075
:1030900020B107F0040008B145F400552088C0F3C2
:1030A000C03020B107F0080008B145F48055206E0B
:1030B000006820B11DB1206E016828468847BDE830
:1030C000F08138B505460C46206E90F82D0000F0D2
:1030D000010008B1002038BD206E05600020216E7F
:1030E00008710021206E4171206E8171206EC171C6
:1030F000206E0172206E80F82610206E80F8241059
:103100002088C0F3003048B10020009094F83320AC
:10311000A369597818780023FDF798FF2088C0F339
:10312000C02048B10020009094F83420E369597819
:1031300018780023FDF78AFF2088C0F3C03048B11B
:103140000020009094F83520236A597818780023DD
:10315000FDF77CFF2088C0F3803048B1002000904C
:1031600094F83620636A597818780023FDF76EFFCB
:103170002088C0F3403048B10020009094F83720F8
:10318000A36A597818780023FDF760FF2068C0F320
:10319000004048B10020009094F83820E36A597844
:1031A00018780023FDF752FFA06D08B9E06D08B153
:1031B000FDF736FD0120216E81F82D0000208AE701
:1031C000F8B506460C4626B1012E7DD0022E7CD1E4
:1031D0008DE094F95000002817DB00F01F02012158
:1031E0009140894A430942F8231000BF00BF00BF45
:1031F000BFF34F8F00BF00BF00BF00BF00BF00BFC5
:10320000BFF36F8F00BF00BF00BF00BF206C00681E
:10321000E16B0843216C0860206940B100200090F8
:1032200022695178107800231A46FDF70FFF80209D
:103230006168087301206168087000206168087186
:1032400061680873616848601020616881F828002F
:103250008020616881F830004FF47A7501E000BF8A
:103260006D1E002DFBD107206168087260688068C0
:103270006068007D60680078A06D38B1206E90F8BD
:10328000260018B1A16D0878FDF79AFCE06D30B109
:10329000206E007918B1E16D0878FDF791FC206C83
:1032A0000068E16B8843216C086094F9500000F0DD
:1032B000E5FB0020216E08710021206E4171206E17
:1032C0008171206EC17101E00EE097E0206E017205
:1032D000206E80F82610206E90F82D0020F002005D
:1032E000216E81F82D008CE06FF00300F8BD206E98
:1032F00090F82D0000F0010010B94FF0FF30F5E715
:10330000206E90F82D0000F0020008B10020EDE7DB
:10331000206C0068E16B0843216C0860E06C006879
:1033200044210A5D032191408843E16C08604421F7
:10333000095DA06C8840E16C09680843E16C086095
:10334000072061680872606890F8300020F0010082
:10335000616881F83000A06838B1A06890F84C002E
:1033600040F00200A16881F84C00002061684860CC
:1033700094F8540000F0C000401C40F00605E06DD9
:1033800008B9A06D08B145F0080561680D72A06824
:1033900028B1A068406840F00800A168486000209B
:1033A000216E08710021206E4171206E8171206EA6
:1033B000C171206E01720020216E81F82C00216EF7
:1033C00081F82D000021206E80F826100320216E48
:1033D00081F82D0094F9500000F050FB94F9500052
:1033E000002809DB00F01F020121914042099200F0
:1033F00002F1E022C2F8001100BF02E06FF003000A
:1034000074E700BF002071E780E100E02DE9FE4392
:1034100005460E46144605B11EB96FF00400BDE81E
:10342000FE83206E90F82D0000F0040010B94FF0DC
:10343000FF30F4E7206E0079012801D1C01EEEE7CD
:103440000120216E08714FF00068206EC6600021D7
:10345000206E8171206EC171206E4171206E0172EB
:10346000206E4561206EC161206E90F82C0002280C
:1034700004D0206E90F82C00032806D1206E90F81E
:103480002700012801D14FF00008E06D00B3E26D84
:1034900091785078FDF718FCE06D4068E16D49784F
:1034A0003E2202EA410141F45041491C48F00042E9
:1034B000CDE900210290E26D107833462A4661681A
:1034C000FDF704FB0746781C40B94FF0FF30A6E734
:1034D0006068406840F0010061684860206E90F8C4
:1034E0002C00022804D0206E90F82C00032813D161
:1034F000206E90F8270078B90221206E80F82710FE
:10350000216E01F124002246314600F03BF80746C7
:1035100017B14FF0FF3082E7002080E710B5014679
:1035200000204B681B7D03F01E0202F002037BB1FA
:1035300001240B6E5C7140F020000B6E93F82C3070
:10354000032B05D10B6E93F826300BB140F0100021
:1035500002F0040323B101240B6E1C7240F40070CE
:1035600002F010032BB101240B6E9C7140F080001F
:1035700007E002F0080323B101240B6EDC7140F474
:10358000807010BD2DE9FE4305460E46144605B178
:103590001EB96FF00400BDE8FE83206E90F82D0088
:1035A00000F0040010B94FF0FF30F4E7206E90F8FF
:1035B000260010B16FF00100EDE70121206E80F8C8
:1035C00026104FF08069206E90F82C00022804D05D
:1035D000206E90F82C0003281AD1206E90F8270056
:1035E00078B90121206E80F82710216E01F12500A5
:1035F00022463146FFF70AFF07464FB14FF0FF3032
:10360000C9E7206E90F82700022801D14FF0000989
:10361000206E8561206E06610021206E0162A06D22
:1036200008B3A26D91785078FDF74EFBA06D40680D
:10363000A16D49784FF4F86202EA811141F44841E2
:10364000491C49F00042CDE900210290A16D0878A3
:10365000334629466268FDF739FA0746781C002888
:103660005CD1401E97E76068007D00F0200018B133
:103670000021206E80F8281011E0206E026A501C94
:10368000216E0862206E8069805C61680870206E1F
:1036900090F82800401CC1B2206E80F82810206EDF
:1036A00090F82800102804D2206E016A0069814237
:1036B000E3D1206E016A0069814229D10021206E88
:1036C00080F826108846206E90F82C00022804D03E
:1036D000206E90F82C0003280DD1206E90F8270062
:1036E00001280AD1206E90F82D0000F0100020B9BA
:1036F0004FF0010801E04FF00108206E006830B182
:10370000B8F1000F0AD0206E01684046884705E0F6
:103710006068406840F002006168486000203AE755
:103720002DE9F04F87B080460C462046FDF780FB20
:10373000049000210903049841EA10510003424615
:103740000023CDE90001FCF7F9FD06464FF0FF30FC
:103750000290B6F54C3F4BD3350CB6EB054F0BD171
:1037600000BF4FF48030B0EB151F05D90020029048
:1037700081461FFA85FA40E0002736E0344830F8E9
:103780002700B6FBF0F00509B5F5803F00D32BE02C
:103790000020059024E0032D01D26D1C1DE02C4873
:1037A00030F8270068434FEA001B5E4503D9A6EBBB
:1037B0000B00039002E0ABEB06000390DDE9021082
:1037C000884208D203980290214800EB870090F8C5
:1037D00002901FFA85FA6D1C00BF0598401C0590E9
:1037E00005980228D7D300BF7F1C482FC6D304E01A
:1037F0004FF0FF3007B0BDE8F08F642102984843D6
:10380000B0FBF6F0032802D94FF0FF30F2E7606812
:10381000007B40F08000616808734FEA1A206168FD
:103820000871616881F800A06068007B20F080006A
:103830006168087309F0F00009F00F01084361683E
:1038400081F82800206EC0F830800020D2E7000008
:10385000846A00000246086E90F82D0000F0040013
:1038600010B94FF0FF307047886810B96FF003004F
:10387000F9E76AB90888C0F3C02030B18868007CD5
:1038800020F002008B68187402E06FF00300EAE792
:10389000012A0DD10888C0F3C02030B18868007CAF
:1038A00040F002008B68187402E06FF00300DAE762
:1038B000022A0DD10888C0F3403030B18868007CFE
:1038C00020F001008B68187402E06FF00300CAE773
:1038D000032A0DD10888C0F3403030B18868007CDD
:1038E00040F001008B68187402E06FF00300BAE743
:1038F0000020B8E72DE9F04180460E4617461C46E9
:10390000B8F1000F01D006B11FB96FF00400BDE897
:10391000F081206E90F82D0000F0040010B94FF0F7
:10392000FF30F4E7206E90F82C00022804D0206EBF
:1039300090F82C00032815D10321206E80F8271061
:10394000224639463046FFF761FD05460DB128464F
:10395000DDE7224639464046FFF714FE054625B10D
:103960002846D4E74FF0FF30D1E70020CFE738B545
:103970000446E06840B100200090E2685178107879
:1039800000231A46FDF762FB206940B10020009039
:1039900022695178107800231A46FDF757FB2088DA
:1039A000C0F3003040B100200090A2695178107837
:1039B00000231A46FDF74AFB2088C0F3C02040B11F
:1039C00000200090E2695178107800231A46FDF734
:1039D0003DFB2088C0F3C03040B100200090226A37
:1039E0005178107800231A46FDF730FB2088C0F389
:1039F000803040B100200090626A51781078002336
:103A00001A46FDF723FB2088C0F3403040B1002068
:103A10000090A26A5178107800231A46FDF716FB31
:103A20002068C0F3004040B100200090E26A517865
:103A3000107800231A46FDF709FBA06D08B9E06D68
:103A400008B1FDF763F90020216E81F82D0038BD23
:103A500008B502480068009008BD0000806A0000B8
:103A6000002807DB00F01F0201219140024A4309B0
:103A700042F823107047000080E200E0002807DBD6
:103A800000F01F0201219140024A430942F823102D
:103A90007047000080E200E0002807DB00F01F0212
:103AA00001219140024A430942F823107047000067
:103AB00080E200E010B5002A06DA22F00042D21DB2
:103AC00022F00703102203E0D21C22F003030C2291
:103AD00013B19C188C4201D9012010BD024401444D
:103AE0008360C0E90021C91AD018884202D810604A
:103AF0000246F9E70020106010BD30380A2801D2D4
:103B0000012070470020704705490978002905D039
:103B100000684FF6FF71DFF80CC000DF704700004F
:103B20005DC007201545000004490978002903D02D
:103B30000068DFF80CC000DF704700005DC00720A0
:103B40003D44000008480068C0010BD507480068E4
:103B5000C00707D0054880380068002802DA044909
:103B60000120087070470000FCED00E0800E00E0CE
:103B700080C007204FF06042D36F002BFCD0036B56
:103B8000D367D36F002BFCD0C07840EA0120A2F8A5
:103B90007C0070474FF06041CA6F002AFCD081F86A
:103BA0007C00704740F2F3101449096841F00601A7
:103BB000124AC43AC2F8C4100021114AD16040F23E
:103BC000E7319161411E91640E49096941F48061B8
:103BD0000C4A11610A49496941F00201084A5161E0
:103BE0001146096D41F0090111651146C96C41F496
:103BF000FC41D1640121516070470000C4C00F40F6
:103C00000080014000C0024070B50D46040003D0A2
:103C100012B92078012801D0802070BD204600F024
:103C200061FB28B12946204600F02AF8002070BD2B
:103C3000812070BD70B50C4600F0BEFE4FF0004113
:103C400008B1220C01D0084670BD058BC178A0B226
:103C500000F002F8284670BD0A460146074810B534
:103C600000EB820050F8040C002805D000F0DCFCCA
:103C7000BDE8104000F0C8BC10BD0000D417001013
:103C800010B500F0D1FCBDE8104000F0BDBC000054
:103C900008B500F081F8FFF785FFFDF7EBF8FDF7B9
:103CA00021F9FCF793FE1548FCF7A8FE0021144803
:103CB00000F0D2F8134908600021134800F0CCF856
:103CC0001249086012486421426912A0904700BF5F
:103CD0000F49C86A8047009000F001000028F7D122
:103CE00000F06CF801210748006800F09DF84FF0E3
:103CF000FF3000F045F8002008BD00008C6900008E
:103D0000DC50000008C00720EC5000000CC0072069
:103D1000C46C00000A0D2D2D2D2D2D2D2D2D2D2D9A
:103D20002D2D2D2D2D44656275742D2D2D2D2D2DB0
:103D30002D2D2D2D2D2D2D2D2D2D2D0A0D0000007D
:103D400010B50446012C10D0022C0FD10948007880
:103D500028B902210848006800F066F804E0022152
:103D60000648006800F060F801E000E000BF00BF16
:103D700010BD000007C0072008C007200CC00720A6
:103D8000EFF3058109B182207047DFF808C000DF3A
:103D9000704700001D4D0000EFF3058008B1822040
:103DA0007047EFF31480C00703D0DFF80CC000DFCA
:103DB000704700F0BDBF0000314D000088B0EFF348
:103DC000058010B1822008B07047EFF3148010F026
:103DD0000301134806D001291BD0022911D0032961
:103DE00019D113E008A981F309880078C0070BD026
:103DF0005FF0020080F31488BFF34F8FBFF36F8F23
:103E000009E00078C00706D10320F3E70078C00777
:103E100001D0FF20D7E7DFF80CC000DFD3E70000B8
:103E2000B4690000A14D0000EFF305820AB1FFF76D
:103E300001BFDFF808C000DF704700000D4E000032
:103E4000EFF305830BB182207047DFF808C000DF75
:103E500070470000314E0000EFF305820AB10020E8
:103E60007047EFF31482D20702D1044A52781AB194
:103E7000DFF80CC000DF704701F004B85CC0072019
:103E8000854E0000DFF80CC000DFDFF80CC000DF5B
:103E9000FEE70000F14E00000D4F0000012806D0A3
:103EA000022805D0032804D0042804D102E003E04E
:103EB00002E001E000E000BF00BF00BFFEE700BF7E
:103EC000FEE70000074801684FF0E0204161002153
:103ED0008161072101610448016841F07F4101606F
:103EE00040177047B069000020ED00E0704750E8CF
:103EF000001F31B10B6840E80032002AF7D10846B4
:103F00007047BFF32F8FFAE710B568B161B10B317D
:103F100021F00302016844680B1A1B1B934205D26F
:103F2000084609680029F5D1002010BD210007D0FE
:103F300021180368C1E90032016001F1080010BDD9
:103F40004260083010BD000070B50D46002812D048
:103F50004FF6FF71084C884204D222680146104691
:103F600000F090FB20684570044800F029F9BDE896
:103F7000704000F04BBC70BD64C0072088CC0720A7
:103F80000F4810B50D4942680E480B68006893420F
:103F900004D00A60CB88421E1A448A808A8880B284
:103FA00082420AD100200860054800F009F9014664
:103FB000BDE81040024800F089BB10BD78C0072062
:103FC00088CC072074C0072070B5194DE868002818
:103FD0002CD0A88A401EA882002621E0A06838B113
:103FE00061684160606810B1A16881606660A66028
:103FF0000F482146183800F069FBA08AA882607833
:10400000042804D10B49E08A09880844A0820120D1
:104010006070E068E860E06808B10561E66026610C
:10402000A88A002802D1EC68002CD7D170BD00000E
:10403000A0CC072074C0072070B504000FD00D4D30
:10404000A17801262868827891420CD900F05AFBA9
:10405000286846702046BDE8704000F0D7BB06488F
:1040600000F0AEF8F7E766702146BDE87040024800
:1040700000F02CBB64C0072088CC07200321FFF789
:1040800063BF000010B50446008B084320836278AC
:10409000618B062A18D0052A19D1084217D001EAE7
:1040A0000002628388432083204600F056FB0120F3
:1040B0006070628B0821204600F04BFB2146BDE872
:1040C0001040034800F002BB31EA0002EAD010BD04
:1040D00088CC07200246154810B500EB810050F847
:1040E000044C002C21D0208B104320836278618BFC
:1040F000062A17D0052A18D1084216D001EA000274
:10410000628388432083204600F027FB01206070F3
:10411000628B0821204600F01CFB2046BDE81040C1
:10412000FFF78ABF31EA0002EBD010BDD4170010B0
:1041300070B503460C480D460468208B42B133EA43
:10414000000101D0062109E098432083022070BDC0
:1041500010EA030101D06183F6E705216383284655
:10416000FFF7F2FE012070BD64C00720814202D338
:1041700042688A4201D80120704702680A60BFF392
:104180005F8F50E8003F0A689A42F6D140E800127B
:10419000002AF2D10020704768B161B100220839CD
:1041A00002E00246006830B18842FAD12AB10068C4
:1041B0001060002070470120704700214160F8E73F
:1041C0000146406842684A600B780022022B05D005
:1041D000012B03D0032B01D04260704743680BB121
:1041E000996042608260704770B5044600201546B1
:1041F000207001226270A17084F824106060A060B9
:10420000E06020612062A082E0822083608384F8E5
:104210002500E08C18B90548FFF769FEE0622946E1
:104220002046BDE8704000F01DB8000048010010B5
:1042300008B1082901D2012070470144091F00225A
:1042400001600A6042601046704700000348002188
:10425000016003490988C1807047000078C00720C9
:10426000A469000070B5C28C1C4D930802D12A8845
:10427000C2F38D03C26A02EB8302540700D5121FFA
:104280004FF0807442E9021400242646B2F1400245
:1042900042F82460641C0E2CFAD3C4691462826252
:1042A00001632968C90014D5112B12D94FF0FF31D1
:1042B000103B11EB53014FF0CC3305D042F8043CD6
:1042C00042F8083D491EF9D1C16A121F8A4200D93D
:1042D0001360C06A0249016070BD0000A06900005F
:1042E000A52E5AE2C1898089081A704701220270FE
:1042F00000224270827042600281428110398281C4
:104300008908C181704700002DE9F04104464068EA
:104310000E464FF0000804F10C05E8B36078012761
:1043200001283ED0022813D003285CD10846FFF7AD
:10433000DEFD050057D02046FFF742FF0446294620
:1043400000F004FA6770204600F007FA214621E0E9
:104350002046FFF735FF0646002100F0F7F92189D6
:10436000F06904EB81010861D5E85F0F401C81B260
:10437000C5E8501F0028F7D12089401C80B2208159
:10438000E189884201D1A4F808807770304600F0B6
:10439000E4F93146174800E00CE0BDE8F04100F0D8
:1043A00095B92046FFF70CFF04463246102100F075
:1043B000D0F9C7E7A089E189884216D2208904EBA9
:1043C00080000661D5E85F0F401C81B2C5E8501F30
:1043D0000028F7D12089401C80B22081E1898842E1
:1043E00001D1A4F80880BDE8F081BDE8F0410320C8
:1043F000FFF754BD88CC0720002814D0411C13D0EF
:104400000C4A4FF6FE7190420CD800EB4002C2EB12
:10441000C0120948036803EBC202521EB2FBF3F05C
:10442000884204D9084670474FF6FF70704780B243
:104430007047000000093D00C06900002DE9F0410F
:104440000446408820B1314DA1682A68914202D0CB
:10445000FF20BDE8F081401E0004000C608053D1B5
:104460002968086AA04209D1E068086208E0C268C9
:10447000A24202D1E268C26002E010460028F6D1F2
:1044800091F824000A6A06E053681BB19B788342C6
:1044900000D91846D268002AF6D18870DFF87080FB
:1044A0006168012611B32046FFF78AFE0746002106
:1044B00000F04CF9384600F050F96680A760386A81
:1044C000E0603C622968D8F804008A7880788242EB
:1044D00001D3384616E00E4800F0F8F839460C488B
:1044E00000F0F4F8286846707E700AE0D8F80410EE
:1044F0008A782968824207D9054800F0E7F82868D9
:1045000046700020FFF798FD0020A2E764C0072056
:1045100088CC072070B51C4D0E460446418828689B
:1045200061B1A268824210D1A1F57F40FF3803D06B
:10453000491C6180002070BDFF2070BDA060016A31
:10454000E160046201206080F4E776B191788078C0
:10455000814203D29070A06800F0DEF8606830B14C
:104560002046296800F0B2F808E0012070BD2868F4
:10457000606029680020486028688460092130460E
:10458000FFF7E2FCF1E7000064C0072070B51B48AC
:10459000012102685170006800F0B4F8184D6C7881
:1045A00018E000BF05EBC40148680278EAB1012AAF
:1045B00020D000F0FFF8E878641C844200D1002489
:1045C0000F48801CD0E84F1F491EC9B2C0E8421FE7
:1045D000002AF7D1A8780028E4D16C700948FFF7C9
:1045E000EFFDBDE8704000F011B9098989B2FFF70D
:1045F00049FDE0E78968FFF787FEDCE764C0072034
:104600005017001088CC07200548017811B101210E
:104610004170704703494FF08050086070470000B8
:104620006CC0072004ED00E0F0B4154DAB1CEE7833
:104630004FEA0507D3E84F2FB24202D1BFF32F8FC5
:1046400011E0521CD4B2C3E8424F002AF2D100BF9D
:10465000D7E84F2F541CB44200D10024E4B2C7E87D
:10466000434F002BF4D1EB78934205D905EBC202FE
:10467000C2E90101F0BC7047F0BC0220FFF70EBC9C
:1046800050170010104A10B5D368ABB113469B8A7F
:1046900003E08CB12246A48A2344D4688B42F8D329
:1046A000C460D0600261C46804B12061591A81827B
:1046B000908A401A908210BD0024C460D060C91A4C
:1046C00002619182848210BDA0CC072030B50278AF
:1046D0000023022A03D0012A01D0032A00D101239A
:1046E0008C7800E01046426812B19578A542F9D264
:1046F0004A6041601BB102B19160886030BD00200A
:10470000FBE7000003494A6842600022826048607B
:104710007047000088CC072010B5836804462BB989
:10472000607801280ED1084B03E09B6818780028B8
:10473000FBD0204600F026F82146BDE81040184680
:10474000FFF7C4BF10BD000088CC0720806A01625B
:104750007047806AC0E90812704710B501690029E6
:104760000ED0C268CA60C36800223BB18B8A848ABB
:1047700023448B82C3681961C26000E08A820261AF
:1047800010BD0000816839B142684A604168002963
:1047900001D0806888607047054906E04A68824217
:1047A00002D140684860704711460029F6D1704731
:1047B00088CC072010B5416881B1FFF701FD0446A0
:1047C000FFF7CBFF0120607001462046FFF7BEFFD8
:1047D0002146BDE810400348FFF778BF4188491CD7
:1047E000418010BD88CC072006480068D0E90A1037
:1047F000814203D300680449884202D00120FFF7B8
:104800004DBB704764C00720A52E5AE2074902221B
:1048100048604270064A1278002A05D006C98A42CA
:1048200002D0C078FFF7B6B97047000064C0072017
:1048300080C0072070B5FFF785F900200446204AA4
:10484000204902E042F82040401C0B889842F9D3EE
:104850001D48342201881D48FFF72CF91C480088A8
:1048600080B240F000421B4801681B48FFF722F964
:104870001A48082201881A480068FFF71BF9194DE9
:10488000FF20194AE870EC8400212846FFF7ACFCB1
:10489000164804210170446015480170C460046129
:1048A000848214481549056002206870124804701B
:1048B00044700978C170BDE87040FFF7C7BC0000C4
:1048C000D41700109C690000C869000000000010A7
:1048D000A0690000CC69000048010010F0690000E8
:1048E00030C0072054CC0720BF3E000088CC0720F2
:1048F000A0CC072064C0072050170010D469000026
:104900001B4810B5016841F47F01016000684FF059
:104910007F4101EA00201649C0431439B0FA80F003
:104920000968C0F10800C1F30221814200D3481C8C
:104930000F49091F0B686FF08072824063F3170202
:104940000A60FFF7BFFA0B49002808600EDB00F190
:10495000E021FF2281F8002400F01F020121914094
:104960004009800000F1E020C0F8001110BD0000F7
:1049700020ED00E070C007200C4810B5026801214E
:1049800051700068FFF7BEFEFFF7FAFA08480168A9
:10499000491C0160FFF718FB00F0D4FA0548FFF747
:1049A0000FFCBDE81040FFF731BF000064C00720D6
:1049B00074C0072088CC0720002805D0810702D1C9
:1049C0000178002900D000207047000030B50B4C62
:1049D0000023626805E095688D4204D8134612688A
:1049E000491B002AF7D10260816012B19568691AEB
:1049F00091600BB1186030BD606030BD5CC00720B5
:104A00002DE9F0411E46174680460D4611F0FF0F76
:104A100000D14D1C1848FFF76AFA041E16D0280A68
:104A2000E762E084E9B242462046E661FFF7DCFB3C
:104A300001251248124905E000EB850252F8042CCA
:104A400032B16D1C0A889542F6D90020BDE8F0818C
:104A5000002DFAD000EB850040F8044C0948E570C1
:104A6000007818B101212046FFF784F82046FFF7AF
:104A7000E3FA2846EAE7000000000010D41700100F
:104A80009C69000080C007202DE9F05F584DDFF8D9
:104A90005891DFF8588129684FF0010A002618B1B3
:104AA000CA78AB46824243D14E70FBF776FB296849
:104AB0008862FFF799FE2868046A1FE06068C0B149
:104AC0002046FFF77DFB07460021FFF73FFE3846F3
:104AD000FFF743FE87F801A039464648FFF7F6FD89
:104AE000E168A4F802A0A760386AE0603C620C4666
:104AF00004E0E0686680A660E6600446002CDDD134
:104B00002868C27808EB820141F8046CC16A3A480F
:104B1000FFF72CFB2868C66299F8001011B100213C
:104B2000FFF728F835482968FFF720FB2E6056E08C
:104B30003349098888420CD808EB800858F8045C8F
:104B40003DB12846FFF71EFE2846FFF706FE2C6AF9
:104B500022E0FF20BDE8F09F6068C0B12046FFF76B
:104B60002FFB07460021FFF7F1FD3846FFF7F5FD63
:104B700087F801A039461F48FFF7A8FDE168A4F8AF
:104B800002A0A760386AE0603C620C4604E0E0687E
:104B90006680A660E6600446002CDDD148F8046C0F
:104BA0001548E96AFFF7E2FAEE6299F8000018B1D9
:104BB00000212846FEF7DEFF29461048FFF7D6FA07
:104BC0000C48DBF8001040688B7882789A4209D94B
:104BD00081F801A00748DBF80010FFF777FD0020FF
:104BE000FFF72AFA0020B5E780C00720D41700108D
:104BF00064C0072088CC0720480100100000001086
:104C00009C69000070B51A4D80B11A4A1288904212
:104C10001FD8194A02EB800050F8044CCCB1A170A7
:104C200084F824102868A04205D014E02868817018
:104C3000286880F82410114840688078884215D987
:104C40000E482968FFF742FD2968012048700020BE
:104C50000AE0FF2070BD2046FFF75EFD6078012866
:104C600004D10648FFF7ACFAFFF7E6F9002070BD63
:104C700064C007209C690000D417001088CC07206E
:104C800002480068002800D0C078704764C0072040
:104C900001B582B00848012201A9C36902A898475A
:104CA00000BF0549886A8047009000F00100002895
:104CB000F7D19DF804000EBD546A00001CB5A52074
:104CC0008DF8040025208DF805000E480F2142695B
:104CD0000DA0904700BF0B49C86A8047009000F0C4
:104CE00001000028F7D10C480221426901A8904731
:104CF00000BF0949C86A8047009000F00100002801
:104D0000F7D11CBDC46C000053544F502064752073
:104D10004C696461720000008C6C000010B50028C2
:104D200004D0FFF769FBFFF7A9F9402010BD000090
:104D300010B5134C207860B91248400705D11248CD
:104D400001681048FFF774FA08B1852010BDFFF71D
:104D500071FD0E49FF2009688870207858B900213C
:104D60000B4800F041F80B49086000210A4800F0A8
:104D700089F80A490860012020700020607010BD89
:104D80005CC0072018140010D069000064C0072020
:104D9000E869000028C00720D869000024C0072067
:104DA00070B50F4D687808B1002070BD0D4C2068BB
:104DB00090F824100020FFF725FF2068C178FF2914
:104DC00003D1816A203181F30988616811B960607B
:104DD00000202060FFF794FD01206870E4E70000E8
:104DE0005CC0072064C0072010B5040005D021680E
:104DF00019B1606808B102780AB1002010BD8900BD
:104E0000103189B2FFF772FA606810BD70B50C46B8
:104E1000FFF7D2FD4FF0004108B1220C01D0084647
:104E200070BD058BC178A0B2FFF754F9284670BD5C
:104E300070B504460D46000C01D086201EE00846E1
:104E40002CB1FFF7D9FA0146A0B2012205E0FFF725
:104E5000D3FA014600224FF6FF70FFF769F90228E6
:104E600002D04DB1402008E008200CB1214605E0F9
:104E700003490968498B01E000200021324670BDDA
:104E800064C0072070B50E46040029D0206838B3EE
:104E9000606810F1030F23DB032821DCE16829B1EE
:104EA0001048FFF731F805001AD000E000256068CF
:104EB000E168001D40EA012133462A462068FFF7D9
:104EC0009FFD40B1084901EB8000084950F8040CEF
:104ED000826A516370BD1DB129460248FFF75CF933
:104EE000002070BD18140010D4170010853E00007B
:104EF00010B5FFF7C5FE002804D0034901EB800080
:104F000050F8040C10BD0000D417001010B5FFF7C6
:104F100053FD18B1C18C19B1C46A02E0802010BDE4
:104F20000024C078FFF7B0FDFF2806D01CB1214651
:104F30000348FFF731F9002010BD812010BD0000AB
:104F4000181400102DE9F041134E7468002C1CD089
:104F5000A068124F401E4FF00108A06012E02546E5
:104F600024687460002229463868FEF74DFE10B1AF
:104F70000420FEF793FF6879012808D085F80480A3
:104F8000002C02D0A0680028E9D0BDE8F0812846B6
:104F9000E968FFF71BFDF3E75CC0072028C0072086
:104FA0001CB5044610480121426A13209047702026
:104FB0008DF8040000208DF805008DF806400A48A1
:104FC0000321426901A8904700BF0749886A8047CA
:104FD000009000F001000028F7D103480021426A48
:104FE000132090471CBD0000546A00001CB5044605
:104FF00020128DF80400E0B28DF805000748022168
:10500000426901A8904700BF0449886A8047009020
:1050100000F001000028F7D11CBD0000546A000018
:1050200010B504480121426A132090477220FFF70F
:105030002FFE10BD546A000010B503480021426ADB
:105040001320904710BD0000546A00007CB5044650
:105050000D4670208DF8040020128DF80500E0B296
:105060008DF806001C480121426A132090471A4817
:105070000321426901A8904700BF1749886A804709
:10508000009000F001000028F7D113480021426A87
:105090001320904772208DF8040028128DF8050027
:1050A000E8B28DF806000C480121426A13209047AF
:1050B00009480321426901A8904700BF0649886A50
:1050C0008047009000F001000028F7D1024800213D
:1050D000426A132090477CBD546A0000BD21000045
:1050E0000000000001000000000000004D0F000063
:1050F00000000000010000000000000000000000AF
:105100000000000004040404040004000A0A0A0069
:10511000000000000A0A1F0A1F0A0A00041E050EEA
:10512000140F0400031308040219180002050502F5
:10513000150916000C0C040200000000080402020D
:105140000204080002040808080402000004150E06
:105150000E1504000004041F0404000000000000F9
:105160000C0C04020000001F000000000000000002
:10517000000C0C0000100804020100000E111315B1
:1051800019110E000406040404040E000E11100E82
:1051900001011F001F10080C10110E00080C0A0955
:1051A0001F0808001F010F1010110E001C02010F34
:1051B00011110E001F101008040201000E11110E33
:1051C00011110E000E11111E10080700000004003E
:1051D000040000000000040004040200100804029F
:1051E0000408100000001F001F0000000204081047
:1051F000080402000E11100C040004000E11151D0D
:105200000D011E00040A11111F1111000F11110FC1
:1052100011110F000E11010101110E000F111111DA
:1052200011110F001F01010F01011F001F01010FCC
:10523000010101001E11010119111E001111111FA0
:10524000111111000E04040404040E001C080808C7
:1052500008090600110905030509110001010101F2
:1052600001011F00111B1515151111001111131546
:10527000191111000E11111111110E000F11110F42
:10528000010101000E111111150916000F11110F66
:10529000050911000E11010E10110E001F15040456
:1052A000040404001111111111110E00111111113A
:1052B000110A04001111111515150A0011110A0423
:1052C0000A11110011110A04040404001F10080E31
:1052D00002011F001E02020202021E00000102045F
:1052E000081000001E10101010101E00040A1100FB
:1052F000000000000000000000001F000606040877
:1053000000000000000006080E091E0001010D1338
:1053100011130D0000000E1101110E0010101619CE
:105320001119160000000E111F010E000814040EC2
:105330000404040000000E191916100E01010D13CB
:10534000111111000400060404040E0008000808EE
:105350000809060001010905030509000604040403
:1053600004040E0000000B151515150000000D13A8
:105370001111110000000E1111110E0000000D138B
:10538000130D0101000016191916101000000D135D
:105390000101010000001E010E100F0004041F0493
:1053A0000414080000001111111916000000111159
:1053B000110A04000000111115150A000000110A5D
:1053C000040A1100000011111E10110E00001F0828
:1053D00004021F000804040204040800040404007A
:1053E0000404040002040408040402000215080076
:1053F00000000000000000000000000000000C128F
:10540000120C000000000C1E1E0C000000001E12FA
:10541000121E000000001E1E1E1E000000000C0CCC
:10542000121E000000000C0C1E1E000000001E12C8
:105430000C0C000000001E1E0C0C000000001816D2
:10544000161800000000181E1E1800000000061AA2
:105450001A0600000000061E1E06000000000C12C6
:10546000120C000000000C1E1E0C000000001E129A
:10547000121E000000001E1E1E1E00000000000084
:10548000000000000000000000000000000000001C
:10549000000000000000000000000000000000000C
:1054A000000000000000000000000000000080017B
:1054B00080018001800180018001800180018001E4
:1054C00080018001800180010000000080018001D6
:1054D00000000000000000000000000000000000CC
:1054E000CC00CC00CC00CC00CC00CC0000000000F4
:1054F00000000000000000000000000000000000AC
:10550000000000000000000000000000000000009B
:105510000000000000000000600C600C600C300611
:105520003006FE1FFE1F300638071803FE1FFE1F41
:10553000180318038C018C018C010000000080000E
:10554000E003F80F9C0E8C1C8C188C009800F8015E
:10555000E007800E801C8C188C189C18B80CF00F7B
:10556000E003800080000000000000000000000058
:1055700000000E181B0C110C11061106110311036B
:105580009B018E01C038C06C60446044304430449C
:105590001844186C0C380000000000000000E00106
:1055A000F0033807180618063003F001F000F80081
:1055B0009C310E33061E061C061C063FFC73F021B0
:1055C00000000000000000000000000000000000DB
:1055D0000C000C000C000C000C000C000000000083
:1055E00000000000000000000000000000000000BB
:1055F00000000000000000000000000000000002A9
:1056000000038001C000C000600060003000300076
:1056100030003000300030003000300060006000AA
:10562000C000C00080010003000200000000200054
:105630006000C00080018001000300030006000636
:105640000006000600060006000600060003000330
:1056500080018001C0006000200000000000000008
:105660000000000000000000C000C000D806F807DD
:10567000E0013003380700000000000000000000D7
:10568000000000000000000000000000000000001A
:105690000000000000000000800180018001800106
:1056A0008001FC3FFC3F800180018001800180017E
:1056B00000000000000000000000000000000000EA
:1056C00000000000000000000000000000000000DA
:1056D0000000000000000000000000000000800149
:1056E00080010001000180000000000000000000B7
:1056F00000000000000000000000000000000000AA
:1057000000000000E007E0070000000000000000CB
:105710000000000000000000000000000000000089
:105720000000000000000000000000000000000079
:105730000000000000000000000000000000C000A9
:10574000C000000000000000000000000000000C8D
:10575000000C00060006000600030003000380039F
:10576000800180018001C000C000C00060006000B6
:105770000000000000000000000000000000E00346
:10578000F007380E180C0C180C180C180C180C1804
:105790000C180C180C180C18180C380EF007E00335
:1057A00000000000000000000000000000000001F8
:1057B0008001C001F0019801880180018001800111
:1057C00080018001800180018001800180018001D1
:1057D0000000000000000000000000000000E003E6
:1057E000F80F180C0C180C1800180018000C000604
:1057F00000038001C000600030001800FC1FFC1F87
:105800000000000000000000000000000000E001B7
:10581000F807180E0C0C0C0C000C0006C003C00797
:10582000000C001800180C180C18180CF807E003EE
:105830000000000000000000000000000000000C5C
:10584000000E000F000F800DC00C600C600C300CBF
:10585000180C0C0CFC3FFC3F000C000C000C000C66
:105860000000000000000000000000000000F80F31
:10587000F80F180018000C00EC03FC071C0E001CAD
:105880000018001800180C181C0C180EF807E0037C
:105890000000000000000000000000000000C00741
:1058A000F00F381C181818000C00CC03EC0F3C0E3D
:1058B0001C1C0C180C180C18181C380EF007E003F0
:1058C0000000000000000000000000000000FC1FBD
:1058D000FC1F000C00060006000380038001C001CD
:1058E000C000E00060006000700030003000300058
:1058F0000000000000000000000000000000E003C5
:10590000F007380E180C180C180C3806F007F007C2
:10591000180C0C180C180C180C18380CF80FE003A5
:105920000000000000000000000000000000E00394
:10593000F007380E1C0C0C180C180C181C1C381E08
:10594000F81BE0190018000C000C1C0EF807F00101
:105950000000000000000000000000000000000047
:105960000000000000000000800180010000000035
:105970000000000000000000000000008001800125
:105980000000000000000000000000000000000017
:105990000000000000000000800180010000000005
:1059A00000000000000000000000000080018001F5
:1059B0000001000180000000000000000000000065
:1059C0000000000000000000000000000010001CAB
:1059D000800FE003F8001800F800E003800F001CBF
:1059E00000100000000000000000000000000000A7
:1059F000000000000000000000000000F81F000090
:105A000000000000F81F000000000000000000007F
:105A10000000000000000000000000000000000086
:105A20000000000000000000000000000800380036
:105A3000F001C007001F0018001FC007F001380068
:105A40000800000000000000000000000000E0036B
:105A5000F80F180C0C180C180018000C00060003A6
:105A60008001C000C000C00000000000C000C000F5
:105A70000000000000000000000000000000000026
:105A8000E00718180420C229224A11440944094495
:105A9000094409221113E20C024004201818E007FF
:105AA0000000000000000000000000000000800373
:105AB0008003C006C006C006600C600C30183018A9
:105AC0003018F83FF83F1C700C600C6006C006C030
:105AD0000000000000000000000000000000FC03C7
