:020000040000FA
:10000000C0D9072001030000090300000B03000012
:100010000D0300000F0300001103000000000000AA
:1000200000000000000000000000000015020000B9
:1000300015030000000000008D020000C90200004E
:100040001B0300001B0300001B0300001B03000038
:100050001B030000C9360000D93600001B03000056
:100060001B0300001B0300001B0300001B03000018
:100070001B0300001B0300001B030000D52600002B
:100080001B0300001B0300001B0300001B030000F8
:100090001B0300001B0300001B0300001B030000E8
:1000A0001B0300001B030000011600001B030000DF
:1000B0001B0300001B0300001B0300001B030000C8
:1000C0001B0300001B0300001B03000000F002F8EC
:1000D00000F04AF80AA090E8000C82448344AAF198
:1000E0000107DA4501D100F03FF8AFF2090EBAE896
:1000F0000F0013F0010F18BFFB1A43F0010318475C
:10010000F498000024990000103A24BF78C878C100
:10011000FAD8520724BF30C830C144BF04680C600D
:10012000704700000023002400250026103A28BF55
:1001300078C1FBD8520728BF30C148BF0B60704759
:10014000662907F0F184642900F0AC810020704733
:100150001FB500F060FD04000020002106F0D0FF74
:10016000E0601FBD10B510BD00F056FE1146FFF750
:10017000EFFF0FB400F00CF80FBC05F067FC00F0C7
:10018000B1F803B4FFF7EEFF03BC00F03FFE000040
:1001900004B005F0E3FC0448002105F03FFD05F044
:1001A000EFFC00F09FF800003495000080F3098810
:1001B0007047EFF309807047684680F30988044868
:1001C0000078C00714BF0220032080F31488704712
:1001D000F4940000DFF818C0EFF305831B0618BF86
:1001E0006047EFF31483DB0708BF604700DF704709
:1001F000D15D0000DFF818C0EFF305831B0618BFC0
:100200006047EFF31483DB0708BF604700DF7047E8
:100210004D600000EFF30980816911F8021CF1B90B
:1002200090E80F10E047EFF3098C8CE80700144BBF
:1002300093E8060091420FD039B12CE9F00FC1F8D4
:1002400028C00CB406F040FA0CBC1A60D2F828C0E2
:10025000BCE8F00F8CF309886FF0020E704710B500
:10026000084A1268914209D8074C54F8214090E896
:100270000F10A047EFF3098C8CE80F0010BD0000B1
:100280006CC00720DC150000DC15000006F0EEF85D
:100290000C4B93E80600914210D0EFF3098C2CE947
:1002A000F00FC1F828C00CB406F00EFA0CBC1A60AE
:1002B000D2F828C0BCE8F00F8CF309886FF0020E6A
:1002C000704700006CC0072006F0C6FAE0E70000A7
:1002D00005F0EEFC06F0C0FADAE7000000487047CF
:1002E00060D7072010B50446AFF300802046BDE874
:1002F0001040FFF746BF704770477047FFFFFFFF92
:100300000948804709480047FEE7FEE7FEE7FEE7A9
:10031000FEE7FEE7FEE7FEE7FEE7FEE704480549E5
:10032000034A054B7047000089350000CD000000EE
:10033000C0D70720C0D90720C0D7072053EA020C36
:1003400000F069802DE9F04B4FF00006002B1FBF35
:10035000B3FA83F503FA05F424FA05F65E4012BFFA
:100360001643B2FA82F502FA05F4C5F120051EBF64
:1003700022FA05FC44EA0C04203556EA044C4FEA04
:10038000144418BF641C4FF000084FF0000990425D
:1003900071EB030C39D3002919BFB1FA81F701FAC7
:1003A00007F6B0FA80F700FA07F6C7F120071EBF7C
:1003B00020FA07FC46EA0C062037B6FBF4FCA7EB54
:1003C0000507103F07F01F0BCBF120060CFA0BFBC3
:1003D0002CFA06F644BFB3460026202FA4BF5E4683
:1003E0004FF0000B5BEA060C08BF4FF0010B19EB56
:1003F0000B09ABFB027C48EB0608C01B06FB02CCDA
:100400000BFB03CC71EB0C01C1E70B4602464146E6
:100410004846BDE8F08B13B54FF000004FF00001E7
:10042000AFF30080BDE81C40704700000FB41CB55E
:10043000074B06AA7B4469460090059800F0D3FB61
:100440000020694600F0E2FB1CBC5DF814FB0000D4
:10045000D507000070B5044685690068C10601D55E
:10046000302600E02026C00707D070BDD4E9012166
:1004700030469047206A401C20626D1EF6D570BD44
:1004800070B5044685690078C00707D170BDD4E90E
:10049000012120209047206A401C20626D1EF6D565
:1004A00070BD00002DE9F041064600241068752952
:1004B000314616A510D0AFF30080002802DA404282
:1004C00013A507E031688A0701D512A502E04907A4
:1004D00004D511A5012401E0AFF3008000210A2218
:1004E00006F1240709E0B0FBF2FCB0FBF2F302FBDB
:1004F0001C00303078541846491C0028F3D123469C
:100500002A463046BDE8F04100F001B90000000085
:100510002D0000002B000000200000002DE9F04716
:100520004FF0000A89460446C0F820A02046E16842
:100530008847002876D0252806D0D4E901219047A5
:10054000206A401C2062F1E7E168204600258847C8
:10055000C4F81CA006460027C4F818A02A2E09D00B
:10056000304605F0C6F838B304EB8708303EC8F8CB
:10057000186019E059F8041B204604EB87029161CA
:10058000E1688847012F064618D1E069002820DA83
:1005900025F020051DE0D8F8180000EB800006EBE0
:1005A00040003038C8F818002046E1688847064601
:1005B00005F09FF80028EED1012F0AD02E2E08D189
:1005C0002046E16888477F1C0646022F45F020053B
:1005D000C4DBA069002803DA404245F00105A061B0
:1005E000E80701D025F01005B6B1A6F141001928A1
:1005F00002D8203645F400654A463146204625603B
:100600004D46FFF79DFD58B1012806D0ED1D25F0A0
:10061000070000F1080989E704E005F1040985E70E
:1006200030468AE7206ABDE8F0874FF0000200B547
:10063000134694469646203922BFA0E80C50A0E805
:100640000C50B1F12001BFF4F7AF090728BFA0E8B3
:100650000C5048BF0CC05DF804EB890028BF40F87F
:10066000042B08BF704748BF20F8022B11F0804FC1
:1006700018BF00F8012B70474FF0013C50F8042BD5
:1006800051F8043B9A4221D1A2EB0C03934313EAA5
:10069000CC1317D150F8042B51F8043B9A4215D1D2
:1006A000A2EB0C03934313EACC130BD150F8042BA9
:1006B00051F8043B9A4209D1A2EB0C03934313EA8D
:1006C000CC13DBD04FF00000704700BFD01A01BA46
:1006D000B1FA81F101F0180122FA01F0CB40C1F129
:1006E0002001DBB2C0B2C01A2CFA01F3D11A914337
:1006F00011EAC311E6D1704710B500F091FA006815
:1007000010BD10B5044600F08BFA046010BD2DE951
:10071000F0470D4699469246044600F124080168C8
:10072000880604D5E06921F01001216000E0012075
:10073000A84201DD471B00E00027A1697A1902EBFE
:100740000900081AA0612078C00602D42046FFF7ED
:1007500081FE002608E0D4E901211AF8060090473E
:10076000206A401C761C20624E45F4DB2078C006CF
:100770000AD52046FFF76EFE06E0D4E901213020BD
:100780009047206A401C2062381EA7F10107F4DC64
:1007900007E0D4E9012118F805009047206A401CC1
:1007A0002062281EA5F10105F3DC2046FFF768FE54
:1007B0002078000602D50220BDE8F0870120FBE783
:1007C00070472DE9FF4F0C461E464FF0FF378BB0A8
:1007D000D2E90001DDF860800A908A46C1F30A552B
:1007E00005B93D46002108464FF00000BAF1000F60
:1007F00000F4400005DA00EB80004FF4400101EA0C
:1008000050004FEA9059B9F1010F00DDB9460A983E
:1008100050EA4A000ED044F61050A5F2FF35454389
:100820002F14B8F1000F1ED07542291E1EDDC9F12C
:1008300000021CE0B8F1010F4FF0000001D03021A0
:1008400003E0F24305E02154401CB042FBDB30469C
:100850000022002121540B99C1F80880C1E9002031
:100860000FB0BDE8F08FBD1B6D1CDEE74A4600DA15
:10087000694206A800F05CFA06AB93E8070003ABF8
:1008800083E8070050460A9900F0ECFA8DE807006B
:10089000A0F500501F3800900398002D09DD42F2AA
:1008A0001F014A46084403A90390684600F04BFD27
:1008B00008E0A0F500504A461F3803A90390684697
:1008C00000F055FD8DE807000004000C03D04FF048
:1008D000FF30410800E01046B8F1000F03D00022BD
:1008E000009215461EE0751E05D400F09BF93032CB
:1008F00062556D1EF9D5B3460122084302D000228D
:100900007F1C04E02078302801D100227F1E002ABD
:10091000099786D01DE0112D07DA00F083F93032F7
:1009200062556D1C50EA0102F5D1084302D00098CF
:10093000C8B10EE00021681E05E0235C625C6354D0
:100940002254401E491C8142F7DBAB46A81B401EC7
:100950000990002004F80B000B98099AC0F8088051
:10096000C0E9002B7CE711264FF0000859E72DE97C
:10097000F04F88460446D21D22F0070191B0D1E91C
:100980000001CDE90A0104F01DFB02460B98C00FDF
:1009900001D02D2007E02068810701D52B2002E03F
:1009A000202101EAC000032A099001D0072A05DBB3
:1009B00003464146204600F07BF90BE12078800693
:1009C00001D5E06900E00620B8F1650F814606D048
:1009D000B8F1660F18D0B8F1670F70D131E0002080
:1009E000B9F1110F009001DB112301E009F10103BE
:1009F0000AAA01A90CA8FFF7E4FEDDE90C700026A5
:100A000009F10105834647E001204B4600904FF075
:100A100000470AAA01A90CA8FFF7D3FEDDE90DB033
:100A20000C995D46002610B909F101000D18B9EBCB
:100A3000050003D4C0F1FF3609F10105A5EB09005B
:100A40002BE0B9F1010F01DA4FF001090020B9F1F3
:100A5000110F0090484601DD112300E003460AAA69
:100A600001A90CA8FFF7ADFEDDE90C704D4600268C
:100A70008346207800070AD4AB4500DA5D4601A81A
:100A8000012D04DD411911F8011C302907D04F4513
:100A900002DA17F1040F04DA012082460FE06D1E1E
:100AA000EEE7002F02DCED1B3E4403E0781CA84279
:100AB00000DD7D1CB81B00F1010A4FF000472078D3
:100AC000000703D4AA4501DB4FF0FF3A0021B7F13C
:100AD000004F0DF143088DF8431024D002202B2342
:100AE000002F01DA7F422D230A21021EA0F101000E
:100AF00000DC5FB197FBF1FC97FBF1F201FB1C7C82
:100B000017460CF1300C08F801CDEEE7A8F1010012
:100B100003702188090501D5452100E06521A0F178
:100B2000010800F8011C09980FA9A1EB0807FF1D97
:100B300000B10120411901EBEA70A1693844081A9B
:100B4000401EA0612078C00602D42046FFF782FC38
:100B5000099828B1D4E901219047206A401C2062FD
:100B60002078C00622D52046FFF774FC1EE0002E38
:100B700004DBB34502DD01A8805D00E03020D4E94C
:100B800001219047206A401C2062761CAAF10100D6
:100B90005FEA000A0AD100F03EF8C0680168405CD4
:100BA000D4E901219047206A401C2062281EA5F14B
:100BB0000105DCDC07E0D4E9012118F8010B9047BE
:100BC000206A401C2062381EA7F10107F3DC204692
:100BD000FFF756FC032011B043E6000001694A1CF0
:100BE00002610878704700B58FB0CDE9013100216E
:100BF000059105497944CDE9031011466846FFF790
:100C00008DFC0FB000BD0000E5FFFFFF0A6802F891
:100C1000010B0A60704710B5FFF760FB203010BD74
:100C200004F02EBD30B5B0F10A024FEA900E71F11A
:100C300000034EEA817EB0EB0E0061EB91014FEABA
:100C4000101E4EEA017E10EB0E0041EB11114FEA2F
:100C5000102E4EEA016E10EB0E0041EB11214FEA0F
:100C6000104E4EEA014E10EB0E0041EB11414018C0
:100C700041F100014FEAD00040EA41704FEAD10152
:100C800010EB80054FEA810444EA907444EB0104C0
:100C90006D1944EB0404521BA3414FF0000348BFFD
:100CA0000A3200D530BD401C41F1000130BD0000CA
:100CB0002DE9F0411F46044603260168072A01F486
:100CC000006004DB08B116A505E016A503E008B135
:100CD00015A500E015A521F010002060A069C01E38
:100CE000A0610FB1401EA0612046FFF7B3FB4FB1DA
:100CF000D4E9012138469047206A401C2062C01C7C
:100D0000206206E0206AFAE7D4E9012115F8010B18
:100D10009047761EF8D22046FFF7B2FBBDE8F0817F
:100D20004E414E006E616E00494E4600696E66008F
:100D30002DE9F047814616468AB0334878440DC8FD
:100D40008DE80D0030487844801C03AC0DC884E861
:100D50000D0041F69B300844372190FBF1F290FBE7
:100D6000F1F5A5F1800501FB12041B3C02D564429C
:100D7000012000E00020DFF890A080460027FA4420
:100D8000AAF1BE0A0DE0E00709D03246684607EB3B
:100D900047010AEB810100F0EAFA8DE807006410D0
:100DA0007F1C002CEFD1184F7F44AC3F18E0E807C0
:100DB00014D007EB04100DF1180A90E80E008AE831
:100DC0000E00C068F04201D198190890324606A979
:100DD00003A800F0CCFA03AB83E807006D10641C95
:100DE000002DE4D132466946B8F1000F03A802D0C5
:100DF00000F0A9FA01E000F0BAFAC9E90001C9F867
:100E000008200AB0BDE8F0879C8C0000014918203A
:100E1000ABBEFEE7260002007546FFF75FFAAE465E
:100E200005006946534620F00700854618B020B5F6
:100E3000FFF774FABDE820404FF000064FF00007BE
:100E40004FF000084FF0000B21F00701AC46ACE872
:100E5000C009ACE8C009ACE8C009ACE8C0098D46DF
:100E6000704770475FEA400C08BF91F0000F4FEAEF
:100E70008C234FEAC12243EA51514FEA1C5018BF5C
:100E800000F5F0404FEA300018BF41F000415FEA42
:100E90006C5C00F02980BCF1FF3F08BF40F080404F
:100EA0007047130C06BF12044FF0100C4FF0000CEB
:100EB000130E04BF12020CF1080C130F04BF120131
:100EC0000CF1040C930F04BF92000CF1020CD30F31
:100ED00004BF52000CF1010C11464FF00002A0F1CA
:100EE0001F00A0EB0C00704711F0004F08BF7047C7
:100EF00031F000413FF4D5AF0B0C06BF09044FF0B1
:100F0000100C4FF0000C0B0E04BF09020CF1080C82
:100F10000B0F04BF09010CF1040C8B0F04BF8900F7
:100F20000CF1020CCB0F04BF49000CF1010CCCF109
:100F30002003A0EB0C0022FA03F302FA0CF241EAC0
:100F4000030100F10100704720F07F4C80EA0300AC
:100F500023F07F47ACEB070303F57C5300F0004020
:100F600003F1FF032DE980494FEA154B09B44FEA1D
:100F7000144325EA0B4E24EA03480FF2042606EB3D
:100F8000132749083E785FEA320203FB0667C7F57C
:100F9000000707FB06F64FEA54374FEAD64606F13C
:100FA000020607FB066CCCF1005C4FEA1C472CEAFA
:100FB000074C07FB06F40CFB06F504EB15464FEA5D
:100FC000961634BF00204FF000404FEAD13706FBA1
:100FD00007FC4FEA1C4C0CFB0BF7D21B03FB0CF776
:100FE00061EB07010CFB0EF7B0EB074072EB174209
:100FF0000CFB08F734BFA2EB0742B2EB074261EBF0
:1010000017414FEA0C444FEA910706FB07FC4FEAF1
:101010001C4C0CFB0BF7B0EBC74072EB573203FBD9
:101020000CF734BFA2EBC742B2EBC74261EB5731BA
:101030000CFB0EF7B0EBC70072EB57720CFB08F716
:1010400034BFA2EBC702B2EBC70261EB5771039F3B
:101050004FEA816141EA921104EBCC044FEAD137A7
:101060004FEA826206FB07FC42EA90124FEA806078
:101070004FEA1C4C0CFB0BF7D21B03FB0CF761EB8C
:1010800007010CFB0EF7B0EB074072EB17420CFBAD
:1010900008F734BFA2EB0742B2EB074261EB1741FE
:1010A0004FEA8C554FEA910704EB9C2406FB07FCA2
:1010B0004FEA1C4C0CFB0BF7B0EBC74072EB5732FE
:1010C00003FB0CF734BFA2EBC742B2EBC74261EBA4
:1010D00057310CFB0EF7B0EBC70072EB57720CFBED
:1010E00008F734BFA2EBC702B2EBC70261EB57713E
:1010F00015EB4C254FEA816141EA92114FEA826279
:101100004FEAD13742EA901206FB07FC44F1000493
:101110004FEA80604FEA1C4C0CFB0BF7D21B03FB21
:101120000CF761EB07010CFB0EF7B0EB074072EB1D
:1011300017420CFB08F734BFA2EB0742B2EB0742A1
:1011400061EB174115EB1C154FEA813141EA9241E1
:101150004FEA823242EA90424FEA80304FEA0C7600
:1011600044F1000448EA03434EEA0B484FF0000EF6
:10117000B2EB080C71EB030724BF624639464EEB15
:101180000E0E4FF0000B0018524149414BEB0B0B78
:10119000B2EB080C71EB03077BF1000B24BF624636
:1011A00039464EEB0E0E4FF0000B001852414941EC
:1011B0004BEB0B0BB2EB080C71EB03077BF1000B55
:1011C00024BF624639464EEB0E0E51EA020718BFA5
:1011D00046F0010616EB0E7655F1000254F10001BF
:1011E00003D5BDE88901BDE80088BDE88901BDE8F7
:1011F0000048B619524141EB0101A3F101037047C8
:1012000080807F7E7D7C7B7A797877767675747343
:10121000727171706F6E6E6D6C6C6B6A6A69686802
:10122000676666656464636362616160605F5F5E98
:101230005E5D5D5C5C5B5B5A5A595958585757560E
:101240005655555554545353525252515150505073
:101250004F4F4F4E4E4D4D4D4C4C4C4B4B4B4A4AC5
:101260004A49494948484847474747464646454509
:101270004544444444434343434242424241414142
:10128000002B26D4770021D01CB54FEA370703B4D2
:101290004FF010004FF010014FF000000FBCBDE800
:1012A00010400BF1010BBBF1010F08BF5FEA1707FC
:1012B00022BF12F1010211F101014FF0004143F18F
:1012C000000300F0004043EA00007047F9D35708DC
:1012D000DAE746EA064613F1400F4FEA16461FDDED
:1012E00013F1200FDFBF16430A46002120335B4273
:1012F000C8D0C3F1200746EA064602FA07F74FEACC
:10130000164646EA0706C3F1200722FA03F201FA5D
:1013100007F721FA03F14FF0000342EA0702B1E7B1
:1013200046EA020646EA06464FEA164646EA01063D
:10133000BCBF46EA0646360C4FF000034FF00002F1
:101340004FF000019EE72DE9C048934630B491E884
:10135000380007C831EA400C48BF34EA430C03D5D3
:10136000FFF7F2FDFFF78CFFF0BCBDE800882DE928
:10137000C048934630B491E8380007C810F0804F59
:1013800008BF13F0804F03D100F005F8FFF778FF96
:10139000F0BCBDE8008820F07F4780EA030023F01E
:1013A0007F4C07EB0C03A3F57C5300F00040A3F146
:1013B000FE0392F0000F00F0B38095F0000F00F0F4
:1013C00077802DE901494FEA11404FEA144621EA9E
:1013D000004800FB06FC24EA064708FB06F607FB6C
:1013E00008F800FB07F718EB06484CEB164C4FEAE1
:1013F000124B18EB07484FEA15464CEB174022EA10
:101400000B4E0BFB06FC25EA06470EFB06F607FB18
:101410000EFE0BFB07F71EEB064E4CEB164C4FF087
:1014200000061EEB074E4CEB174B18EB0B0840F178
:10143000000018EB0E0B58EB000840F100008F1A6B
:101440004FF000013CBFC943661B14BFB5EB040C51
:1014500000213CBFC943F61B4FEA17444EEA8E0EEB
:1014600027EA04454FEA1C4704FB07622CEA074CB5
:1014700005FB07F70CFB05F604FB0CFC16EB074617
:1014800042EB174216EB0C4642EB1C421BEB0606E6
:1014900058EB0202414146EA9E0601D5BDE80189AA
:1014A000B619524141EB0101A3F10103BDE80189E5
:1014B0004FEA14454FEA114724EA054621EA074C52
:1014C00005FB07F406FB07F70CFB06F105FB0CFC1C
:1014D00011EB074144EB17444FEA124711EB0C4163
:1014E00044EB1C4422EA074C05FB07F206FB07F716
:1014F0000CFB06F605FB0CFC16EB074642EB17420D
:1015000016EB0C4642EB1C456A1854F1000148BF2B
:101510007047B619524141EB0101A3F10103704735
:1015200095F0000F37D04FEA11424FEA144721EAF5
:10153000024624EA074C02FB07F106FB07F70CFB07
:1015400006F402FB0CFC14EB074441EB17414FEA95
:10155000154714EB0C4441EB1C4125EA074C02FBF8
:1015600007F506FB07F70CFB06F602FB0CFC16EB77
:10157000074645EB174516EB0C4645EB1C42121986
:1015800051F1000148BF7047B619524141EB0101CA
:10159000A3F1010370474FEA14454FEA114724EACB
:1015A000054621EA074C05FB07F106FB07F70CFB94
:1015B00006F24FF0000605FB0CFC12EB074241EB74
:1015C000174112EB0C4251EB1C4148BF7047921877
:1015D00041EB0101A3F1010370470000000000008E
:1015E00000BF01218140054A52E8002F22EA010193
:1015F000024B43E80012002AF3D1704758C007207D
:1016000070B50024B2E05B4801680120A0400140B1
:10161000002975D0584901EB44155648406801210E
:10162000A140084000287DD00120A0405149886099
:1016300004EB8400514901EB8000C06804EB840195
:101640004E4A02EB8101896888425AD004EB84003B
:10165000114601EB8000806804EB840102EB8101FC
:10166000C968461AB6F5805F01D340F6FF7604EBF1
:101670008400424901EB8000C068304404EB8401DF
:101680003E4A02EB8101C860E86800F0806098B1D2
:1016900004EB8400114651F82000286004EB84001C
:1016A00051F82010E868C0F3814006FA00F00844C1
:1016B00004EB840142F82100E86800F00060B8B152
:1016C00004EB84002D4901EB80004068686004EB66
:1016D000840001EB80004168E868C0F3415006FADD
:1016E00000F0084404EB8401244A02EB81014860C5
:1016F000E86866F30B00E860286940F001002861A3
:1017000033E0E0B2FFF76CFF04EB84001B4901EB10
:101710008000006948B304EB84000A4602EB8000B5
:10172000016900E002E0012088471EE01148C0681E
:101730000121A1400840C0B100202861E860E0B26A
:10174000FFF74EFF0120A0400A49086104EB840026
:101750000A4901EB8000006938B104EB84000A46B5
:1017600002EB8000016902208847641C082CFFF40A
:101770004AAF70BD00400050004100505CD60720C9
:1017800010B500F0F1FB222005F0F6FB05F05AFC45
:10179000002404E00548008805F03AFC641CB4F518
:1017A000963FF7D305F05AFC002010BD22C0072059
:1017B00070B505460E46144601232246314628469A
:1017C00000F07CFB222005F0D7FB05F03BFC03E09A
:1017D0000548008805F01CFC201EA4F10104F7D187
:1017E00005F03CFC002070BD20C0072070B5044609
:1017F0000D461C48007820B3C4F30F21022005F0E9
:1018000037FCE1B2032005F033FCC4F30F210420C0
:1018100005F02EFCE1B2052005F02AFCC5F30F21EE
:10182000062005F025FCE9B2072005F021FCC5F3F0
:101830000F21082005F01CFCE9B2092005F018FC76
:1018400007E0A9B2202005F013FCA1B2212005F089
:101850000FFC222005F090FB0348008805F0B2FB46
:10186000002070BD28C0072020C007202DE9F041CE
:1018700005460E4617461C463A4631462846FFF7AF
:1018800097FF31193A462846FFF792FF2246314624
:10189000284600F009F8E8192246314600F004F81D
:1018A0000020BDE8F081000070B505460E461446E4
:1018B000234601223146284600F000FB222005F095
:1018C0005BFB05F0BFFB03E00548008805F0A0FBCB
:1018D000201EA4F10104F7D105F0C0FB002070BD6B
:1018E00020C0072038B5012000F0CCFC00200346C2
:1018F00002460621009000F03FFE01220621002052
:1019000000F0D6FC01220621002000F0A7FC04F024
:10191000F3F90446FE48816800208847FC480169C5
:1019200002208847FA48FB49426AFB4890471CB9A5
:10193000002004F045FA0446472C7DD10120F749E8
:1019400008700021EA2005F093FB2021EB2005F030
:101950008FFB0C21EC2005F08BFBC721ED2005F05F
:1019600087FB3821E82005F083FB1021E92005F0F2
:101970007FFB0121F12005F07BFB1021F22005F017
:1019800077FB0121402005F073FB0021412005F089
:101990006FFB0021422005F06BFB1021432005F076
:1019A00067FB0E21442005F063FB2421452005F050
:1019B0005FFB0421462005F05BFB5021472005F02A
:1019C00057FB0221482005F053FB1321492005F065
:1019D0004FFB19214A2005F04BFB19214B2005F044
:1019E00047FB16214C2005F043FB1B21502005F03E
:1019F0003FFB3121512005F03BFB2F21522005F008
:101A000037FB3F21532005F033FB3F21542005F0E5
:101A10002FFB3E21552005F02BFB2F21562005F0F2
:101A200027FB7B21572005F023FB0921582005F0D7
:101A30001FFB0621592000E089E005F019FB062173
:101A40005A2005F015FB0C215B2005F011FB1D2130
:101A50005C2005F00DFBCC215D2005F009FB1B216E
:101A6000084605F005FB01211A2005F001FB2F2196
:101A7000242005F0FDFA5721252005F0F9FA8821E8
:101A8000232005F0F5FA3621182005F0F1FA01219E
:101A9000192005F0EDFA0021012005F0E9FA88216E
:101AA0001F2005F0E5FA142003F044FF82211F20D7
:101AB00005F0DEFA052003F03DFF92211F2005F01E
:101AC000D7FA052003F036FFD2211F2005F0D0FA07
:101AD000052003F02FFF5521172005F0C9FA00213A
:101AE000084605F0C5FA11212F2005F0C1FA0021A2
:101AF000312005F0BDFA0021322005F0B9FA382175
:101B0000282005F0B5FA142003F014FF3C2128200A
:101B100005F0AEFAA821162005F0AAFA00210E2041
:101B200005F0A6FA00210F2005F0A2FA01211020ED
:101B300005F09EFA4021112005F09AFA00211220AA
:101B400005F096FA0021132005F092FA9EE100209C
:101B5000724908704FF48071012005F089FA4FF442
:101B6000E061022005F084FA0021042005F080FAEB
:101B700040F20721082005F07BFA0021092005F03A
:101B800077FA00210A2005F073FA00210C2005F0F5
:101B90006FFA00210D2005F06BFA00210F2005F0EF
:101BA00067FA0021102005F063FA0021112005F0EA
:101BB0005FFA0021122005F05BFA0021132005F0E6
:101BC00057FA142003F0B6FE41F2B021102005F0C0
:101BD0004FFA0721112005F04BFA052003F0AAFE69
:101BE00040F2BD11122005F043FA052003F0A2FED9
:101BF0004FF4A051132005F03BFA0E21292005F0E7
:101C000037FA052003F096FE0021202005F030FA77
:101C10000021212005F02CFAA4F514509338002857
:101C20005AD0A0F53850753828B1A0F57C50183836
:101C300000286CD189E040F60D31302005F018FA0B
:101C400041F62311312005F013FA41F626413220E6
:101C500005F00EFA42F21C61332005F009FA42F257
:101C60001941342005F004FA40F60B51352005F0F7
:101C7000FFF941F20601362005F0FAF94FF4C2618E
:101C8000372005F0F5F940F20671382005F0F0F93B
:101C90004FF44171392005F0EBF940F605613A2027
:101CA00005F0E6F940F601613B2005F0E1F94FF45B
:101CB00087713C2005F0DCF940F20E513D2005F023
:101CC000D7F940F203413E2005F0D2F940F2076116
:101CD0003F2005F0CDF968E00021302005F0C8F97B
:101CE00040F20761312005F0C3F940F2053132209E
:101CF00005F0BEF90021352005F0BAF941F2046182
:101D0000362005F0B5F94FF40171372008E01BE0EB
:101D10009495000020BCBE000183080028C0072065
:101D200005F0A6F90121382005F0A2F940F207716B
:101D3000392005F09DF900213C2005F099F90F218B
:101D40003D2005F095F930E000BF0621302005F078
:101D50008FF940F20111312005F08AF90321322078
:101D600005F086F94FF48371352005F081F940F6CE
:101D70000231362005F07CF940F20231372005F0BF
:101D800077F940F20771382005F072F90721392000
:101D900005F06EF94FF4C0613C2005F069F940F29E
:101DA0000B213D2005F064F900BF00BF0021502049
:101DB00005F05EF9EF21512005F05AF9002152207B
:101DC00005F056F940F23F11532005F051F9A4F502
:101DD0001450933848B1A0F53850753820B1A0F5AB
:101DE0007C50183838B907E000BF4FF41C51602010
:101DF00005F03EF906E000BF4FF42741602005F0F2
:101E000037F900BF00BF0121612005F031F9002141
:101E10006A2005F02DF90021802005F029F9002124
:101E2000812005F025F90021822005F021F900210B
:101E3000832005F01DF90021842005F019F9002107
:101E4000852005F015F91021902005F011F90021E9
:101E5000922005F00DF90321932005F009F94FF4C4
:101E60008871952005F004F90021972005F000F90C
:101E70000021982005F0FCF841F23801032005F01C
:101E8000F7F840F23711072005F0F2F801221C2183
:101E9000042000F0E3F9002038BD000001460248AC
:101EA000016000207047000024C007200146024A5C
:101EB000118000207047000020C007202DE9F04766
:101EC00004460D4616461F462648007860B3A01902
:101ED000A0F10108E819A0F10109C4F30F210220C3
:101EE00005F0C6F8E1B2032005F0C2F8C8F30F21EF
:101EF000042005F0BDF808F0FF01052005F0B8F852
:101F0000C5F30F21062005F0B3F8E9B2072005F06C
:101F1000AFF8C9F30F21082005F0AAF809F0FF0176
:101F2000092005F0A5F81BE0A9B2502005F0A0F8A3
:101F3000E819401E81B2512005F09AF8A1B2522052
:101F400005F096F8A019401E81B2532005F090F8D4
:101F5000A9B2202005F08CF8A1B2212005F088F864
:101F6000BDE8F08728C0072010B5F0234FF4A07219
:101F700000210846FFF7A2FF10BD00002DE9F05F29
:101F80000446884691461E46DDE90BAB0A9F082CA5
:101F900003DB4FF0FF30BDE8F09F204601F0D8FA98
:101FA000401C10B94FF0FF30F5E704EB84002D49D9
:101FB00001EB8000C0F810B02B4901EB4415002064
:101FC0002861E8600120A040284988600120A040E5
:101FD00008610020A8600120086300BF2348006B4F
:101FE00000F001000028F9D004EB84001D4901EB4A
:101FF00080008660B6F5805F01D340F6FF763846F4
:1020000066F30B000746C5F80080C5F8049007F09A
:10201000806020B1C7F3814006FA00F0804407F0E9
:10202000006020B1C7F3415006FA00F0814404EB90
:1020300084000C4941F8208004EB840001EB80000F
:10204000C0F8049004EB840001EB8000C660EF60F0
:10205000C5F810A00AF0010010B92046FFF7C0FA39
:10206000002098E75CD60720004100500040005057
:1020700010B50446082C02DB4FF0FF3010BD20469F
:10208000FFF7AEFA054901EB4410006920F00100AA
:102090000A4602EB441108610020EFE700410050BE
:1020A0000146082901DB0020704701EB8100064A48
:1020B00002EB8000C068054B03EB4112D268C2F30B
:1020C0000B02801AF0E700005CD6072000410050A8
:1020D00010B524480068401C224908600846006882
:1020E000012801D9002010BD1F48006840F00050B1
:1020F0001D49C439C1F8C400002419E000201B4A5E
:1021000002EB4411086104EB8401194A42F82100F2
:1021100004EB840102EB8101486004EB840102EBD3
:102120008101886004EB840102EB8101C860641CBA
:10213000082CE3D3FF200F49886008611A2002F0C1
:1021400071FF1A20002809DB00F01F0201219140D5
:102150004209920002F1E022C2F8001100BF002003
:10216000C1E700005CC00720C4C00F400041005020
:102170005CD607200040005010B502460F2A03D855
:10218000082A01D3012902D94FF0FF3010BD39B11F
:1021900009480068A2F1080301249C40204306E09E
:1021A00005480068A2F1080301249C40A043024BAB
:1021B00018600020EAE70000C4C10F4010B51C48B9
:1021C000006810B94FF0FF3010BD19480068401E7C
:1021D000174908600846006808B10020F4E7154870
:1021E000006820F000501349C439C1F8C4001A2017
:1021F000002817DB00F01F02012191400E4A43091D
:1022000042F8231000BF00BF00BFBFF34F8F00BFD5
:1022100000BF00BF00BF00BF00BFBFF36F8F00BF94
:1022200000BF00BF00BF1A2002F0FCFE0020CBE779
:102230005CC00720C4C00F4080E100E002460648B1
:10224000202303FB0200406901238B40184008B1A2
:10225000012070470020FCE700C0092030B53AB1EA
:1022600001238B40064C202505FB0044A36106E0BA
:1022700001238B40024C202505FB0044E36130BD67
:1022800000C0092040B10949096841F40041074AEA
:10229000C43AC2F8C41007E00449096821F40041B7
:1022A000024AC43AC2F8C41070470000C4C00F40CC
:1022B00030B55AB10B4C04EB40131B6801248C4021
:1022C0002343084D05EB401423600AE0054C04EB62
:1022D00040131B6801248C40A343024D05EB4014BE
:1022E000236030BD00C0092030B50246946A2468DE
:1022F0002025AD5CEC4004F0030333B1012B06D084
:10230000022B06D0032B08D105E0042106E00121B1
:1023100004E0022102E0082100BF00BF00BF024C20
:102320002468B4FBF1F030BD60C0072030B5024630
:10233000D46C24684425AD5CEC4004F0030333B155
:10234000012B06D0022B06D0032B08D105E0042177
:1023500005E0012103E0022101E0082100BF00BFE8
:10236000024C2468B4FBF1F030BD000060C00720CF
:1023700010B5184881681848884716480169022036
:10238000884714484FF4E131826A01209047114890
:102390000121826A152090470E480121826A162089
:1023A00090470E488168002088470C480169022048
:1023B00088470A484FF4E131826A01209047074874
:1023C0000121826A1520904704480121826A162063
:1023D000904710BDCC970000055B000004980000FA
:1023E0001748007840F07C001549403981F84000DA
:1023F000084690F8230040F0B00081F8230008461A
:1024000090F8410000F0FB0081F841000846807818
:1024100000208870084690F8230000F0F80081F84A
:102420002300084690F8220000F06F0081F8220097
:102430000448406C4AF6AA210843024948647047A0
:1024400040C0092000C002409CB00020FFF72EFDD4
:1024500070E04FF0FF31012003F0D4FB8DE807005E
:1024600035484FF47A618269344890474FF0FF3124
:10247000022003F0C7FB8DE80700252004F078FB5D
:10248000022003F05FFB00202D490870002427E0A4
:1024900004EB8401C91C294A525C04EB8401091D28
:1024A000264B595C42EA012005F0A9F807460022B4
:1024B000244B04F01DFF054604F038FE04EB8401B4
:1024C000491C1E4A515C4A1004EB8401891C1B4BB9
:1024D000595C42EAC11189111B4A42F82100641C6F
:1024E000B4F5487FD4DB00241AE0174951F82400E2
:1024F00005F0A4FA2246CDE9000114A103A8FDF7D6
:1025000095FF1B483221426903A8904700BF184934
:10251000C86A8047029000F001000028F7D1641CCF
:10252000B4F5B47FE1DB03F009F90121114800683B
:1025300003F05CFB8DE70000CC9700008CC0072007
:102540000DC00720000044402CD00720416E676C6E
:10255000653A253364B0202C2044697374616E633E
:10256000653A25362E316620636D0D0A00000000A5
:102570000498000010C007202DE9F04104460D46E4
:102580001646069F00212A46102D03DBA5F11000F8
:10259000C2B20121DFF8D8C00CEBC40050F8210012
:1025A0004FEA42084FF0030C0CFA08FC20EA0C003A
:1025B000DFF8BC8008EBC40C4CF82100C4460CEBDF
:1025C000C40050F821004FEA420C06FA0CFC40EA25
:1025D0000C0008EBC40C4CF821002548403000EBFF
:1025E000C40050F821004FEA42084FF0030C0CFAE7
:1025F00008FC20EA0C0C1E48403000EBC40040F8F8
:1026000021C01B48403000EBC40050F821004FEAC5
:10261000420C03FA0CFC40EA0C00DFF854C00CF149
:10262000400C0CEBC40C4CF82100012F0ED11048CB
:10263000683050F824C00120A8404CEA0000DFF8C0
:1026400030C00CF1680C4CF824000DE008486830EC
:1026500050F824C00120A8402CEA0000DFF810C088
:102660000CF1680C4CF824000020BDE8F08100005B
:1026700000C0024070B504460D46034A2946204674
:1026800000F080F870BD00004C95000010B50446C5
:102690000249204600F005FB10BD00004C950000EB
:1026A00010B504460249204600F016FB10BD00009C
:1026B0004C95000010B5024800F01CFB10BD000056
:1026C0004C95000008B5024800F02AFB009008BDB8
:1026D0004C95000010B5024800F04FFB10BD000003
:1026E0004C95000010B504460249204600F0C7FB97
:1026F00010BD00004C95000010B50446024920466C
:1027000000F012FC10BD00004C95000070B50446AE
:102710000D46034A2946204600F0E0FC70BD00004B
:102720004C95000070B504460D46034A29462046E4
:1027300000F082FD70BD00004C95000070B50446AD
:102740000D461646034B32462946204600F01EFE33
:1027500070BD00004C95000010B5024800F0BFFEAF
:1027600010BD00004C950000014800687047000053
:102770004895000008B502480068009008BD0000B8
:10278000449500002DE9FF5F05460E4614464FF0C4
:10279000000902200390002002900190206CC07973
:1027A00000F0020020B94FF0FF3004B0BDE8F09F08
:1027B000E8B2142828D12068406820F0020021687F
:1027C0004860002021684861206C007968B194F865
:1027D0002C0018B12D21085DFFF74AFC3420005D64
:1027E00018B13521085DFFF743FC1C21606CFDF733
:1027F0001CFF0020216C08712068406840F0020036
:10280000216848600020D0E7206C007910B16FF09B
:102810000100CAE7E8B204287ED007DC88B10128AD
:102820002AD0022850D0032808D17AE010287CD082
:10283000112873D0122872D0132871D06FF00300C2
:10284000B3E72068406820F002002168486000205B
:1028500021684861206C806820F0FF00216C88604E
:10286000206C8068216C8860206CC07920F00400A6
:10287000216CC871002098E72068406820F00200B1
:10288000216848600020216848612068406820F085
:10289000040021684860206C806820F0FF00216CF3
:1028A0008860206C806840F00100216C8860206C9A
:1028B000C07940F00400216CC8712068406840F085
:1028C00002002168486031E02068406820F0020082
:1028D000216848602068406840F004002168486032
:1028E000012021684861206C806820F0FF00216C85
:1028F0008860206C806840F00200216C8860206C49
:10290000C07940F00400216CC8712068406840F034
:1029100002002168486090E004E006E057E065E0CE
:1029200068E000BF6FF006003FE700BF16B94FF048
:10293000FF303AE72046FFF7D7FC4FEA001B36018D
:10294000022722E04FF000081BE008F10100784365
:10295000BBFBF0F94E4505D1CDF804900397CDF8B7
:1029600008801AE04E450AD90198301AA6EB0901F1
:10297000884204D9CDF804900397CDF8088008F177
:102980000108B8F1FF0FE0D9BF1CFF2FDAD301987F
:1029900010B94FF0FF3008E700BF0398C0B22168BC
:1029A00008612068006820F47F4021680860206882
:1029B00000684FF47F42029902EA0121084321682E
:1029C0000860E8B2102801D10020EEE635E020468C
:1029D000FFF78AFC21680969C9B222681268C2F34C
:1029E0000722521C5143B0FBF1F0DEE6616C0E830E
:1029F0000020DAE6206C007A012806D1206C80687D
:102A000000F4C010B0F5002F02D04FF0FF30CCE63C
:102A1000606810B94FF0FF30C7E636B96268517888
:102A200010780122FFF71AFC05E0626851781078EF
:102A30000022FFF713FC0020B7E600BF206C007AED
:102A4000012872D105F4C01048B1B0F5002F25D08F
:102A5000B0F5801F4AD0B0F5C01F64D115E06068A2
:102A600040B10020009062685178107800231A4627
:102A7000FFF782FD206C806820F4C010216C886014
:102A8000206C8068216C88604EE0206C806820F4A7
:102A9000C010216C88606FF00A0086E6206C8068A8
:102AA00020F4C010216C88606068D8B100200090CC
:102AB00062685178107803230022FFF75DFD626899
:102AC000517810780122FFF7F3FB62685178107893
:102AD0000122FFF7C3FB206C806840F40020216CCA
:102AE000886002E06FF00A005FE61DE0206C8068FD
:102AF00020F4C010216C8860606878B100200090DC
:102B0000227D6368597818780323FFF735FD206C20
:102B1000806840F48010216C886003E06FF00A0048
:102B200043E602E000BF00BF00BF206C007A02282D
:102B30002DD105F4001018B1B0F5001F23D119E014
:102B4000206C806820F40010216C8860606868B197
:102B500000200090227D6368597818780323FFF7DE
:102B60000BFD206C8068216C886002E06FF00A0029
:102B70001BE60BE0206C806820F40010216C88605C
:102B80006FF00A0011E66FF00A000EE600BF05F4D0
:102B9000E060B0F5407F42D007DC68B1B0F5807FDF
:102BA00017D0B0F5007F59D126E0B0F5806F43D043
:102BB000B0F5A06F52D148E02068006820F03000E6
:102BC000216808602068006820F0C0002168086063
:102BD00047E02068006820F0300021680860206825
:102BE000006820F04000216808602068006840F01C
:102BF00080002168086034E02068006820F0300020
:102C0000216808602068006840F040002168086082
:102C10002068006820F080002168086021E02068BA
:102C2000006820F03000216808602068006840F0EB
:102C3000C0002168086014E02068006820F03000BF
:102C400040F01000216808600BE02068006820F068
:102C5000300040F020002168086002E06FF00700BB
:102C6000A3E500BFC5F3053ABAF1040F0CD3BAF1DE
:102C7000100F09D82068006820F00F00AAF10101A8
:102C800008432168086002E06FF008008DE505F454
:102C90008020B0F5802F02D16FF0090085E500207B
:102CA00083E570B505460C46012D02D0022D0FD1EB
:102CB0000FE0606C0068616CC8600020216C0871D6
:102CC000206C006818B1206C01680120884701E081
:102CD00000BF00BF00BF70BD012802D0022805D18F
:102CE00005E04A6C12684B6C1A6101E000BF00BF3E
:102CF00000BF704770B50446206CC07900F0040036
:102D000008B9002070BD3420005D28B13521085D70
:102D1000FFF7C6F9054601E0606CC5682846F1E793
:102D20000CB50146086C0279019862F3000001902D
:102D3000086C4279019862F341000190086C827935
:102D4000019862F3820001900198009A60F30002FA
:102D5000009201984208009862F3410000900198A7
:102D60008208009862F3820000900198C2080098DF
:102D700062F3DF00009000980CBD70B50446206837
:102D8000C66906F00300216808622068C06800F088
:102D9000020030B3606C0068616C0969884220D918
:102DA000606C8068A0B1606C8168481C626C906047
:102DB0000D782068006800F00F0007280AD9606CC1
:102DC0008168481C626C9060087845EA002501E043
:102DD000606C058B20688560606C0069401C616CCC
:102DE00008612068C06800F00400002839D020681D
:102DF000806885B2606C0068616CC968884230D9AF
:102E0000606C406890B1606C4268501C636C5860A4
:102E100015702068006800F00F00072806D92912F5
:102E2000606C4268501C636C58601170606CC068C4
:102E3000401C616CC860606CC068616C0968884245
:102E40000FD12068406920F00F0021684861002000
:102E5000216C0871206C006818B1206C0168012099
:102E6000884706F0010048B10121206C4171206CB7
:102E7000006818B1206C01680220884770BD38B521
:102E800005460C46206CC07900F0010008B1002016
:102E900038BD206C05600020216C08710021206C79
:102EA0004171206C81711C21606CFDF7BEFB00201C
:102EB0000090627DA368597818780023FFF75CFBC7
:102EC000E06840B100200090A27DE368597818784E
:102ED0000023FFF751FB206940B100200090E27D04
:102EE0002369597818780023FFF746FB94F82C00E3
:102EF00010B93420005D08B1FFF7EAF894F82C000F
:102F000020B12E21085D0021FFF736F93420005D45
:102F100020B13621085D0021FFF72EF90120216C38
:102F2000C8710020B4E7000070B505460C4615B125
:102F3000022D6ED15EE094F93C00002817DB00F012
:102F40001F0201219140644A430942F8231000BF47
:102F500000BF00BFBFF34F8F00BF00BF00BF00BF67
:102F600000BF00BFBFF36F8F00BF00BF00BF00BF37
:102F7000E0690068A1690843E1690860206C007994
:102F800068B194F82C0018B12D21085DFFF770F896
:102F90003420005D18B13521085DFFF769F8002085
:102FA000216848612168486221680860216848609A
:102FB00021680861032021680862E0690068A1694E
:102FC0008843E169086094F93C0002F00FF80020A2
:102FD000216C08710021206C4171206C81711C21D1
:102FE000606CFDF722FB206CC07920F00200216CA0
:102FF000C8716DE0206CC07900F0010010B94FF08D
:10300000FF3070BD206CC07900F0020010B10020CC
:10301000F7E75AE0E0690068A1690843E1690860E0
:10302000A06A006820210A5D032191408843A16ABB
:1030300008602021095D606A8840A16A0968084328
:10304000A16A0860002021684861032021680862A5
:103050000020216C08710021206C4171206C81716D
:10306000206CC07940F00200216CC87101E020683A
:1030700080682068C06800F004000028F7D194F848
:103080002C0028B12068406A40F0020021684862A4
:103090003420005D28B12068406A40F001002168BA
:1030A000486294F93C0001F0A1FF94F93C0000282B
:1030B00009DB00F01F02012191404209920002F158
:1030C000E022C2F8001100BF02E06FF0030098E7B1
:1030D00000BF002095E7000080E100E0FEB5054656
:1030E0000E46144605B116B96FF00400FEBD206C03
:1030F000C07900F0040010B94FF0FF30F6E7206C03
:10310000007910B16FF00100F0E70120216C087127
:103110000021206C4171206C8171606C008B4549ED
:103120000860606C45600020616C8860606C0660BF
:103130000020616CC860616C086194F82C00002864
:1031400073D03420005D00286FD03620005D3E2211
:1031500002EA400040F45042521CA16B2068006813
:1031600000F00F00072801D9012000E000204FF4F3
:10317000402303EA804023681B6803F00F03072BFA
:1031800001D9012300E000234FF4C00707EA4353AD
:10319000184340F00840CDE901210090226802F177
:1031A00008013522105D33462A46FEF7E7FE401C33
:1031B00010B94FF0FF3099E72E20005D4FF4F86210
:1031C00002EA801040F44842521C216B20680068DB
:1031D00000F00F00072801D9012000E000204FF483
:1031E000402303EA804023681B6803F00F03072B8A
:1031F00001D9012300E000234FF4C00707EA43533D
:10320000184340F00040CDE901210090216801F110
:1032100008022D21085D33460649FEF7AFFE401C2B
:1032200030B94FF0FF3061E7FFE70F2021684861B8
:1032300000205BE74CC00720FEB505460E4614464D
:1032400005B116B96FF00400FEBD206CC07900F026
:10325000040010B94FF0FF30F6E7206C007910B190
:103260006FF00100F0E70120216C08710021206C53
:103270004171206C81710020616C4860606C8560D8
:10328000606C06600020616CC860616C086194F835
:103290002C00002873D03420005D00286FD0362029
:1032A000005D3E2202EA400040F45042521CA16BF5
:1032B0002068006800F00F00072801D9012000E015
:1032C00000204FF4402303EA804023681B6803F08A
:1032D0000F03072B01D9012300E000234FF4C0079F
:1032E00007EA4353184340F00040CDE90121009024
:1032F000226802F108013522105D3346224AFEF7AA
:103300003DFE401C10B94FF0FF309DE72E20005DC0
:103310004FF4F86202EA801040F44842521C216BDC
:103320002068006800F00F00072801D9012000E0A4
:1033300000204FF4402303EA804023681B6803F019
:103340000F03072B01D9012300E000234FF4C0072E
:1033500007EA4353184340F00440CDE901210090AF
:10336000216801F108022D21085D33462946FEF748
:1033700005FE401C30B94FF0FF3065E7FFE70F2036
:103380002168486100205FE748C00720FEB5054678
:103390000E4617461C460DB106B117B96FF0040072
:1033A000FEBD206CC07900F0040010B94FF0FF3072
:1033B000F6E7206C007910B16FF00100F0E7012012
:1033C000216C08710021206C4171206C8171606C4E
:1033D0004660606C8560606C07600020616CC8604E
:1033E000616C086194F82C00002873D03420005DD3
:1033F00000286FD03620005D3E2202EA400040F4F3
:103400005042521CA16B2068006800F00F00072892
:1034100001D9012000E000204FF4402303EA80405E
:1034200023681B6803F00F03072B01D9012300E079
:1034300000234FF4C00C0CEA4353184340F00840FB
:10344000CDE901210090226802F108013522105DCA
:103450003B463246FEF792FD401C10B94FF0FF305C
:103460009EE72E20005D4FF4F86202EA801040F4DF
:103470004842521C216B2068006800F00F000728AA
:1034800001D9012000E000204FF4402303EA8040EE
:1034900023681B6803F00F03072B01D9012300E009
:1034A00000234FF4C00C0CEA4353184340F004408F
:1034B000CDE901210090216801F108022D21085D6C
:1034C0003B462946FEF75AFD401C30B94FF0FF300D
:1034D00066E7FFE70F2021684861002060E738B504
:1034E0000446606840B1002000906268517810780E
:1034F00000231A46FFF740F800200090A268517898
:10350000107800231A46FFF737F8E06840B1002032
:103510000090E2685178107800231A46FFF72CF8E3
:10352000206940B100200090226951781078002372
:103530001A46FFF721F894F82C0010B93420005DEA
:1035400008B1FEF73BFE0020216CC87138BD0000B9
:1035500010B5014600BF0B4850E8002F01208840FD
:10356000104020B1BFF32F8F4FF0FF3010BD01206E
:1035700088401043034C44E80003002BEBD10020AB
:10358000F4E7000058C0072020204B4908604B4852
:10359000D0F8A00100F0200030B100BF464800681C
:1035A00000F040000028F9D0032043499C3908600E
:1035B00000204249C1F8A8013F490C3108600120B0
:1035C0003D49943908603E483C4984310860AA204E
:1035D0003A498C3108605520086001203749803114
:1035E0000860AA2035498C31086055203349C1F85C
:1035F0008C0000BF31488830006800F080600028EF
:10360000F8D003202D4980310860AA202B49C1F849
:103610008C00552029498C31086000BF274888302C
:10362000006800F04070B0F1407FF7D123202349BB
:10363000A4310860AA202149C1F8AC0055201F49D7
:10364000AC31086001201D49A0310860AA201B4947
:10365000AC31086055201949C1F8AC0000BF1748CB
:10366000A830006800F480600028F8D003201349D7
:10367000A0310860AA201149C1F8AC0055200F49BB
:10368000AC31086000BF0D48A830006800F44070FD
:10369000B0F5407FF7D10B480849C43108600020DD
:1036A0000649C1F8C8010846006820F4704040F49B
:1036B0008040086070470000A0C10F4000C00F406C
:1036C00063000500DE87280410B5024800F075FE8F
:1036D00010BD0000F496000010B5024800F06DFE29
:1036E00010BD0000689700008AB0002485E04FF00C
:1036F000FF31012002F086FA01AB07C300BF522060
:1037000003F036FA3D480721826908A890474FF434
:10371000FA71022002F076FA04AB07C3049840283D
:103720000DD137481721426936A0904700BF344970
:10373000C86A8047039000F001000028F7D12F48A5
:103740000321826908A890474FF0FF31022002F060
:1037500059FA04AB07C3601CC4B20A2C0EDD28481A
:103760001A2142692DA0904700BF2549C86A8047A9
:10377000039000F001000028F7D103E09DF820003D
:103780000228BCD000BF00240A2002F0DBF900BFF1
:10379000202003F0EDF900BF18480121826907A835
:1037A00090473221022002F02DFA04AB07C39DF8A6
:1037B0001C00A528F0D111480621826908A890476D
:1037C0003221022002F01EFA01AB07C30498402800
:1037D00005D1252003F0CCF9022002F0B3F91649F7
:1037E00008A8FCF749FF0028D2D10120134908702E
:1037F00001211348006802F0F9F978E7CC9700003E
:1038000004980000436F6D6D756E69636174696F34
:103810006E2074696D656F75740A0D0052504C49C5
:103820004441522068617264776172652066616903
:103830006C7572650A0D000000C007200DC00720DE
:1038400014C0072070B504460D46034A2946204699
:1038500000F020F970BD0000F496000010B5044699
:103860000249204600F04EFC10BD0000F496000016
:1038700010B504460249204600F087FC10BD000048
:10388000F496000008B5024800F0A4FC009008BDC2
:10389000F496000008B5024800F09FFC009008BDB7
:1038A000F496000010B5024800F00DFD10BD0000B8
:1038B000F496000008B5024800F013FD009008BD22
:1038C000F496000010B5024800F069FD10BD00003C
:1038D000F496000010B504460249204600F0A3FE0D
:1038E00010BD0000F496000010B5044602492046C1
:1038F00000F018FF10BD0000F496000070B50446FB
:103900000D46034A2946204601F032F870BD0000FA
:10391000F496000070B504460D46034A2946204639
:1039200001F0E2F870BD0000F496000010B5044606
:103930000249204601F040FA10BD0000F496000054
:1039400070B504460D461646034B324629462046BE
:1039500001F082FA70BD0000F496000010B5024834
:1039600001F0B7FA10BD0000F496000070B50446EF
:103970000D46034A2946204600F08CF870BD000031
:103980006897000010B504460249204600F0BAFBD3
:1039900010BD00006897000010B50446024920469B
:1039A00000F0F3FB10BD00006897000008B5024866
:1039B00000F010FC009008BD6897000008B50248B0
:1039C00000F00BFC009008BD6897000010B502489D
:1039D00000F079FC10BD00006897000008B50248AF
:1039E00000F07FFC009008BD6897000010B5024809
:1039F00000F0D5FC10BD00006897000010B504462B
:103A00000249204600F00FFE10BD0000689700003C
:103A100010B504460249204600F084FE10BD0000A7
:103A20006897000070B504460D46034A29462046B3
:103A300000F09EFF70BD00006897000070B504465E
:103A40000D46034A2946204601F04EF870BD00009D
:103A50006897000010B504460249204601F0ACF911
:103A600010BD00006897000070B504460D4616466C
:103A7000034B32462946204601F0EEF970BD0000A6
:103A80006897000010B5024801F023FA10BD00004D
:103A9000689700002DE9F84F81460E461446206EC7
:103AA00090F82D0000F0020018B94FF0FF30BDE88B
:103AB000F88F0027B84609F0FF001538062879D29C
:103AC000DFE800F00348A9C8EFED0EB3206E90F8D0
:103AD0002C0006280BD0E06848B10020009094F834
:103AE0003020E368597818780023FEF745FD206EF2
:103AF00090F82D0040F00800216E81F82D006068DC
:103B000090F8300040F00100616881F830001FE05B
:103B1000206E90F82D0020F00800216E81F82D0015
:103B2000606890F8300020F00100616881F8300092
:103B3000206E90F82C0006280AD0E06840B10020E2
:103B40000090E2685178107800231A46FEF714FDC1
:103B50000020ACE77EB3206E90F82C00062810D031
:103B6000206E90F82C0004280BD0206948B100206A
:103B7000009094F831202369597818780023FEF7D3
:103B8000FBFC206E90F82D0040F01000216E81F8B3
:103B90002D00A06838B1A06890F84C0020F0020019
:103BA000A16881F84C006068406840F004006168DA
:103BB00048602EE0C8E0FFE7206E90F82D0020F06E
:103BC0001000216E81F82D00A06838B1A06890F82F
:103BD0004C0040F00200A16881F84C006068406829
:103BE00020F0040061684860206E90F82C000628E0
:103BF0000FD0206E90F82C0004280AD0206940B124
:103C00000020009022695178107800231A46FEF7B0
:103C1000B3FC00204BE78EB1206E90F8260010B167
:103C20006FF0010043E76068007B40F0400061688E
:103C300008730121206E80F8261009E06068007B7F
:103C400020F04000616808730021206E80F8261083
:103C500000202CE76068406820F00200616848603E
:103C600094F8540000F0C000451CE06D08B9A06D48
:103C700008B145F0080545F0040561680D72A06DB6
:103C800038B1206E90F8260018B1A16D0878FEF7C3
:103C9000EFF90021206E80F82610002007E722E0CF
:103CA000FFE76068406820F001006168486094F8B0
:103CB000540000F0C000451CE06D08B9A06D08B1CB
:103CC00045F0080545F0020561680D72E06D30B100
:103CD000206E007918B1E16D0878FEF7C9F900206F
:103CE000216E0871E3E66068406820F003006168B7
:103CF0004860A06D38B1206E90F8260018B1A16D13
:103D00000878FEF7B5F9E06D30B1206E007918B192
:103D1000E16D0878FEF7ACF994F8540000F0C000AB
:103D2000451CE06D08B9A06D08B145F0080545F0E7
:103D3000060561680D720020216E08710021206E59
:103D400080F826100020B2E600BF00BF09F0FF0097
:103D5000152871D2DFE800F0A20B0E18222D39A22F
:103D6000A2A2A2A2A2A2A2A23C41999C9F004FF0B3
:103D7000010A96E02078C0F3400010B96FF0060009
:103D800095E64FF0020A8CE02078C0F3800010B96D
:103D90006FF006008BE64FF0030A82E02078C0F354
:103DA000C00010B14FF0040A02E06FF006007EE69A
:103DB00077E02078C0F3001008B1012702E06FF02F
:103DC000060074E64FF0050A6BE06FF006006EE641
:103DD000206E80F82460002069E62078C0F300108F
:103DE00058B346B9606890F8240020F0020061687A
:103DF00081F8240047E02046FEF798FAC049B1FB5D
:103E0000F0F5606890F8240020F038076800B042B0
:103E100000D32EE0A800B04202D347F0080728E004
:103E2000E800B04202D347F0100722E02801B04278
:103E300004D347F018071CE030E021E06801B042ED
:103E400002D347F0200714E0A801B04202D347F0A4
:103E500028070EE0E801B04202D347F0300708E03F
:103E60002802B04202D347F0380702E04FF0FF309B
:103E70001DE6F8B240F00200616881F8240002E01B
:103E80004FF0FF3013E6002011E64FF0FF300EE652
:103E90004FF0FF300BE64FF0FF3008E66FF0030005
:103EA00005E600BF206E007918B9206E90F8260054
:103EB00010B16FF00100FAE509F4E06088B1B0F5E7
:103EC000A06F06D0B0F5C06F05D0B0F5E06F0BD194
:103ED00004E000BF0BE048F0010808E048F00208E9
:103EE00005E048F0030802E06FF00800DFE500BFDE
:103EF00009F4405030B1B0F5805F04D0B0F5005FF8
:103F000007D103E008E048F0180805E048F0080889
:103F100002E06FF00900CAE500BF09F4404018B1A3
:103F2000B0F5804F04D100E005E048F0040802E05D
:103F30006FF00A00BBE500BFA06890B3A068007CEA
:103F400020F0C00B09F4403048B1B0F5803F07D0F5
:103F5000B0F5003F0FD0B0F5403F27D116E028E084
:103F60002078C0F3C01010B14BF0400B02E06FF0AE
:103F70000B009CE51DE02088C0F3002010B14BF041
:103F8000800B02E06FF00B0091E512E02078C0F3A7
:103F9000C01038B12088C0F3002018B14BF0C00B1E
:103FA00003E007E06FF00B0081E502E06FF00B002B
:103FB0007DE500BFBAF1020F02D0BAF1030F0DD1B7
:103FC00009F4802010B16FF00C0070E509F40020B6
:103FD000B0F5002F02D06FF00D0068E521463046A5
:103FE00000F050FE401C10B96FF007005FE5216E35
:103FF00081F82CA0206E90F82C00062800D109E052
:10400000206E90F82D0000F0080010B194F83050A8
:1040100000E0002500BFE06840B10020EAB2009057
:10402000E368597818780023FEF7A6FA206E90F816
:104030002C00042802D0062803D100E000BF002590
:104040000AE0206E90F82D0000F0100010B194F8F6
:10405000315000E0002500BF00BF206940B10020C2
:10406000EAB200902369597818780023FEF784FAA1
:104070006069D8B1206E90F82C00022804D0032883
:1040800005D0062806D100BF94F8325004E094F819
:10409000325001E0002500BF00BF0020EAB20090CE
:1040A0006369597818780023FEF766FA2078C0F320
:1040B000001040B1606890F8240020F001003843FF
:1040C000616881F82400A06838B1A068007C20F005
:1040D000C00040EA0B00A16808746068007B00F033
:1040E000C00040EA080061680873206E90F82D0057
:1040F00040F00400216E81F82D000020D7E400007C
:1041000000CA9A3B2DE9F04106460C460025012ED7
:1041100002D0022E34D134E0206EC168C16100208B
:10412000216E0871206E90F82C00022804D0206EB9
:1041300090F82C00032818D1206E90F827700021E9
:10414000206E80F82710012F04D0022F05D0032FF6
:1041500009D105E045F0010506E045F0020503E060
:1041600045F0040500E000BF01E045F00205206EC7
:10417000006820B11DB1206E01682846884701E023
:1041800000BF00BF00BFBDE8F08170B505460C461A
:10419000012D02D0022D19D119E0206E01690162B2
:1041A0000021206E80F82610206E90F82C00022846
:1041B0000BD0206E90F82C00032806D0206E0068EB
:1041C00018B1206E01680120884701E000BF00BFE0
:1041D00000BF70BD0146086870470CB5014688688D
:1041E000002841D0086E90F82D0000F0040000284F
:1041F0003AD08868027E0888C0F3003028B11309DD
:10420000019863F30000019003E0019820F00100A1
:1042100001900888C0F3803028B15309019863F3F6
:104220004100019003E0019820F00200019008682D
:10423000C0F3004028B19309019863F3C3000190D3
:1042400003E0019820F0080001900888C0F3C03016
:1042500028B1D309019863F38200019014E001981A
:1042600020F0040001900FE0019820F0010001907F
:10427000019820F002000190019820F008000190C0
:10428000019820F0040001900198009B60F3000366
:10429000009301984308009863F34100009001984F
:1042A0008308009863F3820000900198C308009887
:1042B00063F3C300009001980309009863F31F1093
:1042C000009000980CBD70B50446E06D28B1E16D1A
:1042D0000878FDF7E5FE054601E0206EC569284631
:1042E00070BD0CB501464868007D012222EA90129B
:1042F000019862F300000190086E0279019862F360
:1043000041000190019820F004000190086E42796C
:10431000019862F3C3000190086E8279019862F3FC
:1043200004100190086EC279019862F34510019063
:10433000086E027A019862F3861001900198009A43
:1043400060F30002009201984208009862F3410075
:10435000009001988208009862F382000090019812
:10436000C208009862F3C300009001980209009807
:1043700062F30410009001984209009862F345101E
:10438000009001988209009862F3861000900198CD
:10439000C209009862F3DF10009000980CBD70B560
:1043A0000446A06D28B1A16D0878FDF779FE054699
:1043B00001E0206E056A284670BD2DE9F0410446F3
:1043C00000256068866806F00100002870D106F0BC
:1043D0000E00022853D110271FE0206E90F82C0009
:1043E000022804D0206E90F82C0003280AD1206EF9
:1043F00090F82700022805D1206E90F8240061680B
:10440000087005E0206E8169006A085C61680870C8
:10441000206E006A401C216E0862381EA7F1010759
:1044200004D0206E0169006A8142D6D1206E0169F4
:10443000006A814223D16068406820F00200616810
:1044400048600021206E80F82610206E90F82C0025
:10445000022804D0206E90F82C0003280DD1206E85
:1044600090F8270001280AD1206E90F82D0000F066
:10447000100008B945F0010501E045F0010506F01E
:104480000E00062803D1204600F0FAFA054306F094
:104490000E00042803D006F00E000C2878D1606DC1
:1044A00038B1402808D0802809D0C0280DD109E0B3
:1044B000AFE04FF0010808E04FF0030805E04FF0CF
:1044C000070802E04FF00D0800BF00BF55E020468E
:1044D00000F0D6FA0543206E90F82C00022804D094
:1044E000206E90F82C00032807D1206E90F827004A
:1044F000012802D16068007805E060680178206ECC
:104500004269C0691154206EC069401C216EC861A7
:10451000206EC069216EC96888422ED160684068EB
:1045200020F00100616848600020216E0871206E53
:1045300090F82C00022804D0206E90F82C0003285C
:1045400018D1206E90F827700021206E80F8271077
:10455000012F04D0022F05D0032F09D105E045F02B
:10456000010506E045F0020503E045F0040500E022
:1045700000BF01E045F0020509E06068007D00F041
:10458000010020B1B8F10000A8F101089FD100BFDF
:1045900006F00E000C2811D1206E90F82C00022895
:1045A0000CD0206E90F82C00032807D0206EC06934
:1045B000216EC968884201D045F04005A06840B32B
:1045C00006F00E0028BBA068077E2088C0F30030EC
:1045D00020B107F0010008B145F480652088C0F3E0
:1045E000803020B107F0020008B145F40065206872
:1045F000C0F3004020B107F0040008B145F40055B5
:104600002088C0F3C03020B107F0080008B145F49D
:104610008055206E006820B11DB1206E01682846CB
:104620008847BDE8F08138B505460C46206E90F805
:104630002D0000F0010008B1002038BD206E05609B
:104640000020216E08710021206E4171206E817161
:10465000206EC171206E0172206E80F82610206ECF
:1046600080F824102088C0F3003048B1002000906A
:1046700094F83320A369597818780023FDF77CFF5C
:104680002088C0F3C02048B10020009094F8342066
:10469000E369597818780023FDF76EFF2088C0F38E
:1046A000C03048B10020009094F83520236A597832
:1046B00018780023FDF760FF2088C0F3803048B1F0
:1046C0000020009094F83620636A59781878002307
:1046D000FDF752FF2088C0F3403048B10020009021
:1046E00094F83720A36A597818780023FDF744FF1F
:1046F0002068C0F3004048B10020009094F83820B2
:10470000E36A597818780023FDF736FFA06D08B9E1
:10471000E06D08B1FDF7DCFC0120216E81F82D0071
:1047200000208AE7F8B506460C4626B1012E7DD05A
:10473000022E7CD18DE094F95000002817DB00F0A8
:104740001F0201219140894A430942F8231000BF0A
:1047500000BF00BFBFF34F8F00BF00BF00BF00BF4F
:1047600000BF00BFBFF36F8F00BF00BF00BF00BF1F
:10477000206C0068E16B0843216C0860206940B13F
:104780000020009022695178107800231A46FDF726
:10479000F3FE8020616808730120616808700020C2
:1047A0006168087161680873616848601020616819
:1047B00081F828008020616881F830004FF47A7514
:1047C00001E000BF6D1E002DFBD10720616808725B
:1047D000606880686068007D60680078A06D38B1AE
:1047E000206E90F8260018B1A16D0878FDF740FC06
:1047F000E06D30B1206E007918B1E16D0878FDF7F9
:1048000037FC206C0068E16B8843216C086094F9E8
:10481000500000F0F9FB0020216E08710021206E8D
:104820004171206E8171206EC17101E00EE097E050
:10483000206E0172206E80F82610206E90F82D00F8
:1048400020F00200216E81F82D008CE06FF0030053
:10485000F8BD206E90F82D0000F0010010B94FF067
:10486000FF30F5E7206E90F82D0000F0020008B14F
:104870000020EDE7206C0068E16B0843216C0860C4
:10488000E06C006844210A5D032191408843E16C9B
:1048900008604421095DA06C8840E16C0968084308
:1048A000E16C0860072061680872606890F8300069
:1048B00020F00100616881F83000A06838B1A0687C
:1048C00090F84C0040F00200A16881F84C000020F4
:1048D0006168486094F8540000F0C000401C40F04B
:1048E0000605E06D08B9A06D08B145F008056168DE
:1048F0000D72A06828B1A068406840F00800A16867
:1049000048600020216E08710021206E4171206EE8
:104910008171206EC171206E01720020216E81F8BC
:104920002C00216E81F82D000021206E80F82610C9
:104930000320216E81F82D0094F9500000F064FBF3
:1049400094F95000002809DB00F01F02012191407A
:104950004209920002F1E022C2F8001100BF02E019
:104960006FF0030074E700BF002071E780E100E012
:104970002DE9FE4305460E46144605B11EB96FF0FB
:104980000400BDE8FE83206E90F82D0000F00400C6
:1049900010B94FF0FF30F4E7206E0079012801D103
:1049A000C01EEEE70120216E08714FF00068206EF6
:1049B000C6600021206E8171206EC171206E417130
:1049C000206E0172206E4561206EC161206E90F8EC
:1049D0002C00022804D0206E90F82C00032806D169
:1049E000206E90F82700012801D14FF00008E06DFB
:1049F00000B3E26D91785078FDF7BEFBE06D406842
:104A0000E16D49783E2202EA410141F45041491CDE
:104A100048F00042CDE900210290E26D1078334663
:104A20002A466168FDF7AAFA0746781C40B94FF09C
:104A3000FF30A6E76068406840F0010061684860A8
:104A4000206E90F82C00022804D0206E90F82C00E4
:104A5000032813D1206E90F8270078B90221206E28
:104A600080F82710216E01F124002246314600F023
:104A70003BF8074617B14FF0FF3082E7002080E790
:104A800010B5014600204B681B7D03F01E0202F0AA
:104A900002037BB101240B6E5C7140F020000B6EB1
:104AA00093F82C30032B05D10B6E93F826300BB105
:104AB00040F0100002F0040323B101240B6E1C72BD
:104AC00040F4007002F010032BB101240B6E9C71B6
:104AD00040F0800007E002F0080323B101240B6ED0
:104AE000DC7140F4807010BD2DE9FE4305460E4692
:104AF000144605B11EB96FF00400BDE8FE83206EB8
:104B000090F82D0000F0040010B94FF0FF30F4E7EA
:104B1000206E90F8260010B16FF00100EDE7012142
:104B2000206E80F826104FF08069206E90F82C00DF
:104B3000022804D0206E90F82C0003281AD1206E91
:104B400090F8270078B90121206E80F82710216E97
:104B500001F1250022463146FFF70AFF07464FB113
:104B60004FF0FF30C9E7206E90F82700022801D1EE
:104B70004FF00009206E8561206E06610021206ED5
:104B80000162A06D08B3A26D91785078FDF7F4FA38
:104B9000A06D4068A16D49784FF4F86202EA811176
:104BA00041F44841491C49F00042CDE900210290FE
:104BB000A16D0878334629466268FDF7DFF907469C
:104BC000781C00285CD1401E97E76068007D00F0EB
:104BD000200018B10021206E80F8281011E0206E0E
:104BE000026A501C216E0862206E8069805C6168D8
:104BF0000870206E90F82800401CC1B2206E80F82A
:104C00002810206E90F82800102804D2206E016A27
:104C100000698142E3D1206E016A0069814229D195
:104C20000021206E80F826108846206E90F82C0017
:104C3000022804D0206E90F82C0003280DD1206E9D
:104C400090F8270001280AD1206E90F82D0000F07E
:104C5000100020B94FF0010801E04FF00108206E6C
:104C6000006830B1B8F1000F0AD0206E01684046EC
:104C7000884705E06068406840F00200616848606D
:104C800000203AE72DE9F04F87B080460C462046D9
:104C9000FDF74CFB049000210903049841EA1051F0
:104CA000000342460023CDE90001FBF747FB06461F
:104CB0004FF0FF300290B6F54C3F4BD3350CB6EBBE
:104CC000054F0BD100BF4FF48030B0EB151F05D955
:104CD0000020029081461FFA85FA40E0002736E066
:104CE000344830F82700B6FBF0F00509B5F5803FF1
:104CF00000D32BE00020059024E0032D01D26D1C91
:104D00001DE02C4830F8270068434FEA001B5E4541
:104D100003D9A6EB0B00039002E0ABEB0600039077
:104D2000DDE90210884208D203980290214800EB86
:104D3000870090F802901FFA85FA6D1C00BF059855
:104D4000401C059005980228D7D300BF7F1C482F30
:104D5000C6D304E04FF0FF3007B0BDE8F08F642108
:104D600002984843B0FBF6F0032802D94FF0FF3019
:104D7000F2E76068007B40F08000616808734FEAEA
:104D80001A2061680871616881F800A06068007B82
:104D900020F080006168087309F0F00009F00F014D
:104DA0000843616881F82800206EC0F83080002038
:104DB000D2E70000C49500000246086E90F82D006E
:104DC00000F0040010B94FF0FF307047886810B948
:104DD0006FF00300F9E76AB90888C0F3C02030B16A
:104DE0008868007C20F002008B68187402E06FF085
:104DF0000300EAE7012A0DD10888C0F3C02030B1D2
:104E00008868007C40F002008B68187402E06FF044
:104E10000300DAE7022A0DD10888C0F3403030B130
:104E20008868007C20F001008B68187402E06FF045
:104E30000300CAE7032A0DD10888C0F3403030B11F
:104E40008868007C40F001008B68187402E06FF005
:104E50000300BAE70020B8E72DE9F04180460E468E
:104E600017461C46B8F1000F01D006B11FB96FF00C
:104E70000400BDE8F081206E90F82D0000F00400E1
:104E800010B94FF0FF30F4E7206E90F82C000228A4
:104E900004D0206E90F82C00032815D10321206E39
:104EA00080F82710224639463046FFF761FD054657
:104EB0000DB12846DDE7224639464046FFF714FE8D
:104EC000054625B12846D4E74FF0FF30D1E7002052
:104ED000CFE738B50446E06840B100200090E268B2
:104EE0005178107800231A46FDF746FB206940B13F
:104EF0000020009022695178107800231A46FDF7AF
:104F00003BFB2088C0F3003040B100200090A26934
:104F10005178107800231A46FDF72EFB2088C0F345
:104F2000C02040B100200090E26951781078002341
:104F30001A46FDF721FB2088C0F3C03040B10020A5
:104F40000090226A5178107800231A46FDF714FB6E
:104F50002088C0F3803040B100200090626A517810
:104F6000107800231A46FDF707FB2088C0F3403075
:104F700040B100200090A26A5178107800231A46B0
:104F8000FDF7FAFA2068C0F3004040B1002000901D
:104F9000E26A5178107800231A46FDF7EDFAA06D09
:104FA00008B9E06D08B1FDF709F90020216E81F81C
:104FB0002D0038BD08B502480068009008BD00000B
:104FC000C0950000490050EAC12018BF04204A0DD6
:104FD00018BF40F0010040F2FF72B2EB515F08BF12
:104FE00040F00200012808BF05207047002807DBB9
:104FF00000F01F0201219140024A430942F82310A8
:105000007047000080E200E0002807DB00F01F028C
:1050100001219140024A430942F8231070470000E1
:1050200080E200E0002807DB00F01F020121914030
:10503000024A430942F823107047000080E200E072
:105040002DE9F74F144694B00021C4E902111599D7
:10505000079121F00045C9498D4206DC1599C4E944
:10506000000117B00020BDE8F08FC549DFF814A398
:10507000A9423CDD0799C44E0029C44FC44A159982
:10508000534619DD02F0F0FB554506D0C14AC24B2C
:1050900002F0EAFBC4E900010AE04FF0D352BE4B34
:1050A00002F0E2FB32463B4602F0DEFBC4E90001BF
:1050B00017B00120BDE8F08F02F06AF8554506D020
:1050C000B44AB54B02F064F8C4E900010AE04FF0BD
:1050D000D352B14B02F05CF832463B4602F058F82E
:1050E000C4E9000117B04FF0FF30BDE8F08FAB49C5
:1050F000A942159978DB21F0004183468846A84AE9
:10510000A84B02F0A7FA0022A74B02F041F802F0E8
:1051100047FA099002F073FA06460F469C4A534636
:1051200002F098FA43465A4602F092FB80468A46BD
:10513000984A994B3046394602F08CFA2A0D0125DF
:105140000B924246534602F083FB032DC4E9000153
:1051500039D00B98C1F30A51401A05EB45111139AA
:10516000814230DA9148C346784400EB0510CDF80F
:105170000CA00C90D0E900233046394602F06AFAC0
:1051800002460B46049106905846039902F06CFBC8
:1051900080468A4602460B465846039902F064FB55
:1051A000049B069A02F060FB83460C9803913946F3
:1051B000D0E90223304602F04DFA5A46039B02F032
:1051C00053FB6D1CBDE707980028A2BF099817B0D4
:1051D000BDE8F08F616881F000416160099817B007
:1051E0004042BDE8F08FFFE784461598C1F31301F4
:1051F000C0F30A50A0F2F5304FEA601800F01F0625
:10520000C6F12000139000200690079041F4801E04
:1052100005206D4676B1664A08EB00017A4452F8E3
:10522000213002EB8101B3404A68139922FA01F15F
:10523000194305E05F4908EB0002794451F8221058
:10524000A1FB0E27A1FB0C131A449A4234BF012381
:10525000002303EB070A05EB8003D3E901B70F44F2
:105260008F4234BF0121002193448B4411B19345F7
:1052700002D903E0934501D2012100E00021C3E9F6
:1052800001B7514445F82010011EA0F10100C1DC16
:105290000298059F00F10050800F12900298DDE9FE
:1052A0000356800002F0ABF9834628460D9102F0C8
:1052B000BDF96FF01D0202F06BFCCDE90E01304626
:1052C00002F0B4F96FF03D0202F062FC80468A46BB
:1052D000384602F0ABF96FF05D0202F059FC074668
:1052E00042465346119101F053FFDDE90E2301F0D0
:1052F0004FFF5A460D9B01F04BFF00250E465A46C4
:1053000028460D9B02F0B0FADDE90E2302F0ACFA5C
:105310004246534602F0A8FA3A46119B02F098FA28
:10532000DFF898A0244A534602F094F907468846CD
:10533000234A244B3146284602F08CF93A4643462C
:1053400001F026FF074688464FF0A84253463146F3
:10535000284602F07FF93A46434601F019FF159AB4
:1053600012F0004F04D0129A81F000415242129282
:10537000C4E90001129817B0BDE8F08FFB21E93FA6
:105380007CD90240FB21F93F7370032E8A19A33B9D
:10539000000040543163621A61B4D03DFB213941B1
:1053A00083C8C96D305FE43F0000E03F0447000060
:1053B0008046000062460000182D4454FB21F93D50
:1053C0003326A611460B113C2DE9FF4D21F0004874
:1053D00007460C46B8F1795F08DA02F0E1F80028D8
:1053E00001BF0020324904B0BDE8F08D3A462346A3
:1053F0001046194602F02EF9054602462D480E4683
:105400000B460621784400F05DF82A46334602F048
:1054100021F9DDE9022382468B463846214602F017
:1054200019F904460F4652465B462846314602F0BB
:1054300011F922463B4602F017FA07468A464FF01A
:10544000FF322846314602F0A3FB1B4A90450ADA98
:105450003A46534602F008FA04B00022BDE8F04D87
:10546000134B02F0F5B9154A4245A8BFA8F500153F
:105470004FF00004B8BF124D22462B4602F0F4F95B
:105480000646884622462B460020094902F0ECF9E0
:1054900004460D463A4653463046414602F0E4F98A
:1054A00004B022462B46BDE8F04D02F0D1B9000011
:1054B0000000F03F384400003333D33F0000E93FA1
:1054C0000000D23F2DE9F0414F1E00EBC70104461A
:1054D000D1E9000115461E4637F006020DD02A46D6
:1054E000334602F0B7F87F1E04EBC703D3E900236D
:1054F00001F04EFE37F00602F1D1022F25D0042F25
:1055000013D0062F18BFBDE8F0812A46334602F0BB
:10551000A1F8D4E90A2301F03BFE2A46334602F003
:1055200099F8D4E9082301F033FE2A46334602F005
:1055300091F8D4E9062301F02BFE2A46334602F007
:1055400089F8D4E9042301F023FE2A46334602F009
:1055500081F8D4E9022301F01BFE2A46334602F00B
:1055600079F8D4E90023BDE8F04101F011BE000054
:105570002DE9FF4D054621F0004084B00C46B0F106
:10558000795F0BDA2846FFF71DFD042808BF00F0FD
:105590006FF8284608B02146BDE8F08D2A460B4634
:1055A000104602F057F806460F462A46234602F0F8
:1055B00051F8804626488A4632463B4605217844C3
:1055C000FFF780FF83461098029160B3214A224B77
:1055D0004046514602F03EF8CDE900015A464046A9
:1055E0005146029B02F036F882468846DDE9060104
:1055F0004FF0FF3202F0CCFA5246434602F034F943
:1056000032463B4602F026F8DDE9062302F02CF98B
:10561000DDE9002302F028F908B02A462346BDE858
:10562000F04D02F015B90B465A463046394602F0A5
:1056300011F8084A084B01F0ABFD4246534602F010
:1056400009F808B02A462346BDE8F04D01F0A0BD98
:1056500076430000495555555555C5BF012202F006
:1056600097BA002213461046114601F041BE0000D1
:10567000024A0020110702F08BBA000001FDFFFF73
:10568000074810B5007848B101F06AFA30B1054911
:1056900000EB400001EB4010603810BD024810BD27
:1056A00065C007204C28001060D7072010B5002ADD
:1056B00006DA22F00042D21D22F00703102203E096
:1056C000D21C22F003030C2213B19C188C4201D986
:1056D000012010BD024401448360C0E90021C91AC1
:1056E000D018884202D810600246F9E70020106006
:1056F00010BD30380A2801D20120704700207047C1
:1057000005490978002905D000684FF6FF71DFF8D8
:105710000CC000DF7047000065C00720F563000083
:1057200004490978002903D00068DFF80CC000DFC5
:105730007047000065C007201D6300002DE9F04799
:105740008AB0FCF71DF80020FCF7B0FB022308220A
:1057500076219B20FCF78AF800245EE0204601F0C9
:105760004EFF314A314BCDE9000101F073FF0022B9
:105770002F4BCDE9020101F0BBFDCDE9040100F0A2
:105780005BF805460E462B4951F8240002F056F905
:1057900007462A46334601F05DFF00224FF0804362
:1057A000CDE9060101F0A4FDCDE9080101F0F8FE04
:1057B0000FFA80F9204601F022FF1B4A1B4BCDE96E
:1057C000000101F047FF05460022194B01F090FD52
:1057D000CDE9020101F0E4F9CDE90601154951F8DE
:1057E000240002F02BF9CDE90401DDE9062301F0E4
:1057F00031FF074600224FF0804301F079FDCDE9EB
:10580000080101F0CDFE0FFA80FA0AF1770109F1E3
:105810009F00FBF7EBFF601C04B2B4F5B47F9DDB87
:105820000AB0BDE8F08700006E861BF0F921194030
:10583000008076402CD0072000B5244B21F0004298
:1058400087B09A42DCBF0022134629DD204B9A42E2
:1058500008D140B94FF00100FAF753FFFFF701FFFD
:1058600007B000BD03DBFFF7F9FE07B000BD02AAD9
:10587000FFF7E6FB10F0030104BF0DF1080C9CE8F4
:105880000F000DD0012001290ED0022914D00DF1F6
:10589000080C00909CE80F00FFF76AFE07B000BDFF
:1058A000FFF792FD07B000BD0DF1080C00909CE8D9
:1058B0000F00FFF75DFE05E00DF1080C9CE80F00FE
:1058C000FFF782FD07B081F0004100BDFB21E93FF9
:1058D0000000F07F08480068C0010BD50748006849
:1058E000C00707D0054880380068002802DA04495C
:1058F0000120087070470000FCED00E0800E00E021
:1059000088C007204FF06042D36F002BFCD0036BA0
:10591000D367D36F002BFCD0C07840EA0120A2F8F7
:105920007C0070474FF06041CA6F002AFCD081F8BC
:105930007C0070470949096842F21072B1FBF2F12C
:10594000484305E000BF00BF00BF00BF00BF00BF6D
:10595000011EA0F10100F5D17047000060C00720D2
:1059600040F2F3101449096841F00601124AC43AA2
:10597000C2F8C4100021114AD16040F2E7319161B0
:10598000411E91640E49096941F480610C4A11611C
:105990000A49496941F00201084A51611146096DFD
:1059A00041F0090111651146C96C41F4FC41D16413
:1059B0000121516070470000C4C00F4000800140C9
:1059C00000C0024070B50D46040003D012B9207823
:1059D000012801D0802070BD204600F0F3FB28B1E3
:1059E0002946204600F02AF8002070BD812070BDB5
:1059F00070B50C4600F050FF4FF0004108B1220C8A
:105A000001D0084670BD058BC178A0B200F002F845
:105A1000284670BD0A460146074810B500EB8200D3
:105A200050F8040C002805D000F06EFDBDE81040D1
:105A300000F05ABD10BD00002428001010B500F081
:105A400063FDBDE8104000F04FBD000008B500F058
:105A500085F8FFF785FFFCF78BFCFCF7C1FCFBF733
:105A600041FFFBF78DFE1648FCF718FA0020FCF703
:105A70001DFA0021134800F0D1F8134908600021F5
:105A8000124800F0CBF81249086000F079F811488C
:105A90006421426910A0904700BF0E49C86A804740
:105AA000009000F001000028F7D1012106480068AD
:105AB00000F09CF84FF0FF3000F044F8002008BDE3
:105AC000CC9400001C7C000010C007202C7C00003F
:105AD00014C00720049800000A0D2D2D2D2D2D2D0A
