:020000040000FA
:10000000C0D9072001030000090300000B03000012
:100010000D0300000F0300001103000000000000AA
:1000200000000000000000000000000015020000B9
:1000300015030000000000008D020000C90200004E
:100040001B0300001B0300001B0300001B03000038
:100050001B03000099350000A93500001B030000B8
:100060001B0300001B0300001B0300001B03000018
:100070001B0300001B0300001B030000A52500005C
:100080001B0300001B0300001B0300001B030000F8
:100090001B0300001B0300001B0300001B030000E8
:1000A0001B0300001B030000011600001B030000DF
:1000B0001B0300001B0300001B0300001B030000C8
:1000C0001B0300001B0300001B03000000F002F8EC
:1000D00000F04AF80AA090E8000C82448344AAF198
:1000E0000107DA4501D100F03FF8AFF2090EBAE896
:1000F0000F0013F0010F18BFFB1A43F0010318475C
:100100008C980000BC980000103A24BF78C878C1D1
:10011000FAD8520724BF30C830C144BF04680C600D
:10012000704700000023002400250026103A28BF55
:1001300078C1FBD8520728BF30C148BF0B60704759
:10014000662907F0C784642900F0AC81002070475D
:100150001FB500F060FD04000020002106F0A6FF9E
:10016000E0601FBD10B510BD00F056FE1146FFF750
:10017000EFFF0FB400F00CF80FBC05F04FFC00F0DF
:10018000B1F803B4FFF7EEFF03BC00F03FFE000040
:1001900004B005F0B9FC0448002105F015FD05F098
:1001A000C5FC00F09FF80000D094000080F309889F
:1001B0007047EFF309807047684680F30988044868
:1001C0000078C00714BF0220032080F31488704712
:1001D00090940000DFF818C0EFF305831B0618BFEA
:1001E0006047EFF31483DB0708BF604700DF704709
:1001F0007D5D0000DFF818C0EFF305831B0618BF14
:100200006047EFF31483DB0708BF604700DF7047E8
:10021000F95F0000EFF30980816911F8021CF1B960
:1002200090E80F10E047EFF3098C8CE80700144BBF
:1002300093E8060091420FD039B12CE9F00FC1F8D4
:1002400028C00CB406F016FA0CBC1A60D2F828C00C
:10025000BCE8F00F8CF309886FF0020E704710B500
:10026000084A1268914209D8074C54F8214090E896
:100270000F10A047EFF3098C8CE80F0010BD0000B1
:1002800068C00720DC150000DC15000006F0C4F88B
:100290000C4B93E80600914210D0EFF3098C2CE947
:1002A000F00FC1F828C00CB406F0E4F90CBC1A60D9
:1002B000D2F828C0BCE8F00F8CF309886FF0020E6A
:1002C0007047000068C0072006F09CFAE0E70000D5
:1002D00005F0C4FC06F096FADAE700000048704723
:1002E0005CD7072010B50446AFF300802046BDE878
:1002F0001040FFF746BF704770477047FFFFFFFF92
:100300000948804709480047FEE7FEE7FEE7FEE7A9
:10031000FEE7FEE7FEE7FEE7FEE7FEE704480549E5
:10032000034A054B7047000059340000CD0000001F
:10033000C0D70720C0D90720C0D7072053EA020C36
:1003400000F069802DE9F04B4FF00006002B1FBF35
:10035000B3FA83F503FA05F424FA05F65E4012BFFA
:100360001643B2FA82F502FA05F4C5F120051EBF64
:1003700022FA05FC44EA0C04203556EA044C4FEA04
:10038000144418BF641C4FF000084FF0000990425D
:1003900071EB030C39D3002919BFB1FA81F701FAC7
:1003A00007F6B0FA80F700FA07F6C7F120071EBF7C
:1003B00020FA07FC46EA0C062037B6FBF4FCA7EB54
:1003C0000507103F07F01F0BCBF120060CFA0BFBC3
:1003D0002CFA06F644BFB3460026202FA4BF5E4683
:1003E0004FF0000B5BEA060C08BF4FF0010B19EB56
:1003F0000B09ABFB027C48EB0608C01B06FB02CCDA
:100400000BFB03CC71EB0C01C1E70B4602464146E6
:100410004846BDE8F08B13B54FF000004FF00001E7
:10042000AFF30080BDE81C40704700000FB41CB55E
:10043000074B06AA7B4469460090059800F0D3FB61
:100440000020694600F0E2FB1CBC5DF814FB0000D4
:10045000D507000070B5044685690068C10601D55E
:10046000302600E02026C00707D070BDD4E9012166
:1004700030469047206A401C20626D1EF6D570BD44
:1004800070B5044685690078C00707D170BDD4E90E
:10049000012120209047206A401C20626D1EF6D565
:1004A00070BD00002DE9F041064600241068752952
:1004B000314616A510D0AFF30080002802DA404282
:1004C00013A507E031688A0701D512A502E04907A4
:1004D00004D511A5012401E0AFF3008000210A2218
:1004E00006F1240709E0B0FBF2FCB0FBF2F302FBDB
:1004F0001C00303078541846491C0028F3D123469C
:100500002A463046BDE8F04100F001B90000000085
:100510002D0000002B000000200000002DE9F04716
:100520004FF0000A89460446C0F820A02046E16842
:100530008847002876D0252806D0D4E901219047A5
:10054000206A401C2062F1E7E168204600258847C8
:10055000C4F81CA006460027C4F818A02A2E09D00B
:10056000304605F0AEF838B304EB8708303EC8F8E3
:10057000186019E059F8041B204604EB87029161CA
:10058000E1688847012F064618D1E069002820DA83
:1005900025F020051DE0D8F8180000EB800006EBE0
:1005A00040003038C8F818002046E1688847064601
:1005B00005F087F80028EED1012F0AD02E2E08D1A1
:1005C0002046E16888477F1C0646022F45F020053B
:1005D000C4DBA069002803DA404245F00105A061B0
:1005E000E80701D025F01005B6B1A6F141001928A1
:1005F00002D8203645F400654A463146204625603B
:100600004D46FFF79DFD58B1012806D0ED1D25F0A0
:10061000070000F1080989E704E005F1040985E70E
:1006200030468AE7206ABDE8F0874FF0000200B547
:10063000134694469646203922BFA0E80C50A0E805
:100640000C50B1F12001BFF4F7AF090728BFA0E8B3
:100650000C5048BF0CC05DF804EB890028BF40F87F
:10066000042B08BF704748BF20F8022B11F0804FC1
:1006700018BF00F8012B70474FF0013C50F8042BD5
:1006800051F8043B9A4221D1A2EB0C03934313EAA5
:10069000CC1317D150F8042B51F8043B9A4215D1D2
:1006A000A2EB0C03934313EACC130BD150F8042BA9
:1006B00051F8043B9A4209D1A2EB0C03934313EA8D
:1006C000CC13DBD04FF00000704700BFD01A01BA46
:1006D000B1FA81F101F0180122FA01F0CB40C1F129
:1006E0002001DBB2C0B2C01A2CFA01F3D11A914337
:1006F00011EAC311E6D1704710B500F091FA006815
:1007000010BD10B5044600F08BFA046010BD2DE951
:10071000F0470D4699469246044600F124080168C8
:10072000880604D5E06921F01001216000E0012075
:10073000A84201DD471B00E00027A1697A1902EBFE
:100740000900081AA0612078C00602D42046FFF7ED
:1007500081FE002608E0D4E901211AF8060090473E
:10076000206A401C761C20624E45F4DB2078C006CF
:100770000AD52046FFF76EFE06E0D4E901213020BD
:100780009047206A401C2062381EA7F10107F4DC64
:1007900007E0D4E9012118F805009047206A401CC1
:1007A0002062281EA5F10105F3DC2046FFF768FE54
:1007B0002078000602D50220BDE8F0870120FBE783
:1007C00070472DE9FF4F0C461E464FF0FF378BB0A8
:1007D000D2E90001DDF860800A908A46C1F30A552B
:1007E00005B93D46002108464FF00000BAF1000F60
:1007F00000F4400005DA00EB80004FF4400101EA0C
:1008000050004FEA9059B9F1010F00DDB9460A983E
:1008100050EA4A000ED044F61050A5F2FF35454389
:100820002F14B8F1000F1ED07542291E1EDDC9F12C
:1008300000021CE0B8F1010F4FF0000001D03021A0
:1008400003E0F24305E02154401CB042FBDB30469C
:100850000022002121540B99C1F80880C1E9002031
:100860000FB0BDE8F08FBD1B6D1CDEE74A4600DA15
:10087000694206A800F05CFA06AB93E8070003ABF8
:1008800083E8070050460A9900F0ECFA8DE807006B
:10089000A0F500501F3800900398002D09DD42F2AA
:1008A0001F014A46084403A90390684600F04BFD27
:1008B00008E0A0F500504A461F3803A90390684697
:1008C00000F055FD8DE807000004000C03D04FF048
:1008D000FF30410800E01046B8F1000F03D00022BD
:1008E000009215461EE0751E05D400F09BF93032CB
:1008F00062556D1EF9D5B3460122084302D000228D
:100900007F1C04E02078302801D100227F1E002ABD
:10091000099786D01DE0112D07DA00F083F93032F7
:1009200062556D1C50EA0102F5D1084302D00098CF
:10093000C8B10EE00021681E05E0235C625C6354D0
:100940002254401E491C8142F7DBAB46A81B401EC7
:100950000990002004F80B000B98099AC0F8088051
:10096000C0E9002B7CE711264FF0000859E72DE97C
:10097000F04F88460446D21D22F0070191B0D1E91C
:100980000001CDE90A0104F005FB02460B98C00FF7
:1009900001D02D2007E02068810701D52B2002E03F
:1009A000202101EAC000032A099001D0072A05DBB3
:1009B00003464146204600F07BF90BE12078800693
:1009C00001D5E06900E00620B8F1650F814606D048
:1009D000B8F1660F18D0B8F1670F70D131E0002080
:1009E000B9F1110F009001DB112301E009F10103BE
:1009F0000AAA01A90CA8FFF7E4FEDDE90C700026A5
:100A000009F10105834647E001204B4600904FF075
:100A100000470AAA01A90CA8FFF7D3FEDDE90DB033
:100A20000C995D46002610B909F101000D18B9EBCB
:100A3000050003D4C0F1FF3609F10105A5EB09005B
:100A40002BE0B9F1010F01DA4FF001090020B9F1F3
:100A5000110F0090484601DD112300E003460AAA69
:100A600001A90CA8FFF7ADFEDDE90C704D4600268C
:100A70008346207800070AD4AB4500DA5D4601A81A
:100A8000012D04DD411911F8011C302907D04F4513
:100A900002DA17F1040F04DA012082460FE06D1E1E
:100AA000EEE7002F02DCED1B3E4403E0781CA84279
:100AB00000DD7D1CB81B00F1010A4FF000472078D3
:100AC000000703D4AA4501DB4FF0FF3A0021B7F13C
:100AD000004F0DF143088DF8431024D002202B2342
:100AE000002F01DA7F422D230A21021EA0F101000E
:100AF00000DC5FB197FBF1FC97FBF1F201FB1C7C82
:100B000017460CF1300C08F801CDEEE7A8F1010012
:100B100003702188090501D5452100E06521A0F178
:100B2000010800F8011C09980FA9A1EB0807FF1D97
:100B300000B10120411901EBEA70A1693844081A9B
:100B4000401EA0612078C00602D42046FFF782FC38
:100B5000099828B1D4E901219047206A401C2062FD
:100B60002078C00622D52046FFF774FC1EE0002E38
:100B700004DBB34502DD01A8805D00E03020D4E94C
:100B800001219047206A401C2062761CAAF10100D6
:100B90005FEA000A0AD100F03EF8C0680168405CD4
:100BA000D4E901219047206A401C2062281EA5F14B
:100BB0000105DCDC07E0D4E9012118F8010B9047BE
:100BC000206A401C2062381EA7F10107F3DC204692
:100BD000FFF756FC032011B043E6000001694A1CF0
:100BE00002610878704700B58FB0CDE9013100216E
:100BF000059105497944CDE9031011466846FFF790
:100C00008DFC0FB000BD0000E5FFFFFF0A6802F891
:100C1000010B0A60704710B5FFF760FB203010BD74
:100C200004F016BD30B5B0F10A024FEA900E71F132
:100C300000034EEA817EB0EB0E0061EB91014FEABA
:100C4000101E4EEA017E10EB0E0041EB11114FEA2F
:100C5000102E4EEA016E10EB0E0041EB11214FEA0F
:100C6000104E4EEA014E10EB0E0041EB11414018C0
:100C700041F100014FEAD00040EA41704FEAD10152
:100C800010EB80054FEA810444EA907444EB0104C0
:100C90006D1944EB0404521BA3414FF0000348BFFD
:100CA0000A3200D530BD401C41F1000130BD0000CA
:100CB0002DE9F0411F46044603260168072A01F486
:100CC000006004DB08B116A505E016A503E008B135
:100CD00015A500E015A521F010002060A069C01E38
:100CE000A0610FB1401EA0612046FFF7B3FB4FB1DA
:100CF000D4E9012138469047206A401C2062C01C7C
:100D0000206206E0206AFAE7D4E9012115F8010B18
:100D10009047761EF8D22046FFF7B2FBBDE8F0817F
:100D20004E414E006E616E00494E4600696E66008F
:100D30002DE9F047814616468AB0334878440DC8FD
:100D40008DE80D0030487844801C03AC0DC884E861
:100D50000D0041F69B300844372190FBF1F290FBE7
:100D6000F1F5A5F1800501FB12041B3C02D564429C
:100D7000012000E00020DFF890A080460027FA4420
:100D8000AAF1BE0A0DE0E00709D03246684607EB3B
:100D900047010AEB810100F0EAFA8DE807006410D0
:100DA0007F1C002CEFD1184F7F44AC3F18E0E807C0
:100DB00014D007EB04100DF1180A90E80E008AE831
:100DC0000E00C068F04201D198190890324606A979
:100DD00003A800F0CCFA03AB83E807006D10641C95
:100DE000002DE4D132466946B8F1000F03A802D0C5
:100DF00000F0A9FA01E000F0BAFAC9E90001C9F867
:100E000008200AB0BDE8F087348C000001491820A2
:100E1000ABBEFEE7260002007546FFF75FFAAE465E
:100E200005006946534620F00700854618B020B5F6
:100E3000FFF774FABDE820404FF000064FF00007BE
:100E40004FF000084FF0000B21F00701AC46ACE872
:100E5000C009ACE8C009ACE8C009ACE8C0098D46DF
:100E6000704770475FEA400C08BF91F0000F4FEAEF
:100E70008C234FEAC12243EA51514FEA1C5018BF5C
:100E800000F5F0404FEA300018BF41F000415FEA42
:100E90006C5C00F02980BCF1FF3F08BF40F080404F
:100EA0007047130C06BF12044FF0100C4FF0000CEB
:100EB000130E04BF12020CF1080C130F04BF120131
:100EC0000CF1040C930F04BF92000CF1020CD30F31
:100ED00004BF52000CF1010C11464FF00002A0F1CA
:100EE0001F00A0EB0C00704711F0004F08BF7047C7
:100EF00031F000413FF4D5AF0B0C06BF09044FF0B1
:100F0000100C4FF0000C0B0E04BF09020CF1080C82
:100F10000B0F04BF09010CF1040C8B0F04BF8900F7
:100F20000CF1020CCB0F04BF49000CF1010CCCF109
:100F30002003A0EB0C0022FA03F302FA0CF241EAC0
:100F4000030100F10100704720F07F4C80EA0300AC
:100F500023F07F47ACEB070303F57C5300F0004020
:100F600003F1FF032DE980494FEA154B09B44FEA1D
:100F7000144325EA0B4E24EA03480FF2042606EB3D
:100F8000132749083E785FEA320203FB0667C7F57C
:100F9000000707FB06F64FEA54374FEAD64606F13C
:100FA000020607FB066CCCF1005C4FEA1C472CEAFA
:100FB000074C07FB06F40CFB06F504EB15464FEA5D
:100FC000961634BF00204FF000404FEAD13706FBA1
:100FD00007FC4FEA1C4C0CFB0BF7D21B03FB0CF776
:100FE00061EB07010CFB0EF7B0EB074072EB174209
:100FF0000CFB08F734BFA2EB0742B2EB074261EBF0
:1010000017414FEA0C444FEA910706FB07FC4FEAF1
:101010001C4C0CFB0BF7B0EBC74072EB573203FBD9
:101020000CF734BFA2EBC742B2EBC74261EB5731BA
:101030000CFB0EF7B0EBC70072EB57720CFB08F716
:1010400034BFA2EBC702B2EBC70261EB5771039F3B
:101050004FEA816141EA921104EBCC044FEAD137A7
:101060004FEA826206FB07FC42EA90124FEA806078
:101070004FEA1C4C0CFB0BF7D21B03FB0CF761EB8C
:1010800007010CFB0EF7B0EB074072EB17420CFBAD
:1010900008F734BFA2EB0742B2EB074261EB1741FE
:1010A0004FEA8C554FEA910704EB9C2406FB07FCA2
:1010B0004FEA1C4C0CFB0BF7B0EBC74072EB5732FE
:1010C00003FB0CF734BFA2EBC742B2EBC74261EBA4
:1010D00057310CFB0EF7B0EBC70072EB57720CFBED
:1010E00008F734BFA2EBC702B2EBC70261EB57713E
:1010F00015EB4C254FEA816141EA92114FEA826279
:101100004FEAD13742EA901206FB07FC44F1000493
:101110004FEA80604FEA1C4C0CFB0BF7D21B03FB21
:101120000CF761EB07010CFB0EF7B0EB074072EB1D
:1011300017420CFB08F734BFA2EB0742B2EB0742A1
:1011400061EB174115EB1C154FEA813141EA9241E1
:101150004FEA823242EA90424FEA80304FEA0C7600
:1011600044F1000448EA03434EEA0B484FF0000EF6
:10117000B2EB080C71EB030724BF624639464EEB15
:101180000E0E4FF0000B0018524149414BEB0B0B78
:10119000B2EB080C71EB03077BF1000B24BF624636
:1011A00039464EEB0E0E4FF0000B001852414941EC
:1011B0004BEB0B0BB2EB080C71EB03077BF1000B55
:1011C00024BF624639464EEB0E0E51EA020718BFA5
:1011D00046F0010616EB0E7655F1000254F10001BF
:1011E00003D5BDE88901BDE80088BDE88901BDE8F7
:1011F0000048B619524141EB0101A3F101037047C8
:1012000080807F7E7D7C7B7A797877767675747343
:10121000727171706F6E6E6D6C6C6B6A6A69686802
:10122000676666656464636362616160605F5F5E98
:101230005E5D5D5C5C5B5B5A5A595958585757560E
:101240005655555554545353525252515150505073
:101250004F4F4F4E4E4D4D4D4C4C4C4B4B4B4A4AC5
:101260004A49494948484847474747464646454509
:101270004544444444434343434242424241414142
:10128000002B26D4770021D01CB54FEA370703B4D2
:101290004FF010004FF010014FF000000FBCBDE800
:1012A00010400BF1010BBBF1010F08BF5FEA1707FC
:1012B00022BF12F1010211F101014FF0004143F18F
:1012C000000300F0004043EA00007047F9D35708DC
:1012D000DAE746EA064613F1400F4FEA16461FDDED
:1012E00013F1200FDFBF16430A46002120335B4273
:1012F000C8D0C3F1200746EA064602FA07F74FEACC
:10130000164646EA0706C3F1200722FA03F201FA5D
:1013100007F721FA03F14FF0000342EA0702B1E7B1
:1013200046EA020646EA06464FEA164646EA01063D
:10133000BCBF46EA0646360C4FF000034FF00002F1
:101340004FF000019EE72DE9C048934630B491E884
:10135000380007C831EA400C48BF34EA430C03D5D3
:10136000FFF7F2FDFFF78CFFF0BCBDE800882DE928
:10137000C048934630B491E8380007C810F0804F59
:1013800008BF13F0804F03D100F005F8FFF778FF96
:10139000F0BCBDE8008820F07F4780EA030023F01E
:1013A0007F4C07EB0C03A3F57C5300F00040A3F146
:1013B000FE0392F0000F00F0B38095F0000F00F0F4
:1013C00077802DE901494FEA11404FEA144621EA9E
:1013D000004800FB06FC24EA064708FB06F607FB6C
:1013E00008F800FB07F718EB06484CEB164C4FEAE1
:1013F000124B18EB07484FEA15464CEB174022EA10
:101400000B4E0BFB06FC25EA06470EFB06F607FB18
:101410000EFE0BFB07F71EEB064E4CEB164C4FF087
:1014200000061EEB074E4CEB174B18EB0B0840F178
:10143000000018EB0E0B58EB000840F100008F1A6B
:101440004FF000013CBFC943661B14BFB5EB040C51
:1014500000213CBFC943F61B4FEA17444EEA8E0EEB
:1014600027EA04454FEA1C4704FB07622CEA074CB5
:1014700005FB07F70CFB05F604FB0CFC16EB074617
:1014800042EB174216EB0C4642EB1C421BEB0606E6
:1014900058EB0202414146EA9E0601D5BDE80189AA
:1014A000B619524141EB0101A3F10103BDE80189E5
:1014B0004FEA14454FEA114724EA054621EA074C52
:1014C00005FB07F406FB07F70CFB06F105FB0CFC1C
:1014D00011EB074144EB17444FEA124711EB0C4163
:1014E00044EB1C4422EA074C05FB07F206FB07F716
:1014F0000CFB06F605FB0CFC16EB074642EB17420D
:1015000016EB0C4642EB1C456A1854F1000148BF2B
:101510007047B619524141EB0101A3F10103704735
:1015200095F0000F37D04FEA11424FEA144721EAF5
:10153000024624EA074C02FB07F106FB07F70CFB07
:1015400006F402FB0CFC14EB074441EB17414FEA95
:10155000154714EB0C4441EB1C4125EA074C02FBF8
:1015600007F506FB07F70CFB06F602FB0CFC16EB77
:10157000074645EB174516EB0C4645EB1C42121986
:1015800051F1000148BF7047B619524141EB0101CA
:10159000A3F1010370474FEA14454FEA114724EACB
:1015A000054621EA074C05FB07F106FB07F70CFB94
:1015B00006F24FF0000605FB0CFC12EB074241EB74
:1015C000174112EB0C4251EB1C4148BF7047921877
:1015D00041EB0101A3F1010370470000000000008E
:1015E00000BF01218140054A52E8002F22EA010193
:1015F000024B43E80012002AF3D1704754C0072081
:1016000070B50024B2E05B4801680120A0400140B1
:10161000002975D0584901EB44155648406801210E
:10162000A140084000287DD00120A0405149886099
:1016300004EB8400514901EB8000C06804EB840195
:101640004E4A02EB8101896888425AD004EB84003B
:10165000114601EB8000806804EB840102EB8101FC
:10166000C968461AB6F5805F01D340F6FF7604EBF1
:101670008400424901EB8000C068304404EB8401DF
:101680003E4A02EB8101C860E86800F0806098B1D2
:1016900004EB8400114651F82000286004EB84001C
:1016A00051F82010E868C0F3814006FA00F00844C1
:1016B00004EB840142F82100E86800F00060B8B152
:1016C00004EB84002D4901EB80004068686004EB66
:1016D000840001EB80004168E868C0F3415006FADD
:1016E00000F0084404EB8401244A02EB81014860C5
:1016F000E86866F30B00E860286940F001002861A3
:1017000033E0E0B2FFF76CFF04EB84001B4901EB10
:101710008000006948B304EB84000A4602EB8000B5
:10172000016900E002E0012088471EE01148C0681E
:101730000121A1400840C0B100202861E860E0B26A
:10174000FFF74EFF0120A0400A49086104EB840026
:101750000A4901EB8000006938B104EB84000A46B5
:1017600002EB8000016902208847641C082CFFF40A
:101770004AAF70BD004000500041005058D60720CD
:1017800010B500F0F1FB222005F0CCFB05F030FC99
:10179000002404E00548008805F010FC641CB4F542
:1017A000963FF7D305F030FC002010BD1EC0072087
:1017B00070B505460E46144601232246314628469A
:1017C00000F07CFB222005F0ADFB05F011FC03E0EE
:1017D0000548008805F0F2FB201EA4F10104F7D1B2
:1017E00005F012FC002070BD1CC0072070B5044637
:1017F0000D461C48007820B3C4F30F21022005F0E9
:101800000DFCE1B2032005F009FCC4F30F21042014
:1018100005F004FCE1B2052005F000FCC5F30F2142
:10182000062005F0FBFBE9B2072005F0F7FBC5F346
:101830000F21082005F0F2FBE9B2092005F0EEFBCC
:1018400007E0A9B2202005F0E9FBA1B2212005F0B4
:10185000E5FB222005F066FB0348008805F088FBC5
:10186000002070BD24C007201CC007202DE9F041D6
:1018700005460E4617461C463A4631462846FFF7AF
:1018800097FF31193A462846FFF792FF2246314624
:10189000284600F009F8E8192246314600F004F81D
:1018A0000020BDE8F081000070B505460E461446E4
:1018B000234601223146284600F000FB222005F095
:1018C00031FB05F095FB03E00548008805F076FB49
:1018D000201EA4F10104F7D105F096FB002070BD95
:1018E0001CC0072038B5012000F0CCFC00200346C6
:1018F00002460621009000F0A7FD012206210020EB
:1019000000F0D6FC01220621002000F0A7FC04F024
:10191000C9F90446FE48816800208847FC480169EF
:1019200002208847FA48FB49426AFB4890471CB9A5
:10193000002004F01BFA0446472C7DD10120F74912
:1019400008700021EA2005F069FB2021EB2005F05A
:1019500065FB0C21EC2005F061FBC721ED2005F0B3
:101960005DFB3821E82005F059FB1021E92005F046
:1019700055FB0121F12005F051FB1021F22005F06B
:101980004DFB0121402005F049FB0021412005F0DD
:1019900045FB0021422005F041FB1021432005F0CA
:1019A0003DFB0E21442005F039FB2421452005F0A4
:1019B00035FB0421462005F031FB5021472005F07E
:1019C0002DFB0221482005F029FB1321492005F0B9
:1019D00025FB19214A2005F021FB19214B2005F098
:1019E0001DFB16214C2005F019FB1B21502005F092
:1019F00015FB3121512005F011FB2F21522005F05C
:101A00000DFB3F21532005F009FB3F21542005F039
:101A100005FB3E21552005F001FB2F21562005F046
:101A2000FDFA7B21572005F0F9FA0921582005F02D
:101A3000F5FA0621592000E089E005F0EFFA0621C9
:101A40005A2005F0EBFA0C215B2005F0E7FA1D2186
:101A50005C2005F0E3FACC215D2005F0DFFA1B21C4
:101A6000084605F0DBFA01211A2005F0D7FA2F21EC
:101A7000242005F0D3FA5721252005F0CFFA88213C
:101A8000232005F0CBFA3621182005F0C7FA0121F2
:101A9000192005F0C3FA0021012005F0BFFA8821C2
:101AA0001F2005F0BBFA142003F02CFF82211F2019
:101AB00005F0B4FA052003F025FF92211F2005F060
:101AC000ADFA052003F01EFFD2211F2005F0A6FA73
:101AD000052003F017FF5521172005F09FFA00217C
:101AE000084605F09BFA11212F2005F097FA0021F6
:101AF000312005F093FA0021322005F08FFA3821C9
:101B0000282005F08BFA142003F0FCFE3C2128204D
:101B100005F084FAA821162005F080FA00210E2095
:101B200005F07CFA00210F2005F078FA0121102041
:101B300005F074FA4021112005F070FA00211220FE
:101B400005F06CFA0021132005F068FA9EE10020F0
:101B5000724908704FF48071012005F05FFA4FF46C
:101B6000E061022005F05AFA0021042005F056FA3F
:101B700040F20721082005F051FA0021092005F064
:101B80004DFA00210A2005F049FA00210C2005F049
:101B900045FA00210D2005F041FA00210F2005F043
:101BA0003DFA0021102005F039FA0021112005F03E
:101BB00035FA0021122005F031FA0021132005F03A
:101BC0002DFA142003F09EFE41F2B021102005F002
:101BD00025FA0721112005F021FA052003F092FED5
:101BE00040F2BD11122005F019FA052003F08AFE1B
:101BF0004FF4A051132005F011FA0E21292005F011
:101C00000DFA052003F07EFE0021202005F006FAE3
:101C10000021212005F002FAA4F514509338002881
:101C20005AD0A0F53850753828B1A0F57C50183836
:101C300000286CD189E040F60D31302005F0EEF936
:101C400041F62311312005F0E9F941F62641322011
:101C500005F0E4F942F21C61332005F0DFF942F2AD
:101C60001941342005F0DAF940F60B51352005F022
:101C7000D5F941F20601362005F0D0F94FF4C261E2
:101C8000372005F0CBF940F20671382005F0C6F98F
:101C90004FF44171392005F0C1F940F605613A2051
:101CA00005F0BCF940F601613B2005F0B7F94FF4AF
:101CB00087713C2005F0B2F940F20E513D2005F04D
:101CC000ADF940F203413E2005F0A8F940F207616A
:101CD0003F2005F0A3F968E00021302005F09EF9CF
:101CE00040F20761312005F099F940F205313220C8
:101CF00005F094F90021352005F090F941F20461D6
:101D0000362005F08BF94FF40171372008E01BE015
:101D10003095000020BCBE000183080024C00720CD
:101D200005F07CF90121382005F078F940F20771BF
:101D3000392005F073F900213C2005F06FF90F21DF
:101D40003D2005F06BF930E000BF0621302005F0A2
:101D500065F940F20111312005F060F903213220CC
:101D600005F05CF94FF48371352005F057F940F622
:101D70000231362005F052F940F20231372005F0E9
:101D80004DF940F20771382005F048F90721392054
:101D900005F044F94FF4C0613C2005F03FF940F2F2
:101DA0000B213D2005F03AF900BF00BF0021502073
:101DB00005F034F9EF21512005F030F900215220CF
:101DC00005F02CF940F23F11532005F027F9A4F556
:101DD0001450933848B1A0F53850753820B1A0F5AB
:101DE0007C50183838B907E000BF4FF41C51602010
:101DF00005F014F906E000BF4FF42741602005F01C
:101E00000DF900BF00BF0121612005F007F9002195
:101E10006A2005F003F90021802005F0FFF8002179
:101E2000812005F0FBF80021822005F0F7F8002161
:101E3000832005F0F3F80021842005F0EFF800215D
:101E4000852005F0EBF81021902005F0E7F800213F
:101E5000922005F0E3F80321932005F0DFF84FF41A
:101E60008871952005F0DAF80021972005F0D6F862
:101E70000021982005F0D2F841F23801032005F046
:101E8000CDF840F23711072005F0C8F801221C21D7
:101E9000042000F0E3F9002038BD000001460248AC
:101EA000016000207047000020C007200146024A60
:101EB00011800020704700001CC007202DE9F0476A
:101EC00004460D4616461F462648007860B3A01902
:101ED000A0F10108E819A0F10109C4F30F210220C3
:101EE00005F09CF8E1B2032005F098F8C8F30F2143
:101EF000042005F093F808F0FF01052005F08EF8A6
:101F0000C5F30F21062005F089F8E9B2072005F096
:101F100085F8C9F30F21082005F080F809F0FF01CA
:101F2000092005F07BF81BE0A9B2502005F076F8F7
:101F3000E819401E81B2512005F070F8A1B252207C
:101F400005F06CF8A019401E81B2532005F066F828
:101F5000A9B2202005F062F8A1B2212005F05EF8B8
:101F6000BDE8F08724C0072010B5F0234FF4A0721D
:101F700000210846FFF7A2FF10BD00002DE9F05F29
:101F80000446884691461E46DDE90BAB0A9F082CA5
:101F900003DB4FF0FF30BDE8F09F204601F040FA30
:101FA000401C10B94FF0FF30F5E704EB84002D49D9
:101FB00001EB8000C0F810B02B4901EB4415002064
:101FC0002861E8600120A040284988600120A040E5
:101FD00008610020A8600120086300BF2348006B4F
:101FE00000F001000028F9D004EB84001D4901EB4A
:101FF00080008660B6F5805F01D340F6FF763846F4
:1020000066F30B000746C5F80080C5F8049007F09A
:10201000806020B1C7F3814006FA00F0804407F0E9
:10202000006020B1C7F3415006FA00F0814404EB90
:1020300084000C4941F8208004EB840001EB80000F
:10204000C0F8049004EB840001EB8000C660EF60F0
:10205000C5F810A00AF0010010B92046FFF7C0FA39
:10206000002098E758D6072000410050004000505B
:1020700010B50446082C02DB4FF0FF3010BD20469F
:10208000FFF7AEFA054901EB4410006920F00100AA
:102090000A4602EB441108610020EFE700410050BE
:1020A0000146082901DB0020704701EB8100064A48
:1020B00002EB8000C068054B03EB4112D268C2F30B
:1020C0000B02801AF0E7000058D6072000410050AC
:1020D00010B524480068401C224908600846006882
:1020E000012801D9002010BD1F48006840F00050B1
:1020F0001D49C439C1F8C400002419E000201B4A5E
:1021000002EB4411086104EB8401194A42F82100F2
:1021100004EB840102EB8101486004EB840102EBD3
:102120008101886004EB840102EB8101C860641CBA
:10213000082CE3D3FF200F49886008611A2002F0C1
:1021400059FF1A20002809DB00F01F0201219140ED
:102150004209920002F1E022C2F8001100BF002003
:10216000C1E7000058C00720C4C00F400041005024
:1021700058D607200040005010B502460F2A03D859
:10218000082A01D3012902D94FF0FF3010BD39B11F
:1021900009480068A2F1080301249C40204306E09E
:1021A00005480068A2F1080301249C40A043024BAB
:1021B00018600020EAE70000C4C10F4010B51C48B9
:1021C000006810B94FF0FF3010BD19480068401E7C
:1021D000174908600846006808B10020F4E7154870
:1021E000006820F000501349C439C1F8C4001A2017
:1021F000002817DB00F01F02012191400E4A43091D
:1022000042F8231000BF00BF00BFBFF34F8F00BFD5
:1022100000BF00BF00BF00BF00BFBFF36F8F00BF94
:1022200000BF00BF00BF1A2002F0E4FE0020CBE791
:1022300058C00720C4C00F4080E100E002460648B5
:10224000202303FB0200406901238B40184008B1A2
:10225000012070470020FCE700C0092030B53AB1EA
:1022600001238B40064C202505FB0044A36106E0BA
:1022700001238B40024C202505FB0044E36130BD67
:1022800000C0092040B10949096841F40041074AEA
:10229000C43AC2F8C41007E00449096821F40041B7
:1022A000024AC43AC2F8C41070470000C4C00F40CC
:1022B00030B55AB10B4C04EB40131B6801248C4021
:1022C0002343084D05EB401423600AE0054C04EB62
:1022D00040131B6801248C40A343024D05EB4014BE
:1022E000236030BD00C0092030B50246946A2468DE
:1022F0002025AD5CEC4004F0030333B1012B06D084
:10230000022B06D0032B08D105E0042106E00121B1
:1023100004E0022102E0082100BF00BF00BF024C20
:102320002468B4FBF1F030BD5CC0072030B5024634
:10233000D46C24684425AD5CEC4004F0030333B155
:10234000012B06D0022B06D0032B08D105E0042177
:1023500005E0012103E0022101E0082100BF00BFE8
:10236000024C2468B4FBF1F030BD00005CC00720D3
:1023700010B5184881681848884716480169022036
:10238000884714484FF4E131826A01209047114890
:102390000121826A152090470E480121826A162089
:1023A00090470E488168002088470C480169022048
:1023B00088470A484FF4E131826A01209047074874
:1023C0000121826A1520904704480121826A162063
:1023D000904710BD68970000C15A0000A097000008
:1023E0001748007840F07C001549403981F84000DA
:1023F000084690F8230040F0B00081F8230008461A
:1024000090F8410000F0FB0081F841000846807818
:1024100000208870084690F8230000F0F80081F84A
:102420002300084690F8220000F06F0081F8220097
:102430000448406C4AF6AA210843024948647047A0
:1024400040C0092000C002402DE9F04104460D467D
:102450001646069F00212A46102D03DBA5F1100029
:10246000C2B20121DFF8D8C00CEBC40050F8210043
:102470004FEA42084FF0030C0CFA08FC20EA0C006B
:10248000DFF8BC8008EBC40C4CF82100C4460CEB10
:10249000C40050F821004FEA420C06FA0CFC40EA56
:1024A0000C0008EBC40C4CF821002548403000EB30
:1024B000C40050F821004FEA42084FF0030C0CFA18
:1024C00008FC20EA0C0C1E48403000EBC40040F829
:1024D00021C01B48403000EBC40050F821004FEAF7
:1024E000420C03FA0CFC40EA0C00DFF854C00CF17B
:1024F000400C0CEBC40C4CF82100012F0ED11048FD
:10250000683050F824C00120A8404CEA0000DFF8F1
:1025100030C00CF1680C4CF824000DE0084868301D
:1025200050F824C00120A8402CEA0000DFF810C0B9
:102530000CF1680C4CF824000020BDE8F08100008C
:1025400000C0024070B504460D46034A29462046A5
:1025500000F080F870BD0000E894000010B504465B
:102560000249204600F005FB10BD0000E894000081
:1025700010B504460249204600F016FB10BD0000CD
:10258000E894000010B5024800F01CFB10BD0000EC
:10259000E894000008B5024800F02AFB009008BD4E
:1025A000E894000010B5024800F04FFB10BD000099
:1025B000E894000010B504460249204600F0C7FB2D
:1025C00010BD0000E894000010B504460249204602
:1025D00000F012FC10BD0000E894000070B5044645
:1025E0000D46034A2946204600F0E0FC70BD00007D
:1025F000E894000070B504460D46034A294620467B
:1026000000F082FD70BD0000E894000070B5044643
:102610000D461646034B32462946204600F01EFE64
:1026200070BD0000E894000010B5024800F0BFFE45
:1026300010BD0000E89400000148006870470000E9
:10264000E494000008B502480068009008BD00004E
:10265000E09400002DE9FF5F05460E4614464FF05A
:10266000000902200390002002900190206CC079A4
:1026700000F0020020B94FF0FF3004B0BDE8F09F39
:10268000E8B2142828D12068406820F002002168B0
:102690004860002021684861206C007968B194F896
:1026A0002C0018B12D21085DFFF7E2FC3420005DFD
:1026B00018B13521085DFFF7DBFC1C21606CFDF7CC
:1026C000B4FF0020216C08712068406840F00200CF
:1026D000216848600020D0E7206C007910B16FF0CD
:1026E0000100CAE7E8B204287ED007DC88B10128DF
:1026F0002AD0022850D0032808D17AE010287CD0B4
:10270000112873D0122872D0132871D06FF00300F3
:10271000B3E72068406820F002002168486000208C
:1027200021684861206C806820F0FF00216C88607F
:10273000206C8068216C8860206CC07920F00400D7
:10274000216CC871002098E72068406820F00200E2
:10275000216848600020216848612068406820F0B6
:10276000040021684860206C806820F0FF00216C24
:102770008860206C806840F00100216C8860206CCB
:10278000C07940F00400216CC8712068406840F0B6
:1027900002002168486031E02068406820F00200B3
:1027A000216848602068406840F004002168486063
:1027B000012021684861206C806820F0FF00216CB6
:1027C0008860206C806840F00200216C8860206C7A
:1027D000C07940F00400216CC8712068406840F066
:1027E00002002168486090E004E006E057E065E000
:1027F00068E000BF6FF006003FE700BF16B94FF07A
:10280000FF303AE72046FFF76FFD4FEA001B360125
:10281000022722E04FF000081BE008F10100784396
:10282000BBFBF0F94E4505D1CDF804900397CDF8E8
:1028300008801AE04E450AD90198301AA6EB090122
:10284000884204D9CDF804900397CDF8088008F1A8
:102850000108B8F1FF0FE0D9BF1CFF2FDAD30198B0
:1028600010B94FF0FF3008E700BF0398C0B22168ED
:1028700008612068006820F47F40216808602068B3
:1028800000684FF47F42029902EA0121084321685F
:102890000860E8B2102801D10020EEE635E02046BD
:1028A000FFF722FD21680969C9B222681268C2F3E4
:1028B0000722521C5143B0FBF1F0DEE6616C0E833F
:1028C0000020DAE6206C007A012806D1206C8068AE
:1028D00000F4C010B0F5002F02D04FF0FF30CCE66E
:1028E000606810B94FF0FF30C7E636B962685178BA
:1028F00010780122FFF7B2FC05E062685178107889
:102900000022FFF7ABFC0020B7E600BF206C007A86
:10291000012872D105F4C01048B1B0F5002F25D0C0
:10292000B0F5801F4AD0B0F5C01F64D115E06068D3
:1029300040B10020009062685178107800231A4658
:10294000FFF782FD206C806820F4C010216C886045
:10295000206C8068216C88604EE0206C806820F4D8
:10296000C010216C88606FF00A0086E6206C8068D9
:1029700020F4C010216C88606068D8B100200090FD
:1029800062685178107803230022FFF75DFD6268CA
:10299000517810780122FFF78BFC6268517810782B
:1029A0000122FFF75BFC206C806840F40020216C62
:1029B000886002E06FF00A005FE61DE0206C80682E
:1029C00020F4C010216C8860606878B1002000900D
:1029D000227D6368597818780323FFF735FD206C52
:1029E000806840F48010216C886003E06FF00A007A
:1029F00043E602E000BF00BF00BF206C007A02285F
:102A00002DD105F4001018B1B0F5001F23D119E045
:102A1000206C806820F40010216C8860606868B1C8
:102A200000200090227D6368597818780323FFF70F
:102A30000BFD206C8068216C886002E06FF00A005A
:102A40001BE60BE0206C806820F40010216C88608D
:102A50006FF00A0011E66FF00A000EE600BF05F401
:102A6000E060B0F5407F42D007DC68B1B0F5807F10
:102A700017D0B0F5007F59D126E0B0F5806F43D074
:102A8000B0F5A06F52D148E02068006820F0300017
:102A9000216808602068006820F0C0002168086094
:102AA00047E02068006820F0300021680860206856
:102AB000006820F04000216808602068006840F04D
:102AC00080002168086034E02068006820F0300051
:102AD000216808602068006840F0400021680860B4
:102AE0002068006820F080002168086021E02068EC
:102AF000006820F03000216808602068006840F01D
:102B0000C0002168086014E02068006820F03000F0
:102B100040F01000216808600BE02068006820F099
:102B2000300040F020002168086002E06FF00700EC
:102B3000A3E500BFC5F3053ABAF1040F0CD3BAF10F
:102B4000100F09D82068006820F00F00AAF10101D9
:102B500008432168086002E06FF008008DE505F485
:102B60008020B0F5802F02D16FF0090085E50020AC
:102B700083E570B505460C46012D02D0022D0FD11C
:102B80000FE0606C0068616CC8600020216C087107
:102B9000206C006818B1206C01680120884701E0B2
:102BA00000BF00BF00BF70BD012802D0022805D1C0
:102BB00005E04A6C12684B6C1A6101E000BF00BF6F
:102BC00000BF704770B50446206CC07900F0040067
:102BD00008B9002070BD3420005D28B13521085DA2
:102BE000FFF75EFA054601E0606CC5682846F1E72C
:102BF0000CB50146086C0279019862F3000001905F
:102C0000086C4279019862F341000190086C827966
:102C1000019862F3820001900198009A60F300022B
:102C2000009201984208009862F3410000900198D8
:102C30008208009862F3820000900198C208009810
:102C400062F3DF00009000980CBD70B50446206868
:102C5000C66906F00300216808622068C06800F0B9
:102C6000020030B3606C0068616C0969884220D949
:102C7000606C8068A0B1606C8168481C626C906078
:102C80000D782068006800F00F0007280AD9606CF2
:102C90008168481C626C9060087845EA002501E074
:102CA000606C058B20688560606C0069401C616CFD
:102CB00008612068C06800F00400002839D020684E
:102CC000806885B2606C0068616CC968884230D9E0
:102CD000606C406890B1606C4268501C636C5860D6
:102CE00015702068006800F00F00072806D9291227
:102CF000606C4268501C636C58601170606CC068F6
:102D0000401C616CC860606CC068616C0968884276
:102D10000FD12068406920F00F0021684861002031
:102D2000216C0871206C006818B1206C01680120CA
:102D3000884706F0010048B10121206C4171206CE8
:102D4000006818B1206C01680220884770BD38B552
:102D500005460C46206CC07900F0010008B1002047
:102D600038BD206C05600020216C08710021206CAA
:102D70004171206C81711C21606CFDF756FC0020B4
:102D80000090627DA368597818780023FFF75CFBF8
:102D9000E06840B100200090A27DE368597818787F
:102DA0000023FFF751FB206940B100200090E27D35
:102DB0002369597818780023FFF746FB94F82C0014
:102DC00010B93420005D08B1FFF782F994F82C00A7
:102DD00020B12E21085D0021FFF7CEF93420005DDF
:102DE00020B13621085D0021FFF7C6F90120216CD2
:102DF000C8710020B4E7000070B505460C4615B157
:102E0000022D6ED15EE094F93C00002817DB00F043
:102E10001F0201219140644A430942F8231000BF78
:102E200000BF00BFBFF34F8F00BF00BF00BF00BF98
:102E300000BF00BFBFF36F8F00BF00BF00BF00BF68
:102E4000E0690068A1690843E1690860206C0079C5
:102E500068B194F82C0018B12D21085DFFF708F92E
:102E60003420005D18B13521085DFFF701F900201D
:102E700021684861216848622168086021684860CB
:102E800021680861032021680862E0690068A1697F
:102E90008843E169086094F93C0002F08FF8002053
:102EA000216C08710021206C4171206C81711C2102
:102EB000606CFDF7BAFB206CC07920F00200216C39
:102EC000C8716DE0206CC07900F0010010B94FF0BE
:102ED000FF3070BD206CC07900F0020010B10020FE
:102EE000F7E75AE0E0690068A1690843E169086012
:102EF000A06A006820210A5D032191408843A16AED
:102F000008602021095D606A8840A16A0968084359
:102F1000A16A0860002021684861032021680862D6
:102F20000020216C08710021206C4171206C81719E
:102F3000206CC07940F00200216CC87101E020686B
:102F400080682068C06800F004000028F7D194F879
:102F50002C0028B12068406A40F0020021684862D5
:102F60003420005D28B12068406A40F001002168EB
:102F7000486294F93C0002F021F894F93C000028E2
:102F800009DB00F01F02012191404209920002F189
:102F9000E022C2F8001100BF02E06FF0030098E7E2
:102FA00000BF002095E7000080E100E0FEB5054687
:102FB0000E46144605B116B96FF00400FEBD206C34
:102FC000C07900F0040010B94FF0FF30F6E7206C34
:102FD000007910B16FF00100F0E70120216C087159
:102FE0000021206C4171206C8171606C008B45491F
:102FF0000860606C45600020616C8860606C0660F1
:103000000020616CC860616C086194F82C00002895
:1030100073D03420005D00286FD03620005D3E2242
:1030200002EA400040F45042521CA16B2068006844
:1030300000F00F00072801D9012000E000204FF424
:10304000402303EA804023681B6803F00F03072B2B
:1030500001D9012300E000234FF4C00707EA4353DE
:10306000184340F00840CDE901210090226802F1A8
:1030700008013522105D33462A46FEF77FFF401CCB
:1030800010B94FF0FF3099E72E20005D4FF4F86241
:1030900002EA801040F44842521C216B206800680C
:1030A00000F00F00072801D9012000E000204FF4B4
:1030B000402303EA804023681B6803F00F03072BBB
:1030C00001D9012300E000234FF4C00707EA43536E
:1030D000184340F00040CDE901210090216801F142
:1030E00008022D21085D33460649FEF747FF401CC4
:1030F00030B94FF0FF3061E7FFE70F2021684861EA
:1031000000205BE748C00720FEB505460E46144682
:1031100005B116B96FF00400FEBD206CC07900F057
:10312000040010B94FF0FF30F6E7206C007910B1C1
:103130006FF00100F0E70120216C08710021206C84
:103140004171206C81710020616C4860606C856009
:10315000606C06600020616CC860616C086194F866
:103160002C00002873D03420005D00286FD036205A
:10317000005D3E2202EA400040F45042521CA16B26
:103180002068006800F00F00072801D9012000E046
:1031900000204FF4402303EA804023681B6803F0BB
:1031A0000F03072B01D9012300E000234FF4C007D0
:1031B00007EA4353184340F00040CDE90121009055
:1031C000226802F108013522105D3346224AFEF7DB
:1031D000D5FE401C10B94FF0FF309DE72E20005D5A
:1031E0004FF4F86202EA801040F44842521C216B0E
:1031F0002068006800F00F00072801D9012000E0D6
:1032000000204FF4402303EA804023681B6803F04A
:103210000F03072B01D9012300E000234FF4C0075F
:1032200007EA4353184340F00440CDE901210090E0
:10323000216801F108022D21085D33462946FEF779
:103240009DFE401C30B94FF0FF3065E7FFE70F20CF
:103250002168486100205FE744C00720FEB50546AD
:103260000E4617461C460DB106B117B96FF00400A3
:10327000FEBD206CC07900F0040010B94FF0FF30A3
:10328000F6E7206C007910B16FF00100F0E7012043
:10329000216C08710021206C4171206C8171606C7F
:1032A0004660606C8560606C07600020616CC8607F
:1032B000616C086194F82C00002873D03420005D04
:1032C00000286FD03620005D3E2202EA400040F424
:1032D0005042521CA16B2068006800F00F000728C4
:1032E00001D9012000E000204FF4402303EA804090
:1032F00023681B6803F00F03072B01D9012300E0AB
:1033000000234FF4C00C0CEA4353184340F008402C
:10331000CDE901210090226802F108013522105DFB
:103320003B463246FEF72AFE401C10B94FF0FF30F4
:103330009EE72E20005D4FF4F86202EA801040F410
:103340004842521C216B2068006800F00F000728DB
:1033500001D9012000E000204FF4402303EA80401F
:1033600023681B6803F00F03072B01D9012300E03A
:1033700000234FF4C00C0CEA4353184340F00440C0
:10338000CDE901210090216801F108022D21085D9D
:103390003B462946FEF7F2FD401C30B94FF0FF30A6
:1033A00066E7FFE70F2021684861002060E738B535
:1033B0000446606840B1002000906268517810783F
:1033C00000231A46FFF740F800200090A2685178C9
:1033D000107800231A46FFF737F8E06840B1002064
:1033E0000090E2685178107800231A46FFF72CF815
:1033F000206940B1002000902269517810780023A4
:103400001A46FFF721F894F82C0010B93420005D1B
:1034100008B1FEF7D3FE0020216CC87138BD000052
:1034200010B5014600BF0B4850E8002F012088402E
:10343000104020B1BFF32F8F4FF0FF3010BD01209F
:1034400088401043034C44E80003002BEBD10020DC
:10345000F4E7000054C0072020204B4908604B4887
:10346000D0F8A00100F0200030B100BF464800684D
:1034700000F040000028F9D0032043499C3908603F
:1034800000204249C1F8A8013F490C3108600120E1
:103490003D49943908603E483C4984310860AA207F
:1034A0003A498C3108605520086001203749803145
:1034B0000860AA2035498C31086055203349C1F88D
:1034C0008C0000BF31488830006800F08060002820
:1034D000F8D003202D4980310860AA202B49C1F87B
:1034E0008C00552029498C31086000BF274888305E
:1034F000006800F04070B0F1407FF7D123202349ED
:10350000A4310860AA202149C1F8AC0055201F4908
:10351000AC31086001201D49A0310860AA201B4978
:10352000AC31086055201949C1F8AC0000BF1748FC
:10353000A830006800F480600028F8D00320134908
:10354000A0310860AA201149C1F8AC0055200F49EC
:10355000AC31086000BF0D48A830006800F440702E
:10356000B0F5407FF7D10B480849C431086000200E
:103570000649C1F8C8010846006820F4704040F4CC
:103580008040086070470000A0C10F4000C00F409D
:1035900063000500DE87280410B5024800F0F5FE40
:1035A00010BD00009096000010B5024800F0EDFE3E
:1035B00010BD000004970000A2B04FF000090020E9
:1035C000FEF774FCEAE04FF0FF31012002F0F0FA60
:1035D0008DE8070000BF522003F0A0FA70480721D1
:1035E000826920A890474FF4FA71022002F0E0FAB5
:1035F00003AB07C3039840280DD16A4817214269DD
:1036000069A0904700BF6749C86A8047029000F0F0
:1036100001000028F7D162480321826920A8904761
:103620004FF0FF31022002F0C3FA03AB07C309F1E8
:10363000010000F0FF09B9F10A0F0EDD59481A2107
:1036400042695FA0904700BF5649C86A8047029010
:1036500000F001000028F7D103E09DF88000022867
:10366000B9D000BF4FF000090A2002F041FA00BFB4
:10367000202003F053FA00BF4948012182691FA8A6
:1036800090473221022002F093FA03AB07C39DF862
:103690007C00A528F0D142480621826920A89047E5
:1036A0003221022002F084FA8DE8070003984028B6
:1036B00005D1252003F032FA022002F019FA474919
:1036C00020A8FCF7D9FF0028D2D135484FF47A6101
:1036D0008269434890474FF0FF31022002F068FAB8
:1036E0008DE80700252003F019FA022002F000FA05
:1036F00000203C490870002427E004EB8401C91C29
:10370000374A525C04EB8401091D354B595C42EA8F
:10371000012003F04AFF07460022334B03F0BEFDB1
:10372000054603F0D9FC04EB8401491C2C4A515C8A
:103730004A1004EB8401891C294B595C42EAC111EF
:1037400089112A4A42F82100641CB4F5487FD4DB71
:1037500000241AE0254951F8240004F045F92246D6
:10376000CDE9000122A106A8FCF760FE0D48322138
:10377000426906A8904700BF0A49C86A804702907C
:1037800000F001000028F7D1641CB4F5B47FE1DB40
:1037900001F0BCFF4FF47A7002F0AAF913E70000C1
:1037A00068970000A0970000436F6D6D756E6963A8
:1037B0006174696F6E2074696D656F75740A0D00B0
:1037C00052504C494441522068617264776172657D
:1037D000206661696C7572650A0D000000C00720E3
:1037E00088C007200DC007200000444028D00720D3
:1037F000416E676C653A253364B0202C20446973B0
:1038000074616E63653A25362E316620636D0D0A4C
:103810000000000070B504460D46034A29462046C4
:1038200000F020F970BD00009096000010B504462D
:103830000249204600F04EFC10BD000090960000AA
:1038400010B504460249204600F087FC10BD000078
:103850009096000008B5024800F0A4FC009008BD56
:103860009096000008B5024800F09FFC009008BD4B
:103870009096000010B5024800F00DFD10BD00004C
:103880009096000008B5024800F013FD009008BDB6
:103890009096000010B5024800F069FD10BD0000D0
:1038A0009096000010B504460249204600F0A3FEA1
:1038B00010BD00009096000010B504460249204655
:1038C00000F018FF10BD00009096000070B504468F
:1038D0000D46034A2946204601F032F870BD00002B
:1038E0009096000070B504460D46034A29462046CE
:1038F00001F0E2F870BD00009096000010B504469B
:103900000249204601F040FA10BD000090960000E8
:1039100070B504460D461646034B324629462046EE
:1039200001F082FA70BD00009096000010B50248C8
:1039300001F0B7FA10BD00009096000070B5044683
:103940000D46034A2946204600F08CF870BD000061
:103950000497000010B504460249204600F0BAFB67
:1039600010BD00000497000010B50446024920462F
:1039700000F0F3FB10BD00000497000008B50248FA
:1039800000F010FC009008BD0497000008B5024844
:1039900000F00BFC009008BD0497000010B5024831
:1039A00000F079FC10BD00000497000008B5024843
:1039B00000F07FFC009008BD0497000010B502489D
:1039C00000F0D5FC10BD00000497000010B50446BF
:1039D0000249204600F00FFE10BD000004970000D1
:1039E00010B504460249204600F084FE10BD0000D8
:1039F0000497000070B504460D46034A2946204648
:103A000000F09EFF70BD00000497000070B50446F2
:103A10000D46034A2946204601F04EF870BD0000CD
:103A20000497000010B504460249204601F0ACF9A5
:103A300010BD00000497000070B504460D46164600
:103A4000034B32462946204601F0EEF970BD0000D6
:103A50000497000010B5024801F023FA10BD0000E1
:103A6000049700002DE9F84F81460E461446206E5B
:103A700090F82D0000F0020018B94FF0FF30BDE8BB
:103A8000F88F0027B84609F0FF001538062879D2CC
:103A9000DFE800F00348A9C8EFED0EB3206E90F800
:103AA0002C0006280BD0E06848B10020009094F864
:103AB0003020E368597818780023FEF7C5FC206EA3
:103AC00090F82D0040F00800216E81F82D0060680C
:103AD00090F8300040F00100616881F830001FE08C
:103AE000206E90F82D0020F00800216E81F82D0046
:103AF000606890F8300020F00100616881F83000C3
:103B0000206E90F82C0006280AD0E06840B1002012
:103B10000090E2685178107800231A46FEF794FC72
:103B20000020ACE77EB3206E90F82C00062810D061
:103B3000206E90F82C0004280BD0206948B100209A
:103B4000009094F831202369597818780023FEF703
:103B50007BFC206E90F82D0040F01000216E81F863
:103B60002D00A06838B1A06890F84C0020F0020049
:103B7000A16881F84C006068406840F0040061680A
:103B800048602EE0C8E0FFE7206E90F82D0020F09E
:103B90001000216E81F82D00A06838B1A06890F85F
:103BA0004C0040F00200A16881F84C006068406859
:103BB00020F0040061684860206E90F82C00062810
:103BC0000FD0206E90F82C0004280AD0206940B154
:103BD0000020009022695178107800231A46FEF7E1
:103BE00033FC00204BE78EB1206E90F8260010B118
:103BF0006FF0010043E76068007B40F040006168BF
:103C000008730121206E80F8261009E06068007BAF
:103C100020F04000616808730021206E80F82610B3
:103C200000202CE76068406820F00200616848606E
:103C300094F8540000F0C000451CE06D08B9A06D78
:103C400008B145F0080545F0040561680D72A06DE6
:103C500038B1206E90F8260018B1A16D0878FEF7F3
:103C600007FA0021206E80F82610002007E722E0E6
:103C7000FFE76068406820F001006168486094F8E0
:103C8000540000F0C000451CE06D08B9A06D08B1FB
:103C900045F0080545F0020561680D72E06D30B130
:103CA000206E007918B1E16D0878FEF7E1F9002087
:103CB000216E0871E3E66068406820F003006168E7
:103CC0004860A06D38B1206E90F8260018B1A16D43
:103CD0000878FEF7CDF9E06D30B1206E007918B1AB
:103CE000E16D0878FEF7C4F994F8540000F0C000C4
:103CF000451CE06D08B9A06D08B145F0080545F018
:103D0000060561680D720020216E08710021206E89
:103D100080F826100020B2E600BF00BF09F0FF00C7
:103D2000152871D2DFE800F0A20B0E18222D39A25F
:103D3000A2A2A2A2A2A2A2A23C41999C9F004FF0E3
:103D4000010A96E02078C0F3400010B96FF0060039
:103D500095E64FF0020A8CE02078C0F3800010B99D
:103D60006FF006008BE64FF0030A82E02078C0F384
:103D7000C00010B14FF0040A02E06FF006007EE6CA
:103D800077E02078C0F3001008B1012702E06FF05F
:103D9000060074E64FF0050A6BE06FF006006EE671
:103DA000206E80F82460002069E62078C0F30010BF
:103DB00058B346B9606890F8240020F002006168AA
:103DC00081F8240047E02046FEF7B0FAC049B1FB75
:103DD000F0F5606890F8240020F038076800B042E1
:103DE00000D32EE0A800B04202D347F0080728E035
:103DF000E800B04202D347F0100722E02801B042A9
:103E000004D347F018071CE030E021E06801B0421D
:103E100002D347F0200714E0A801B04202D347F0D4
:103E200028070EE0E801B04202D347F0300708E06F
:103E30002802B04202D347F0380702E04FF0FF30CB
:103E40001DE6F8B240F00200616881F8240002E04B
:103E50004FF0FF3013E6002011E64FF0FF300EE682
:103E60004FF0FF300BE64FF0FF3008E66FF0030035
:103E700005E600BF206E007918B9206E90F8260084
:103E800010B16FF00100FAE509F4E06088B1B0F517
:103E9000A06F06D0B0F5C06F05D0B0F5E06F0BD1C4
:103EA00004E000BF0BE048F0010808E048F0020819
:103EB00005E048F0030802E06FF00800DFE500BF0E
:103EC00009F4405030B1B0F5805F04D0B0F5005F28
:103ED00007D103E008E048F0180805E048F00808BA
:103EE00002E06FF00900CAE500BF09F4404018B1D4
:103EF000B0F5804F04D100E005E048F0040802E08E
:103F00006FF00A00BBE500BFA06890B3A068007C1A
:103F100020F0C00B09F4403048B1B0F5803F07D025
:103F2000B0F5003F0FD0B0F5403F27D116E028E0B4
:103F30002078C0F3C01010B14BF0400B02E06FF0DE
:103F40000B009CE51DE02088C0F3002010B14BF071
:103F5000800B02E06FF00B0091E512E02078C0F3D7
:103F6000C01038B12088C0F3002018B14BF0C00B4E
:103F700003E007E06FF00B0081E502E06FF00B005B
:103F80007DE500BFBAF1020F02D0BAF1030F0DD1E7
:103F900009F4802010B16FF00C0070E509F40020E6
:103FA000B0F5002F02D06FF00D0068E521463046D5
:103FB00000F050FE401C10B96FF007005FE5216E65
:103FC00081F82CA0206E90F82C00062800D109E082
:103FD000206E90F82D0000F0080010B194F83050D9
:103FE00000E0002500BFE06840B10020EAB2009088
:103FF000E368597818780023FEF726FA206E90F8C7
:104000002C00042802D0062803D100E000BF0025C0
:104010000AE0206E90F82D0000F0100010B194F826
:10402000315000E0002500BF00BF206940B10020F2
:10403000EAB200902369597818780023FEF704FA51
:104040006069D8B1206E90F82C00022804D00328B3
:1040500005D0062806D100BF94F8325004E094F849
:10406000325001E0002500BF00BF0020EAB20090FE
:104070006369597818780023FEF7E6F92078C0F3D1
:10408000001040B1606890F8240020F0010038432F
:10409000616881F82400A06838B1A068007C20F035
:1040A000C00040EA0B00A16808746068007B00F063
:1040B000C00040EA080061680873206E90F82D0087
:1040C00040F00400216E81F82D000020D7E40000AC
:1040D00000CA9A3B2DE9F04106460C460025012E08
:1040E00002D0022E34D134E0206EC168C1610020BC
:1040F000216E0871206E90F82C00022804D0206EEA
:1041000090F82C00032818D1206E90F82770002119
:10411000206E80F82710012F04D0022F05D0032F26
:1041200009D105E045F0010506E045F0020503E090
:1041300045F0040500E000BF01E045F00205206EF7
:10414000006820B11DB1206E01682846884701E053
:1041500000BF00BF00BFBDE8F08170B505460C464A
:10416000012D02D0022D19D119E0206E01690162E2
:104170000021206E80F82610206E90F82C00022876
:104180000BD0206E90F82C00032806D0206E00681B
:1041900018B1206E01680120884701E000BF00BF10
:1041A00000BF70BD0146086870470CB501468868BD
:1041B000002841D0086E90F82D0000F0040000287F
:1041C0003AD08868027E0888C0F3003028B113090D
:1041D000019863F30000019003E0019820F00100D2
:1041E00001900888C0F3803028B15309019863F327
:1041F0004100019003E0019820F00200019008685E
:10420000C0F3004028B19309019863F3C300019003
:1042100003E0019820F0080001900888C0F3C03046
:1042200028B1D309019863F38200019014E001984A
:1042300020F0040001900FE0019820F001000190AF
:10424000019820F002000190019820F008000190F0
:10425000019820F0040001900198009B60F3000396
:10426000009301984308009863F34100009001987F
:104270008308009863F3820000900198C3080098B7
:1042800063F3C300009001980309009863F31F10C3
:10429000009000980CBD70B50446E06D28B1E16D4A
:1042A0000878FDF7FDFE054601E0206EC569284649
:1042B00070BD0CB501464868007D012222EA9012CB
:1042C000019862F300000190086E0279019862F390
:1042D00041000190019820F004000190086E42799D
:1042E000019862F3C3000190086E8279019862F32D
:1042F00004100190086EC279019862F34510019094
:10430000086E027A019862F3861001900198009A73
:1043100060F30002009201984208009862F34100A5
:10432000009001988208009862F382000090019842
:10433000C208009862F3C300009001980209009837
:1043400062F30410009001984209009862F345104E
:10435000009001988209009862F3861000900198FD
:10436000C209009862F3DF10009000980CBD70B590
:104370000446A06D28B1A16D0878FDF791FE0546B1
:1043800001E0206E056A284670BD2DE9F041044623
:1043900000256068866806F00100002870D106F0EC
:1043A0000E00022853D110271FE0206E90F82C0039
:1043B000022804D0206E90F82C0003280AD1206E29
:1043C00090F82700022805D1206E90F8240061683B
:1043D000087005E0206E8169006A085C61680870F9
:1043E000206E006A401C216E0862381EA7F101078A
:1043F00004D0206E0169006A8142D6D1206E016925
:10440000006A814223D16068406820F00200616840
:1044100048600021206E80F82610206E90F82C0055
:10442000022804D0206E90F82C0003280DD1206EB5
:1044300090F8270001280AD1206E90F82D0000F096
:10444000100008B945F0010501E045F0010506F04E
:104450000E00062803D1204600F0FAFA054306F0C4
:104460000E00042803D006F00E000C2878D1606DF1
:1044700038B1402808D0802809D0C0280DD109E0E3
:10448000AFE04FF0010808E04FF0030805E04FF0FF
:10449000070802E04FF00D0800BF00BF55E02046BE
:1044A00000F0D6FA0543206E90F82C00022804D0C4
:1044B000206E90F82C00032807D1206E90F827007A
:1044C000012802D16068007805E060680178206EFC
:1044D0004269C0691154206EC069401C216EC861D8
:1044E000206EC069216EC96888422ED1606840681C
:1044F00020F00100616848600020216E0871206E84
:1045000090F82C00022804D0206E90F82C0003288C
:1045100018D1206E90F827700021206E80F82710A7
:10452000012F04D0022F05D0032F09D105E045F05B
:10453000010506E045F0020503E045F0040500E052
:1045400000BF01E045F0020509E06068007D00F071
:10455000010020B1B8F10000A8F101089FD100BF0F
:1045600006F00E000C2811D1206E90F82C000228C5
:104570000CD0206E90F82C00032807D0206EC06964
:10458000216EC968884201D045F04005A06840B35B
:1045900006F00E0028BBA068077E2088C0F300301C
:1045A00020B107F0010008B145F480652088C0F310
:1045B000803020B107F0020008B145F400652068A2
:1045C000C0F3004020B107F0040008B145F40055E5
:1045D0002088C0F3C03020B107F0080008B145F4CE
:1045E0008055206E006820B11DB1206E01682846FC
:1045F0008847BDE8F08138B505460C46206E90F836
:104600002D0000F0010008B1002038BD206E0560CB
:104610000020216E08710021206E4171206E817191
:10462000206EC171206E0172206E80F82610206EFF
:1046300080F824102088C0F3003048B1002000909A
:1046400094F83320A369597818780023FDF7FCFE0D
:104650002088C0F3C02048B10020009094F8342096
:10466000E369597818780023FDF7EEFE2088C0F33F
:10467000C03048B10020009094F83520236A597862
:1046800018780023FDF7E0FE2088C0F3803048B1A1
:104690000020009094F83620636A59781878002337
:1046A000FDF7D2FE2088C0F3403048B100200090D2
:1046B00094F83720A36A597818780023FDF7C4FED0
:1046C0002068C0F3004048B10020009094F83820E2
:1046D000E36A597818780023FDF7B6FEA06D08B993
:1046E000E06D08B1FDF7F4FC0120216E81F82D008A
:1046F00000208AE7F8B506460C4626B1012E7DD08B
:10470000022E7CD18DE094F95000002817DB00F0D8
:104710001F0201219140894A430942F8231000BF3A
:1047200000BF00BFBFF34F8F00BF00BF00BF00BF7F
:1047300000BF00BFBFF36F8F00BF00BF00BF00BF4F
:10474000206C0068E16B0843216C0860206940B16F
:104750000020009022695178107800231A46FDF756
:1047600073FE802061680873012061680870002072
:104770006168087161680873616848601020616849
:1047800081F828008020616881F830004FF47A7544
:1047900001E000BF6D1E002DFBD10720616808728B
:1047A000606880686068007D60680078A06D38B1DE
:1047B000206E90F8260018B1A16D0878FDF758FC1E
:1047C000E06D30B1206E007918B1E16D0878FDF729
:1047D0004FFC206C0068E16B8843216C086094F901
:1047E000500000F0F9FB0020216E08710021206EBE
:1047F0004171206E8171206EC17101E00EE097E081
:10480000206E0172206E80F82610206E90F82D0028
:1048100020F00200216E81F82D008CE06FF0030083
:10482000F8BD206E90F82D0000F0010010B94FF097
:10483000FF30F5E7206E90F82D0000F0020008B17F
:104840000020EDE7206C0068E16B0843216C0860F4
:10485000E06C006844210A5D032191408843E16CCB
:1048600008604421095DA06C8840E16C0968084338
:10487000E16C0860072061680872606890F8300099
:1048800020F00100616881F83000A06838B1A068AC
:1048900090F84C0040F00200A16881F84C00002024
:1048A0006168486094F8540000F0C000401C40F07B
:1048B0000605E06D08B9A06D08B145F0080561680E
:1048C0000D72A06828B1A068406840F00800A16897
:1048D00048600020216E08710021206E4171206E19
:1048E0008171206EC171206E01720020216E81F8ED
:1048F0002C00216E81F82D000021206E80F82610FA
:104900000320216E81F82D0094F9500000F064FB23
:1049100094F95000002809DB00F01F0201219140AA
:104920004209920002F1E022C2F8001100BF02E049
:104930006FF0030074E700BF002071E780E100E042
:104940002DE9FE4305460E46144605B11EB96FF02B
:104950000400BDE8FE83206E90F82D0000F00400F6
:1049600010B94FF0FF30F4E7206E0079012801D133
:10497000C01EEEE70120216E08714FF00068206E26
:10498000C6600021206E8171206EC171206E417160
:10499000206E0172206E4561206EC161206E90F81C
:1049A0002C00022804D0206E90F82C00032806D199
:1049B000206E90F82700012801D14FF00008E06D2B
:1049C00000B3E26D91785078FDF7D6FBE06D40685A
:1049D000E16D49783E2202EA410141F45041491C0F
:1049E00048F00042CDE900210290E26D1078334694
:1049F0002A466168FDF7C2FA0746781C40B94FF0B5
:104A0000FF30A6E76068406840F0010061684860D8
:104A1000206E90F82C00022804D0206E90F82C0014
:104A2000032813D1206E90F8270078B90221206E58
:104A300080F82710216E01F124002246314600F053
:104A40003BF8074617B14FF0FF3082E7002080E7C0
:104A500010B5014600204B681B7D03F01E0202F0DA
:104A600002037BB101240B6E5C7140F020000B6EE1
:104A700093F82C30032B05D10B6E93F826300BB135
:104A800040F0100002F0040323B101240B6E1C72ED
:104A900040F4007002F010032BB101240B6E9C71E6
:104AA00040F0800007E002F0080323B101240B6E00
:104AB000DC7140F4807010BD2DE9FE4305460E46C2
:104AC000144605B11EB96FF00400BDE8FE83206EE8
:104AD00090F82D0000F0040010B94FF0FF30F4E71B
:104AE000206E90F8260010B16FF00100EDE7012173
:104AF000206E80F826104FF08069206E90F82C0010
:104B0000022804D0206E90F82C0003281AD1206EC1
:104B100090F8270078B90121206E80F82710216EC7
:104B200001F1250022463146FFF70AFF07464FB143
:104B30004FF0FF30C9E7206E90F82700022801D11E
:104B40004FF00009206E8561206E06610021206E05
:104B50000162A06D08B3A26D91785078FDF70CFB4F
:104B6000A06D4068A16D49784FF4F86202EA8111A6
:104B700041F44841491C49F00042CDE9002102902E
:104B8000A16D0878334629466268FDF7F7F90746B4
:104B9000781C00285CD1401E97E76068007D00F01B
:104BA000200018B10021206E80F8281011E0206E3E
:104BB000026A501C216E0862206E8069805C616808
:104BC0000870206E90F82800401CC1B2206E80F85A
:104BD0002810206E90F82800102804D2206E016A58
:104BE00000698142E3D1206E016A0069814229D1C6
:104BF0000021206E80F826108846206E90F82C0048
:104C0000022804D0206E90F82C0003280DD1206ECD
:104C100090F8270001280AD1206E90F82D0000F0AE
:104C2000100020B94FF0010801E04FF00108206E9C
:104C3000006830B1B8F1000F0AD0206E016840461C
:104C4000884705E06068406840F00200616848609D
:104C500000203AE72DE9F04F87B080460C46204609
:104C6000FDF764FB049000210903049841EA105108
:104C7000000342460023CDE90001FBF75FFB064637
:104C80004FF0FF300290B6F54C3F4BD3350CB6EBEE
:104C9000054F0BD100BF4FF48030B0EB151F05D985
:104CA0000020029081461FFA85FA40E0002736E096
:104CB000344830F82700B6FBF0F00509B5F5803F21
:104CC00000D32BE00020059024E0032D01D26D1CC1
:104CD0001DE02C4830F8270068434FEA001B5E4572
:104CE00003D9A6EB0B00039002E0ABEB06000390A8
:104CF000DDE90210884208D203980290214800EBB7
:104D0000870090F802901FFA85FA6D1C00BF059885
:104D1000401C059005980228D7D300BF7F1C482F60
:104D2000C6D304E04FF0FF3007B0BDE8F08F642138
:104D300002984843B0FBF6F0032802D94FF0FF3049
:104D4000F2E76068007B40F08000616808734FEA1A
:104D50001A2061680871616881F800A06068007BB2
:104D600020F080006168087309F0F00009F00F017D
:104D70000843616881F82800206EC0F83080002068
:104D8000D2E70000609500000246086E90F82D0002
:104D900000F0040010B94FF0FF307047886810B978
:104DA0006FF00300F9E76AB90888C0F3C02030B19A
:104DB0008868007C20F002008B68187402E06FF0B5
:104DC0000300EAE7012A0DD10888C0F3C02030B102
:104DD0008868007C40F002008B68187402E06FF075
:104DE0000300DAE7022A0DD10888C0F3403030B161
:104DF0008868007C20F001008B68187402E06FF076
:104E00000300CAE7032A0DD10888C0F3403030B14F
:104E10008868007C40F001008B68187402E06FF035
:104E20000300BAE70020B8E72DE9F04180460E46BE
:104E300017461C46B8F1000F01D006B11FB96FF03C
:104E40000400BDE8F081206E90F82D0000F0040011
:104E500010B94FF0FF30F4E7206E90F82C000228D4
:104E600004D0206E90F82C00032815D10321206E69
:104E700080F82710224639463046FFF761FD054687
:104E80000DB12846DDE7224639464046FFF714FEBD
:104E9000054625B12846D4E74FF0FF30D1E7002082
:104EA000CFE738B50446E06840B100200090E268E2
:104EB0005178107800231A46FDF7C6FA206940B1F0
:104EC0000020009022695178107800231A46FDF7DF
:104ED000BBFA2088C0F3003040B100200090A269E6
:104EE0005178107800231A46FDF7AEFA2088C0F3F7
:104EF000C02040B100200090E26951781078002372
:104F00001A46FDF7A1FA2088C0F3C03040B1002056
:104F10000090226A5178107800231A46FDF794FA1F
:104F20002088C0F3803040B100200090626A517840
:104F3000107800231A46FDF787FA2088C0F3403026
:104F400040B100200090A26A5178107800231A46E0
:104F5000FDF77AFA2068C0F3004040B100200090CD
:104F6000E26A5178107800231A46FDF76DFAA06DB9
:104F700008B9E06D08B1FDF721F90020216E81F834
:104F80002D0038BD08B502480068009008BD00003B
:104F90005C950000490050EAC12018BF04204A0D6A
:104FA00018BF40F0010040F2FF72B2EB515F08BF42
:104FB00040F00200012808BF05207047002807DBE9
:104FC00000F01F0201219140024A430942F82310D8
:104FD0007047000080E200E0002807DB00F01F02BD
:104FE00001219140024A430942F823107047000012
:104FF00080E200E0002807DB00F01F020121914061
:10500000024A430942F823107047000080E200E0A2
:105010002DE9F74F144694B00021C4E90211159907
:10502000079121F00045C9498D4206DC1599C4E974
:10503000000117B00020BDE8F08FC549DFF814A3C8
:10504000A9423CDD0799C44E0029C44FC44A1599B2
:10505000534619DD02F0DEFB554506D0C14AC24B6E
:1050600002F0D8FBC4E900010AE04FF0D352BE4B76
:1050700002F0D0FB32463B4602F0CCFBC4E9000113
:1050800017B00120BDE8F08F02F058F8554506D062
:10509000B44AB54B02F052F8C4E900010AE04FF0FF
:1050A000D352B14B02F04AF832463B4602F046F882
:1050B000C4E9000117B04FF0FF30BDE8F08FAB49F5
:1050C000A942159978DB21F0004183468846A84A19
:1050D000A84B02F095FA0022A74B02F02FF802F03D
:1050E00035FA099002F061FA06460F469C4A53468B
:1050F00002F086FA43465A4602F080FB80468A4612
:10510000984A994B3046394602F07AFA2A0D012521
:105110000B924246534602F071FB032DC4E9000195
:1051200039D00B98C1F30A51401A05EB45111139DA
:10513000814230DA9148C346784400EB0510CDF83F
:105140000CA00C90D0E900233046394602F058FA02
:1051500002460B46049106905846039902F05AFB0A
:1051600080468A4602460B465846039902F052FB97
:10517000049B069A02F04EFB83460C980391394635
:10518000D0E90223304602F03BFA5A46039B02F074
:1051900041FB6D1CBDE707980028A2BF099817B016
:1051A000BDE8F08F616881F000416160099817B037
:1051B0004042BDE8F08FFFE784461598C1F3130124
:1051C000C0F30A50A0F2F5304FEA601800F01F0655
:1051D000C6F12000139000200690079041F4801E35
:1051E00005206D4676B1664A08EB00017A4452F814
:1051F000213002EB8101B3404A68139922FA01F190
:10520000194305E05F4908EB0002794451F8221088
:10521000A1FB0E27A1FB0C131A449A4234BF0123B1
:10522000002303EB070A05EB8003D3E901B70F4422
:105230008F4234BF0121002193448B4411B1934527
:1052400002D903E0934501D2012100E00021C3E926
:1052500001B7514445F82010011EA0F10100C1DC46
:105260000298059F00F10050800F12900298DDE92E
:105270000356800002F099F9834628460D9102F00A
:10528000ABF96FF01D0202F059FCCDE90E0130467A
:1052900002F0A2F96FF03D0202F050FC80468A460F
:1052A000384602F099F96FF05D0202F047FC0746BC
:1052B00042465346119101F041FFDDE90E2301F012
:1052C0003DFF5A460D9B01F039FF00250E465A4618
:1052D00028460D9B02F09EFADDE90E2302F09AFAB1
:1052E0004246534602F096FA3A46119B02F086FA7D
:1052F000DFF898A0244A534602F082F90746884610
:10530000234A244B3146284602F07AF93A4643466E
:1053100001F014FF074688464FF0A8425346314635
:10532000284602F06DF93A46434601F007FF159A08
:1053300012F0004F04D0129A81F0004152421292B2
:10534000C4E90001129817B0BDE8F08FFB21E93FD6
:105350007CD90240FB21F93F7370032E8A19A33BCD
:10536000000040543163621A61B4D03DFB213941E1
:1053700083C8C96D305FE43F0000E03FCC460000C9
:10538000484600002A460000182D4454FB21F93DF0
:105390003326A611460B113C2DE9FF4D21F00048A4
:1053A00007460C46B8F1795F08DA02F0CFF800281A
:1053B00001BF0020324904B0BDE8F08D3A462346D3
:1053C0001046194602F01CF9054602462D480E46C5
:1053D0000B460621784400F05DF82A46334602F079
:1053E0000FF9DDE9022382468B463846214602F05A
:1053F00007F904460F4652465B462846314602F0FE
:10540000FFF822463B4602F005FA07468A464FF06F
:10541000FF322846314602F091FB1B4A90450ADADA
:105420003A46534602F0F6F904B00022BDE8F04DCA
:10543000134B02F0E3B9154A4245A8BFA8F5001581
:105440004FF00004B8BF124D22462B4602F0E2F99D
:105450000646884622462B460020094902F0DAF922
:1054600004460D463A4653463046414602F0D2F9CC
:1054700004B022462B46BDE8F04D02F0BFB9000053
:105480000000F03F004400003333D33F0000E93F09
:105490000000D23F2DE9F0414F1E00EBC70104464A
:1054A000D1E9000115461E4637F006020DD02A4606
:1054B000334602F0A5F87F1E04EBC703D3E90023AF
:1054C00001F03CFE37F00602F1D1022F25D0042F67
:1054D00013D0062F18BFBDE8F0812A46334602F0EC
:1054E0008FF8D4E90A2301F029FE2A46334602F058
:1054F00087F8D4E9082301F021FE2A46334602F05A
:105500007FF8D4E9062301F019FE2A46334602F05B
:1055100077F8D4E9042301F011FE2A46334602F05D
:105520006FF8D4E9022301F009FE2A46334602F05F
:1055300067F8D4E90023BDE8F04101F0FFBD0000A9
:105540002DE9FF4D054621F0004084B00C46B0F136
:10555000795F0BDA2846FFF71DFD042808BF00F02D
:105560006FF8284608B02146BDE8F08D2A460B4664
:10557000104602F045F806460F462A46234602F03A
:105580003FF8804626488A4632463B460521784405
:10559000FFF780FF83461098029160B3214A224BA7
:1055A0004046514602F02CF8CDE900015A464046EB
:1055B0005146029B02F024F882468846DDE9060146
:1055C0004FF0FF3202F0BAFA5246434602F022F997
:1055D00032463B4602F014F8DDE9062302F01AF9E0
:1055E000DDE9002302F016F908B02A462346BDE89B
:1055F000F04D02F003B90B465A463046394601F0E9
:10560000FFFF084A084B01F099FD4246534601F05E
:10561000F7FF08B02A462346BDE8F04D01F08EBDE5
:105620003E430000495555555555C5BF012202F06E
:1056300085BA002213461046114601F02FBE000025
:10564000024A0020110702F079BA000001FDFFFFB5
:10565000074810B5007848B101F058FA30B1054953
:1056600000EB400001EB4010603810BD024810BD57
:1056700061C007204C2800105CD7072010B5002A15
:1056800006DA22F00042D21D22F00703102203E0C6
:10569000D21C22F003030C2213B19C188C4201D9B6
:1056A000012010BD024401448360C0E90021C91AF1
:1056B000D018884202D810600246F9E70020106036
:1056C00010BD30380A2801D20120704700207047F1
:1056D00005490978002905D000684FF6FF71DFF809
:1056E0000CC000DF7047000061C00720A16300000C
:1056F00004490978002903D00068DFF80CC000DFF6
:105700007047000061C00720C96200002DE9F04722
:105710008AB0FCF735F80020FCF7C8FB022308220A
:1057200076219B20FCF7A2F800245EE0204601F0E1
:105730003CFF314A314BCDE9000101F061FF00220D
:105740002F4BCDE9020101F0A9FDCDE9040100F0E4
:105750005BF805460E462B4951F8240002F044F947
:1057600007462A46334601F04BFF00224FF08043A4
:10577000CDE9060101F092FDCDE9080101F0E6FE58
:105780000FFA80F9204601F010FF1B4A1B4BCDE9B0
:10579000000101F035FF05460022194B01F07EFDA6
:1057A000CDE9020101F0D2F9CDE90601154951F820
:1057B000240002F019F9CDE90401DDE9062301F026
:1057C0001FFF074600224FF0804301F067FDCDE93F
:1057D000080101F0BBFE0FFA80FA0AF1770109F126
:1057E0009F00FCF703F8601C04B2B4F5B47F9DDBA6
:1057F0000AB0BDE8F08700006E861BF0F921194061
:105800000080764028D0072000B5244B21F00042CC
:1058100087B09A42DCBF0022134629DD204B9A4212
:1058200008D140B94FF00100FAF76BFFFFF701FF15
:1058300007B000BD03DBFFF7F9FE07B000BD02AA09
:10584000FFF7E6FB10F0030104BF0DF1080C9CE824
:105850000F000DD0012001290ED0022914D00DF126
:10586000080C00909CE80F00FFF76AFE07B000BD2F
:10587000FFF792FD07B000BD0DF1080C00909CE809
:105880000F00FFF75DFE05E00DF1080C9CE80F002E
:10589000FFF782FD07B081F0004100BDFB21E93F29
:1058A0000000F07F08480068C0010BD50748006879
:1058B000C00707D0054880380068002802DA04498C
:1058C0000120087070470000FCED00E0800E00E051
:1058D00084C007204FF06042D36F002BFCD0036BD5
:1058E000D367D36F002BFCD0C07840EA0120A2F828
:1058F0007C0070474FF06041CA6F002AFCD081F8ED
:105900007C0070470949096842F21072B1FBF2F15C
:10591000484305E000BF00BF00BF00BF00BF00BF9D
:10592000011EA0F10100F5D1704700005CC0072006
:1059300040F2F3101449096841F00601124AC43AD2
:10594000C2F8C4100021114AD16040F2E7319161E0
:10595000411E91640E49096941F480610C4A11614C
:105960000A49496941F00201084A51611146096D2D
:1059700041F0090111651146C96C41F4FC41D16443
:105980000121516070470000C4C00F4000800140F9
:1059900000C0024070B50D46040003D012B9207853
:1059A000012801D0802070BD204600F0E1FB28B125
:1059B0002946204600F02AF8002070BD812070BDE5
:1059C00070B50C4600F03EFF4FF0004108B1220CCC
:1059D00001D0084670BD058BC178A0B200F002F876
:1059E000284670BD0A460146074810B500EB820004
:1059F00050F8040C002805D000F05CFDBDE8104014
:105A000000F048BD10BD00002428001010B500F0C3
:105A100051FDBDE8104000F03DBD000008B500F0AC
:105A200073F8FFF785FFFCF7A3FCFCF7D9FCFBF745
:105A300059FFFBF7A5FE1348FCF730FA0020FCF7EE
:105A400035FA0021104800F0BFF81049086000F056
:105A50006DF80F48642142690EA0904700BF0C49C1
:105A6000C86A8047009000F001000028F7D10121AA
:105A70000648006800F090F84FF0FF3000F038F86A
:105A8000002008BD68940000C87B000010C00720FB
:105A9000A09700000A0D2D2D2D2D2D2D2D2D2D2DF6
:105AA0002D2D2D2D2D44656275742D2D2D2D2D2D13
:105AB0002D2D2D2D2D2D2D2D2D2D2D0A0D000000E0
:105AC00010B50446012C07D0022C0BD10221074847
:105AD000006800F061F806E003210448006800F067
